{
  "_format": "hh-sol-artifact-1",
  "contractName": "MSN_DAO",
  "sourceName": "assets/koa_static/contracts/v2/MSN_DAO.sol",
  "abi": [
    {
      "inputs": [
        {
          "internalType": "address",
          "name": "_MSNcontractAddr",
          "type": "address"
        },
        {
          "internalType": "uint256",
          "name": "_voter_hold_secs",
          "type": "uint256"
        }
      ],
      "stateMutability": "nonpayable",
      "type": "constructor"
    },
    {
      "anonymous": false,
      "inputs": [
        {
          "indexed": false,
          "internalType": "address",
          "name": "trigger_user_addr",
          "type": "address"
        },
        {
          "indexed": false,
          "internalType": "address",
          "name": "keeper_addr",
          "type": "address"
        },
        {
          "indexed": false,
          "internalType": "string",
          "name": "keeper_name",
          "type": "string"
        },
        {
          "indexed": false,
          "internalType": "uint256",
          "name": "blocktime",
          "type": "uint256"
        }
      ],
      "name": "add_keeper_EVENT",
      "type": "event"
    },
    {
      "anonymous": false,
      "inputs": [
        {
          "indexed": false,
          "internalType": "address",
          "name": "trigger_user_addr",
          "type": "address"
        },
        {
          "indexed": false,
          "internalType": "address",
          "name": "oldOwner",
          "type": "address"
        },
        {
          "indexed": false,
          "internalType": "address",
          "name": "newOwner",
          "type": "address"
        },
        {
          "indexed": false,
          "internalType": "uint256",
          "name": "blocktime",
          "type": "uint256"
        }
      ],
      "name": "change_DAOOwner_EVENT",
      "type": "event"
    },
    {
      "anonymous": false,
      "inputs": [
        {
          "indexed": false,
          "internalType": "address",
          "name": "trigger_user_addr",
          "type": "address"
        },
        {
          "indexed": false,
          "internalType": "uint256",
          "name": "amount",
          "type": "uint256"
        },
        {
          "indexed": false,
          "internalType": "uint256",
          "name": "blocktime",
          "type": "uint256"
        }
      ],
      "name": "deposit_all_EVENT",
      "type": "event"
    },
    {
      "anonymous": false,
      "inputs": [
        {
          "indexed": false,
          "internalType": "address",
          "name": "trigger_user_addr",
          "type": "address"
        },
        {
          "indexed": false,
          "internalType": "address",
          "name": "keeper_addr",
          "type": "address"
        },
        {
          "indexed": false,
          "internalType": "string",
          "name": "keeper_name",
          "type": "string"
        },
        {
          "indexed": false,
          "internalType": "uint256",
          "name": "blocktime",
          "type": "uint256"
        }
      ],
      "name": "remove_keeper_EVENT",
      "type": "event"
    },
    {
      "anonymous": false,
      "inputs": [
        {
          "indexed": false,
          "internalType": "address",
          "name": "trigger_user_addr",
          "type": "address"
        },
        {
          "indexed": false,
          "internalType": "uint16",
          "name": "_pid",
          "type": "uint16"
        },
        {
          "indexed": false,
          "internalType": "uint256",
          "name": "blocktime",
          "type": "uint256"
        }
      ],
      "name": "remove_proposal_EVENT",
      "type": "event"
    },
    {
      "anonymous": false,
      "inputs": [
        {
          "indexed": false,
          "internalType": "address",
          "name": "trigger_user_addr",
          "type": "address"
        },
        {
          "indexed": false,
          "internalType": "uint16",
          "name": "_pid",
          "type": "uint16"
        },
        {
          "indexed": false,
          "internalType": "uint256",
          "name": "_startTime",
          "type": "uint256"
        },
        {
          "indexed": false,
          "internalType": "uint256",
          "name": "_endTime",
          "type": "uint256"
        },
        {
          "indexed": false,
          "internalType": "uint256",
          "name": "blocktime",
          "type": "uint256"
        }
      ],
      "name": "set_proposal_EVENT",
      "type": "event"
    },
    {
      "anonymous": false,
      "inputs": [
        {
          "indexed": false,
          "internalType": "address",
          "name": "trigger_user_addr",
          "type": "address"
        },
        {
          "indexed": false,
          "internalType": "uint16",
          "name": "_pid",
          "type": "uint16"
        },
        {
          "indexed": false,
          "internalType": "uint8",
          "name": "_option",
          "type": "uint8"
        },
        {
          "indexed": false,
          "internalType": "uint256",
          "name": "_all_votes",
          "type": "uint256"
        },
        {
          "indexed": false,
          "internalType": "uint256",
          "name": "blocktime",
          "type": "uint256"
        }
      ],
      "name": "vote_EVENT",
      "type": "event"
    },
    {
      "anonymous": false,
      "inputs": [
        {
          "indexed": false,
          "internalType": "address",
          "name": "trigger_user_addr",
          "type": "address"
        },
        {
          "indexed": false,
          "internalType": "uint256",
          "name": "amount",
          "type": "uint256"
        },
        {
          "indexed": false,
          "internalType": "uint256",
          "name": "blocktime",
          "type": "uint256"
        }
      ],
      "name": "voter_withdraw_all_EVENT",
      "type": "event"
    },
    {
      "anonymous": false,
      "inputs": [
        {
          "indexed": false,
          "internalType": "address",
          "name": "trigger_user_addr",
          "type": "address"
        },
        {
          "indexed": false,
          "internalType": "address",
          "name": "_from",
          "type": "address"
        },
        {
          "indexed": false,
          "internalType": "uint256",
          "name": "amount",
          "type": "uint256"
        },
        {
          "indexed": false,
          "internalType": "uint256",
          "name": "blocktime",
          "type": "uint256"
        }
      ],
      "name": "withdraw_contract_EVENT",
      "type": "event"
    },
    {
      "stateMutability": "payable",
      "type": "fallback"
    },
    {
      "inputs": [
        {
          "internalType": "address",
          "name": "keeper_addr",
          "type": "address"
        },
        {
          "internalType": "string",
          "name": "keeper_name",
          "type": "string"
        }
      ],
      "name": "add_keeper",
      "outputs": [],
      "stateMutability": "nonpayable",
      "type": "function"
    },
    {
      "inputs": [
        {
          "internalType": "address",
          "name": "_newOwner",
          "type": "address"
        }
      ],
      "name": "change_DAOOwner",
      "outputs": [],
      "stateMutability": "nonpayable",
      "type": "function"
    },
    {
      "inputs": [],
      "name": "deposit_all",
      "outputs": [],
      "stateMutability": "nonpayable",
      "type": "function"
    },
    {
      "inputs": [],
      "name": "get_DAOOwner",
      "outputs": [
        {
          "internalType": "address",
          "name": "",
          "type": "address"
        }
      ],
      "stateMutability": "view",
      "type": "function"
    },
    {
      "inputs": [],
      "name": "get_ProposalFolderUrl",
      "outputs": [
        {
          "internalType": "string",
          "name": "",
          "type": "string"
        }
      ],
      "stateMutability": "view",
      "type": "function"
    },
    {
      "inputs": [],
      "name": "get_blocktime",
      "outputs": [
        {
          "internalType": "uint256",
          "name": "",
          "type": "uint256"
        }
      ],
      "stateMutability": "view",
      "type": "function"
    },
    {
      "inputs": [
        {
          "internalType": "address",
          "name": "addr",
          "type": "address"
        }
      ],
      "name": "get_deposit",
      "outputs": [
        {
          "internalType": "uint256",
          "name": "",
          "type": "uint256"
        }
      ],
      "stateMutability": "view",
      "type": "function"
    },
    {
      "inputs": [
        {
          "internalType": "address",
          "name": "addr",
          "type": "address"
        }
      ],
      "name": "get_deposit_lasttime",
      "outputs": [
        {
          "internalType": "uint256",
          "name": "",
          "type": "uint256"
        }
      ],
      "stateMutability": "view",
      "type": "function"
    },
    {
      "inputs": [
        {
          "internalType": "address",
          "name": "keeper_addr",
          "type": "address"
        }
      ],
      "name": "get_keeper",
      "outputs": [
        {
          "internalType": "string",
          "name": "",
          "type": "string"
        }
      ],
      "stateMutability": "view",
      "type": "function"
    },
    {
      "inputs": [
        {
          "internalType": "uint16",
          "name": "_pid",
          "type": "uint16"
        }
      ],
      "name": "get_proposal",
      "outputs": [
        {
          "internalType": "uint16",
          "name": "",
          "type": "uint16"
        },
        {
          "internalType": "address",
          "name": "",
          "type": "address"
        },
        {
          "internalType": "uint256",
          "name": "",
          "type": "uint256"
        },
        {
          "internalType": "uint256",
          "name": "",
          "type": "uint256"
        }
      ],
      "stateMutability": "view",
      "type": "function"
    },
    {
      "inputs": [
        {
          "internalType": "uint16",
          "name": "_pid",
          "type": "uint16"
        },
        {
          "internalType": "uint8",
          "name": "_option",
          "type": "uint8"
        }
      ],
      "name": "get_proposal_votes",
      "outputs": [
        {
          "internalType": "uint256",
          "name": "",
          "type": "uint256"
        }
      ],
      "stateMutability": "view",
      "type": "function"
    },
    {
      "inputs": [],
      "name": "get_voter_hold_secs",
      "outputs": [
        {
          "internalType": "uint256",
          "name": "",
          "type": "uint256"
        }
      ],
      "stateMutability": "view",
      "type": "function"
    },
    {
      "inputs": [
        {
          "internalType": "address",
          "name": "keeper_addr",
          "type": "address"
        }
      ],
      "name": "remove_keeper",
      "outputs": [],
      "stateMutability": "nonpayable",
      "type": "function"
    },
    {
      "inputs": [
        {
          "internalType": "uint16",
          "name": "_pid",
          "type": "uint16"
        }
      ],
      "name": "remove_proposal",
      "outputs": [],
      "stateMutability": "nonpayable",
      "type": "function"
    },
    {
      "inputs": [
        {
          "internalType": "string",
          "name": "_url",
          "type": "string"
        }
      ],
      "name": "set_ProposalFolderUrl",
      "outputs": [],
      "stateMutability": "nonpayable",
      "type": "function"
    },
    {
      "inputs": [
        {
          "internalType": "uint16",
          "name": "_pid",
          "type": "uint16"
        },
        {
          "internalType": "uint256",
          "name": "_startTime",
          "type": "uint256"
        },
        {
          "internalType": "uint256",
          "name": "_endTime",
          "type": "uint256"
        }
      ],
      "name": "set_proposal",
      "outputs": [],
      "stateMutability": "nonpayable",
      "type": "function"
    },
    {
      "inputs": [
        {
          "internalType": "uint256",
          "name": "secs",
          "type": "uint256"
        }
      ],
      "name": "set_voter_hold_secs",
      "outputs": [],
      "stateMutability": "nonpayable",
      "type": "function"
    },
    {
      "inputs": [
        {
          "internalType": "uint16",
          "name": "_pid",
          "type": "uint16"
        },
        {
          "internalType": "uint8",
          "name": "_option",
          "type": "uint8"
        }
      ],
      "name": "vote",
      "outputs": [],
      "stateMutability": "nonpayable",
      "type": "function"
    },
    {
      "inputs": [],
      "name": "voter_withdraw_all",
      "outputs": [],
      "stateMutability": "nonpayable",
      "type": "function"
    },
    {
      "inputs": [],
      "name": "withdraw_contract",
      "outputs": [],
      "stateMutability": "nonpayable",
      "type": "function"
    },
    {
      "inputs": [],
      "name": "withdraw_eth",
      "outputs": [],
      "stateMutability": "nonpayable",
      "type": "function"
    },
    {
      "stateMutability": "payable",
      "type": "receive"
    }
  ],
  "bytecode": "0x60806040523480156200001157600080fd5b50604051620039be380380620039be833981810160405281019062000037919062000231565b33600560006101000a81548173ffffffffffffffffffffffffffffffffffffffff021916908373ffffffffffffffffffffffffffffffffffffffff16021790555081600660006101000a81548173ffffffffffffffffffffffffffffffffffffffff021916908373ffffffffffffffffffffffffffffffffffffffff1602179055506040518060400160405280600881526020017f44414f4f776e6572000000000000000000000000000000000000000000000000815250600760003373ffffffffffffffffffffffffffffffffffffffff1673ffffffffffffffffffffffffffffffffffffffff16815260200190815260200160002090805190602001906200014392919062000153565b5080600a81905550505062000349565b8280546200016190620002b0565b90600052602060002090601f016020900481019282620001855760008555620001d1565b82601f10620001a057805160ff1916838001178555620001d1565b82800160010185558215620001d1579182015b82811115620001d0578251825591602001919060010190620001b3565b5b509050620001e09190620001e4565b5090565b5b80821115620001ff576000816000905550600101620001e5565b5090565b600081519050620002148162000315565b92915050565b6000815190506200022b816200032f565b92915050565b600080604083850312156200024557600080fd5b6000620002558582860162000203565b925050602062000268858286016200021a565b9150509250929050565b60006200027f8262000286565b9050919050565b600073ffffffffffffffffffffffffffffffffffffffff82169050919050565b6000819050919050565b60006002820490506001821680620002c957607f821691505b60208210811415620002e057620002df620002e6565b5b50919050565b7f4e487b7100000000000000000000000000000000000000000000000000000000600052602260045260246000fd5b620003208162000272565b81146200032c57600080fd5b50565b6200033a81620002a6565b81146200034657600080fd5b50565b61366580620003596000396000f3fe60806040526004361061012e5760003560e01c8063ba2f180b116100ab578063d70780cc1161006f578063d70780cc146103dd578063d87281271461041a578063d92825e814610443578063dc9c0f201461046e578063f230398d14610497578063f4607feb146104ae5761014d565b8063ba2f180b1461031e578063bb2bafad1461035b578063bc6715ad14610372578063d537b0601461039d578063d6f8560d146103c65761014d565b806392ec504c116100f257806392ec504c1461023b578063947bdce214610264578063ab4846611461028d578063afa3a532146102b6578063b62854a1146102e15761014d565b8063267044e5146101675780633311b31f146101a757806333f1cddf146101d05780633758d563146101f95780636144ce17146102245761014d565b3661014d57346000808282546101449190613420565b92505081905550005b3460008082825461015e9190613420565b92505081905550005b34801561017357600080fd5b5061018e600480360381019061018991906126e6565b6104eb565b60405161019e94939291906133a4565b60405180910390f35b3480156101b357600080fd5b506101ce60048036038101906101c9919061279a565b6105f2565b005b3480156101dc57600080fd5b506101f760048036038101906101f2919061275e565b61068c565b005b34801561020557600080fd5b5061020e610aa2565b60405161021b91906133e9565b60405180910390f35b34801561023057600080fd5b50610239610aaa565b005b34801561024757600080fd5b50610262600480360381019061025d9190612620565b610d3d565b005b34801561027057600080fd5b5061028b600480360381019061028691906126a1565b610ea7565b005b34801561029957600080fd5b506102b460048036038101906102af91906125f7565b610f4d565b005b3480156102c257600080fd5b506102cb611255565b6040516102d89190613102565b60405180910390f35b3480156102ed57600080fd5b506103086004803603810190610303919061275e565b6112e7565b60405161031591906133e9565b60405180910390f35b34801561032a57600080fd5b50610345600480360381019061034091906125f7565b611397565b6040516103529190613102565b60405180910390f35b34801561036757600080fd5b506103706114f7565b005b34801561037e57600080fd5b50610387611769565b60405161039491906133e9565b60405180910390f35b3480156103a957600080fd5b506103c460048036038101906103bf91906126e6565b611773565b005b3480156103d257600080fd5b506103db611a22565b005b3480156103e957600080fd5b5061040460048036038101906103ff91906125f7565b611b02565b60405161041191906133e9565b60405180910390f35b34801561042657600080fd5b50610441600480360381019061043c91906125f7565b611b4b565b005b34801561044f57600080fd5b50610458611de9565b6040516104659190612e26565b60405180910390f35b34801561047a57600080fd5b506104956004803603810190610490919061270f565b611e13565b005b3480156104a357600080fd5b506104ac6120b4565b005b3480156104ba57600080fd5b506104d560048036038101906104d091906125f7565b61237d565b6040516104e291906133e9565b60405180910390f35b6000806000806000600160008761ffff1661ffff16815260200190815260200160002060000160009054906101000a900461ffff1661ffff161415610565576040517f08c379a000000000000000000000000000000000000000000000000000000000815260040161055c906132c4565b60405180910390fd5b84600160008761ffff1661ffff16815260200190815260200160002060000160029054906101000a900473ffffffffffffffffffffffffffffffffffffffff16600160008861ffff1661ffff16815260200190815260200160002060010154600160008961ffff1661ffff1681526020019081526020016000206002015493509350935093509193509193565b600560009054906101000a900473ffffffffffffffffffffffffffffffffffffffff1673ffffffffffffffffffffffffffffffffffffffff163373ffffffffffffffffffffffffffffffffffffffff1614610682576040517f08c379a000000000000000000000000000000000000000000000000000000000815260040161067990613304565b60405180910390fd5b80600a8190555050565b60008261ffff16116106d3576040517f08c379a00000000000000000000000000000000000000000000000000000000081526004016106ca90613184565b60405180910390fd5b6000600160008461ffff1661ffff16815260200190815260200160002060000160009054906101000a900461ffff1661ffff161415610747576040517f08c379a000000000000000000000000000000000000000000000000000000000815260040161073e906132c4565b60405180910390fd5b42600160008461ffff1661ffff16815260200190815260200160002060010154106107a7576040517f08c379a000000000000000000000000000000000000000000000000000000000815260040161079e90613224565b60405180910390fd5b42600160008461ffff1661ffff1681526020019081526020016000206002015411610807576040517f08c379a00000000000000000000000000000000000000000000000000000000081526004016107fe90613244565b60405180910390fd5b6000600860003373ffffffffffffffffffffffffffffffffffffffff1673ffffffffffffffffffffffffffffffffffffffff1681526020019081526020016000205411610889576040517f08c379a000000000000000000000000000000000000000000000000000000000815260040161088090613364565b60405180910390fd5b6000600360003373ffffffffffffffffffffffffffffffffffffffff1673ffffffffffffffffffffffffffffffffffffffff16815260200190815260200160002060008461ffff1661ffff16815260200190815260200160002060009054906101000a900460ff1660ff1614610934576040517f08c379a000000000000000000000000000000000000000000000000000000000815260040161092b906131e4565b60405180910390fd5b80600360003373ffffffffffffffffffffffffffffffffffffffff1673ffffffffffffffffffffffffffffffffffffffff16815260200190815260200160002060008461ffff1661ffff16815260200190815260200160002060006101000a81548160ff021916908360ff160217905550600860003373ffffffffffffffffffffffffffffffffffffffff1673ffffffffffffffffffffffffffffffffffffffff16815260200190815260200160002054600260008461ffff1661ffff16815260200190815260200160002060008360ff1660ff1681526020019081526020016000206000828254610a269190613420565b925050819055507f56dd49701ac3a510513031d50af69a84eb8028130dab8bcfbda8a58c426c603a338383600260008761ffff1661ffff16815260200190815260200160002060008660ff1660ff1681526020019081526020016000205442604051610a9695949392919061304f565b60405180910390a15050565b600042905090565b42600a54600960003373ffffffffffffffffffffffffffffffffffffffff1673ffffffffffffffffffffffffffffffffffffffff16815260200190815260200160002054610af89190613420565b10610b38576040517f08c379a0000000000000000000000000000000000000000000000000000000008152600401610b2f90613284565b60405180910390fd5b6000600860003373ffffffffffffffffffffffffffffffffffffffff1673ffffffffffffffffffffffffffffffffffffffff16815260200190815260200160002054905060008111610bbf576040517f08c379a0000000000000000000000000000000000000000000000000000000008152600401610bb690613164565b60405180910390fd5b6000600860003373ffffffffffffffffffffffffffffffffffffffff1673ffffffffffffffffffffffffffffffffffffffff168152602001908152602001600020819055506000600660009054906101000a900473ffffffffffffffffffffffffffffffffffffffff1673ffffffffffffffffffffffffffffffffffffffff1663a9059cbb33846040518363ffffffff1660e01b8152600401610c639291906130a2565b602060405180830381600087803b158015610c7d57600080fd5b505af1158015610c91573d6000803e3d6000fd5b505050506040513d601f19601f82011682018060405250810190610cb59190612678565b90506001151581151514610cfe576040517f08c379a0000000000000000000000000000000000000000000000000000000008152600401610cf590613324565b60405180910390fd5b7f4727ce1f93182e519fe4d69d0b7d865c88794a2d22e1420fe7ac584402120dbc338342604051610d31939291906130cb565b60405180910390a15050565b600560009054906101000a900473ffffffffffffffffffffffffffffffffffffffff1673ffffffffffffffffffffffffffffffffffffffff163373ffffffffffffffffffffffffffffffffffffffff1614610dcd576040517f08c379a0000000000000000000000000000000000000000000000000000000008152600401610dc490613304565b60405180910390fd5b6000828290501415610e14576040517f08c379a0000000000000000000000000000000000000000000000000000000008152600401610e0b90613264565b60405180910390fd5b8181600760008673ffffffffffffffffffffffffffffffffffffffff1673ffffffffffffffffffffffffffffffffffffffff1681526020019081526020016000209190610e629291906123c6565b507f6559ef5d957763f6fec38393527502e64a4e1c2836b836a0fe84e0f12b3bcafc3384848442604051610e9a959493929190612eaf565b60405180910390a1505050565b600560009054906101000a900473ffffffffffffffffffffffffffffffffffffffff1673ffffffffffffffffffffffffffffffffffffffff163373ffffffffffffffffffffffffffffffffffffffff1614610f37576040517f08c379a0000000000000000000000000000000000000000000000000000000008152600401610f2e90613304565b60405180910390fd5b818160049190610f489291906123c6565b505050565b600560009054906101000a900473ffffffffffffffffffffffffffffffffffffffff1673ffffffffffffffffffffffffffffffffffffffff163373ffffffffffffffffffffffffffffffffffffffff1614610fdd576040517f08c379a0000000000000000000000000000000000000000000000000000000008152600401610fd490613304565b60405180910390fd5b6000600760008373ffffffffffffffffffffffffffffffffffffffff1673ffffffffffffffffffffffffffffffffffffffff16815260200190815260200160002080546110299061351b565b9050141561106c576040517f08c379a000000000000000000000000000000000000000000000000000000000815260040161106390613384565b60405180910390fd5b600560009054906101000a900473ffffffffffffffffffffffffffffffffffffffff1673ffffffffffffffffffffffffffffffffffffffff168173ffffffffffffffffffffffffffffffffffffffff1614156110fd576040517f08c379a00000000000000000000000000000000000000000000000000000000081526004016110f4906132a4565b60405180910390fd5b6000600760008373ffffffffffffffffffffffffffffffffffffffff1673ffffffffffffffffffffffffffffffffffffffff16815260200190815260200160002080546111499061351b565b80601f01602080910402602001604051908101604052809291908181526020018280546111759061351b565b80156111c25780601f10611197576101008083540402835291602001916111c2565b820191906000526020600020905b8154815290600101906020018083116111a557829003601f168201915b50505050509050600760008373ffffffffffffffffffffffffffffffffffffffff1673ffffffffffffffffffffffffffffffffffffffff1681526020019081526020016000206000611214919061244c565b7f24d20fc7c5dfe41d9e7326b6dd6ffbc5ab97185b6d857ed2d6a15295806a68e2338383426040516112499493929190612efd565b60405180910390a15050565b6060600480546112649061351b565b80601f01602080910402602001604051908101604052809291908181526020018280546112909061351b565b80156112dd5780601f106112b2576101008083540402835291602001916112dd565b820191906000526020600020905b8154815290600101906020018083116112c057829003601f168201915b5050505050905090565b600080600160008561ffff1661ffff16815260200190815260200160002060000160009054906101000a900461ffff1661ffff16141561135c576040517f08c379a0000000000000000000000000000000000000000000000000000000008152600401611353906132c4565b60405180910390fd5b600260008461ffff1661ffff16815260200190815260200160002060008360ff1660ff16815260200190815260200160002054905092915050565b60606000600760008473ffffffffffffffffffffffffffffffffffffffff1673ffffffffffffffffffffffffffffffffffffffff16815260200190815260200160002080546113e59061351b565b90501415611428576040517f08c379a000000000000000000000000000000000000000000000000000000000815260040161141f90613384565b60405180910390fd5b600760008373ffffffffffffffffffffffffffffffffffffffff1673ffffffffffffffffffffffffffffffffffffffff16815260200190815260200160002080546114729061351b565b80601f016020809104026020016040519081016040528092919081815260200182805461149e9061351b565b80156114eb5780601f106114c0576101008083540402835291602001916114eb565b820191906000526020600020905b8154815290600101906020018083116114ce57829003601f168201915b50505050509050919050565b600560009054906101000a900473ffffffffffffffffffffffffffffffffffffffff1673ffffffffffffffffffffffffffffffffffffffff163373ffffffffffffffffffffffffffffffffffffffff1614611587576040517f08c379a000000000000000000000000000000000000000000000000000000000815260040161157e90613304565b60405180910390fd5b6000600660009054906101000a900473ffffffffffffffffffffffffffffffffffffffff1673ffffffffffffffffffffffffffffffffffffffff166370a08231306040518263ffffffff1660e01b81526004016115e49190612e26565b60206040518083038186803b1580156115fc57600080fd5b505afa158015611610573d6000803e3d6000fd5b505050506040513d601f19601f8201168201806040525081019061163491906127c3565b905060008111611679576040517f08c379a000000000000000000000000000000000000000000000000000000000815260040161167090613204565b60405180910390fd5b600660009054906101000a900473ffffffffffffffffffffffffffffffffffffffff1673ffffffffffffffffffffffffffffffffffffffff1663a9059cbb33836040518363ffffffff1660e01b81526004016116d69291906130a2565b602060405180830381600087803b1580156116f057600080fd5b505af1158015611704573d6000803e3d6000fd5b505050506040513d601f19601f820116820180604052508101906117289190612678565b507f5732ed4206f25b13036055672fde80082b4bae54436e1da42b0016950c134bf23330834260405161175e9493929190612f80565b60405180910390a150565b6000600a54905090565b6000600760003373ffffffffffffffffffffffffffffffffffffffff1673ffffffffffffffffffffffffffffffffffffffff16815260200190815260200160002080546117bf9061351b565b90501415611802576040517f08c379a00000000000000000000000000000000000000000000000000000000081526004016117f990613344565b60405180910390fd5b6000600160008361ffff1661ffff16815260200190815260200160002060000160009054906101000a900461ffff1661ffff161415611876576040517f08c379a000000000000000000000000000000000000000000000000000000000815260040161186d906132c4565b60405180910390fd5b3373ffffffffffffffffffffffffffffffffffffffff16600160008361ffff1661ffff16815260200190815260200160002060000160029054906101000a900473ffffffffffffffffffffffffffffffffffffffff1673ffffffffffffffffffffffffffffffffffffffff16148061193b5750600560009054906101000a900473ffffffffffffffffffffffffffffffffffffffff1673ffffffffffffffffffffffffffffffffffffffff163373ffffffffffffffffffffffffffffffffffffffff16145b61197a576040517f08c379a0000000000000000000000000000000000000000000000000000000008152600401611971906131c4565b60405180910390fd5b600160008261ffff1661ffff168152602001908152602001600020600080820160006101000a81549061ffff02191690556000820160026101000a81549073ffffffffffffffffffffffffffffffffffffffff02191690556001820160009055600282016000905550507f1d62558e2165711174b30b107eda966b46d3d626cf3bf3dfe0dbfa078e7a5785338242604051611a1793929190612fc5565b60405180910390a150565b600560009054906101000a900473ffffffffffffffffffffffffffffffffffffffff1673ffffffffffffffffffffffffffffffffffffffff163373ffffffffffffffffffffffffffffffffffffffff1614611ab2576040517f08c379a0000000000000000000000000000000000000000000000000000000008152600401611aa990613304565b60405180910390fd5b3373ffffffffffffffffffffffffffffffffffffffff166108fc479081150290604051600060405180830381858888f19350505050158015611af8573d6000803e3d6000fd5b5060008081905550565b6000600960008373ffffffffffffffffffffffffffffffffffffffff1673ffffffffffffffffffffffffffffffffffffffff168152602001908152602001600020549050919050565b600560009054906101000a900473ffffffffffffffffffffffffffffffffffffffff1673ffffffffffffffffffffffffffffffffffffffff163373ffffffffffffffffffffffffffffffffffffffff1614611bdb576040517f08c379a0000000000000000000000000000000000000000000000000000000008152600401611bd290613304565b60405180910390fd5b600560009054906101000a900473ffffffffffffffffffffffffffffffffffffffff1673ffffffffffffffffffffffffffffffffffffffff168173ffffffffffffffffffffffffffffffffffffffff161415611c6c576040517f08c379a0000000000000000000000000000000000000000000000000000000008152600401611c63906131a4565b60405180910390fd5b6000600560009054906101000a900473ffffffffffffffffffffffffffffffffffffffff169050600760008273ffffffffffffffffffffffffffffffffffffffff1673ffffffffffffffffffffffffffffffffffffffff1681526020019081526020016000206000611cde919061244c565b81600560006101000a81548173ffffffffffffffffffffffffffffffffffffffff021916908373ffffffffffffffffffffffffffffffffffffffff1602179055506040518060400160405280600881526020017f44414f4f776e6572000000000000000000000000000000000000000000000000815250600760008473ffffffffffffffffffffffffffffffffffffffff1673ffffffffffffffffffffffffffffffffffffffff1681526020019081526020016000209080519060200190611da792919061248c565b507feb279ab42c1ed388ddf7d09dc9e6ce960cd86c5d3c7420466fe4a2f16fde2ecc33828442604051611ddd9493929190612e6a565b60405180910390a15050565b6000600560009054906101000a900473ffffffffffffffffffffffffffffffffffffffff16905090565b6000600760003373ffffffffffffffffffffffffffffffffffffffff1673ffffffffffffffffffffffffffffffffffffffff1681526020019081526020016000208054611e5f9061351b565b90501415611ea2576040517f08c379a0000000000000000000000000000000000000000000000000000000008152600401611e9990613344565b60405180910390fd5b6000600160008561ffff1661ffff16815260200190815260200160002060000160009054906101000a900461ffff1661ffff1614611f15576040517f08c379a0000000000000000000000000000000000000000000000000000000008152600401611f0c90613124565b60405180910390fd5b428111611f57576040517f08c379a0000000000000000000000000000000000000000000000000000000008152600401611f4e90613144565b60405180910390fd5b808210611f99576040517f08c379a0000000000000000000000000000000000000000000000000000000008152600401611f90906132e4565b60405180910390fd5b60405180608001604052808461ffff1681526020013373ffffffffffffffffffffffffffffffffffffffff16815260200183815260200182815250600160008561ffff1661ffff16815260200190815260200160002060008201518160000160006101000a81548161ffff021916908361ffff16021790555060208201518160000160026101000a81548173ffffffffffffffffffffffffffffffffffffffff021916908373ffffffffffffffffffffffffffffffffffffffff16021790555060408201518160010155606082015181600201559050507f7286c7f8ecf76757822e93893b27afcd33a9c8756a6cf184789aec09d59f5e1533848484426040516120a7959493929190612ffc565b60405180910390a1505050565b6000600660009054906101000a900473ffffffffffffffffffffffffffffffffffffffff1673ffffffffffffffffffffffffffffffffffffffff1663dd62ed3e33306040518363ffffffff1660e01b8152600401612113929190612e41565b60206040518083038186803b15801561212b57600080fd5b505afa15801561213f573d6000803e3d6000fd5b505050506040513d601f19601f8201168201806040525081019061216391906127c3565b9050600081116121a8576040517f08c379a000000000000000000000000000000000000000000000000000000000815260040161219f90613364565b60405180910390fd5b6000600660009054906101000a900473ffffffffffffffffffffffffffffffffffffffff1673ffffffffffffffffffffffffffffffffffffffff166323b872dd3330856040518463ffffffff1660e01b815260040161220993929190612f49565b602060405180830381600087803b15801561222357600080fd5b505af1158015612237573d6000803e3d6000fd5b505050506040513d601f19601f8201168201806040525081019061225b9190612678565b905060011515811515146122a4576040517f08c379a000000000000000000000000000000000000000000000000000000000815260040161229b90613324565b60405180910390fd5b81600860003373ffffffffffffffffffffffffffffffffffffffff1673ffffffffffffffffffffffffffffffffffffffff16815260200190815260200160002060008282546122f39190613420565b9250508190555042600960003373ffffffffffffffffffffffffffffffffffffffff1673ffffffffffffffffffffffffffffffffffffffff168152602001908152602001600020819055507fb34cc4107ee5e297b3193eb95cd52a575cc6ebbe019c7c59caa440b649150d5b338342604051612371939291906130cb565b60405180910390a15050565b6000600860008373ffffffffffffffffffffffffffffffffffffffff1673ffffffffffffffffffffffffffffffffffffffff168152602001908152602001600020549050919050565b8280546123d29061351b565b90600052602060002090601f0160209004810192826123f4576000855561243b565b82601f1061240d57803560ff191683800117855561243b565b8280016001018555821561243b579182015b8281111561243a57823582559160200191906001019061241f565b5b5090506124489190612512565b5090565b5080546124589061351b565b6000825580601f1061246a5750612489565b601f0160209004906000526020600020908101906124889190612512565b5b50565b8280546124989061351b565b90600052602060002090601f0160209004810192826124ba5760008555612501565b82601f106124d357805160ff1916838001178555612501565b82800160010185558215612501579182015b828111156125005782518255916020019190600101906124e5565b5b50905061250e9190612512565b5090565b5b8082111561252b576000816000905550600101612513565b5090565b60008135905061253e816135bc565b92915050565b600081519050612553816135d3565b92915050565b60008083601f84011261256b57600080fd5b8235905067ffffffffffffffff81111561258457600080fd5b60208301915083600182028301111561259c57600080fd5b9250929050565b6000813590506125b2816135ea565b92915050565b6000813590506125c781613601565b92915050565b6000815190506125dc81613601565b92915050565b6000813590506125f181613618565b92915050565b60006020828403121561260957600080fd5b60006126178482850161252f565b91505092915050565b60008060006040848603121561263557600080fd5b60006126438682870161252f565b935050602084013567ffffffffffffffff81111561266057600080fd5b61266c86828701612559565b92509250509250925092565b60006020828403121561268a57600080fd5b600061269884828501612544565b91505092915050565b600080602083850312156126b457600080fd5b600083013567ffffffffffffffff8111156126ce57600080fd5b6126da85828601612559565b92509250509250929050565b6000602082840312156126f857600080fd5b6000612706848285016125a3565b91505092915050565b60008060006060848603121561272457600080fd5b6000612732868287016125a3565b9350506020612743868287016125b8565b9250506040612754868287016125b8565b9150509250925092565b6000806040838503121561277157600080fd5b600061277f858286016125a3565b9250506020612790858286016125e2565b9150509250929050565b6000602082840312156127ac57600080fd5b60006127ba848285016125b8565b91505092915050565b6000602082840312156127d557600080fd5b60006127e3848285016125cd565b91505092915050565b6127f581613476565b82525050565b6000612807838561340f565b93506128148385846134d9565b61281d836135ab565b840190509392505050565b600061283382613404565b61283d818561340f565b935061284d8185602086016134e8565b612856816135ab565b840191505092915050565b600061286e601b8361340f565b91507f5468652070726f706f73616c20616c72656164792065786973747300000000006000830152602082019050919050565b60006128ae60258361340f565b91507f456e6454696d65206d75737420626520626967676572207468616e20626c6f6360008301527f6b74696d650000000000000000000000000000000000000000000000000000006020830152604082019050919050565b6000612914600b8361340f565b91507f204e6f206465706f7369740000000000000000000000000000000000000000006000830152602082019050919050565b600061295460178361340f565b91507f5069642073686f756c642073746172742066726f6d20310000000000000000006000830152602082019050919050565b6000612994602c8361340f565b91507f546865206e6577206f776e6572206d75737420626520646966666572656e742060008301527f66726f6d20746865206f6c6400000000000000000000000000000000000000006020830152604082019050919050565b60006129fa60248361340f565b91507f4e6f207065726d697373696f6e20746f2072656d6f7665207468652070726f7060008301527f6f73616c000000000000000000000000000000000000000000000000000000006020830152604082019050919050565b6000612a60600d8361340f565b91507f566f74656420616c7265616479000000000000000000000000000000000000006000830152602082019050919050565b6000612aa0600a8361340f565b91507f4e6f2042616c616e6365000000000000000000000000000000000000000000006000830152602082019050919050565b6000612ae0601e8361340f565b91507f5468652070726f706f73616c20646f65736e27742073746172742079657400006000830152602082019050919050565b6000612b2060208361340f565b91507f5468652070726f706f73616c20616c726561647920656e647320766f74696e676000830152602082019050919050565b6000612b6060078361340f565b91507f4e6f206e616d65000000000000000000000000000000000000000000000000006000830152602082019050919050565b6000612ba0600f8361340f565b91507f4e6f7420656e6f7567682074696d6500000000000000000000000000000000006000830152602082019050919050565b6000612be060178361340f565b91507f43616e206e6f742064656c6574652044414f4f776e65720000000000000000006000830152602082019050919050565b6000612c20601a8361340f565b91507f5468652070726f706f73616c20646f65736e27742065786973740000000000006000830152602082019050919050565b6000612c6060268361340f565b91507f537461727454696d65206d75737420626520736d616c6c6572207468616e206560008301527f6e6454696d6500000000000000000000000000000000000000000000000000006020830152604082019050919050565b6000612cc6600d8361340f565b91507f4f6e6c792044414f4f776e6572000000000000000000000000000000000000006000830152602082019050919050565b6000612d06600e8361340f565b91507f7472616e73666572206572726f720000000000000000000000000000000000006000830152602082019050919050565b6000612d4660108361340f565b91507f4e6f20737563682061204b6565706572000000000000000000000000000000006000830152602082019050919050565b6000612d86600a8361340f565b91507f4e6f206465706f736974000000000000000000000000000000000000000000006000830152602082019050919050565b6000612dc660108361340f565b91507f4e6f20737563682061206b6565706572000000000000000000000000000000006000830152602082019050919050565b612e0281613494565b82525050565b612e11816134c2565b82525050565b612e20816134cc565b82525050565b6000602082019050612e3b60008301846127ec565b92915050565b6000604082019050612e5660008301856127ec565b612e6360208301846127ec565b9392505050565b6000608082019050612e7f60008301876127ec565b612e8c60208301866127ec565b612e9960408301856127ec565b612ea66060830184612e08565b95945050505050565b6000608082019050612ec460008301886127ec565b612ed160208301876127ec565b8181036040830152612ee48185876127fb565b9050612ef36060830184612e08565b9695505050505050565b6000608082019050612f1260008301876127ec565b612f1f60208301866127ec565b8181036040830152612f318185612828565b9050612f406060830184612e08565b95945050505050565b6000606082019050612f5e60008301866127ec565b612f6b60208301856127ec565b612f786040830184612e08565b949350505050565b6000608082019050612f9560008301876127ec565b612fa260208301866127ec565b612faf6040830185612e08565b612fbc6060830184612e08565b95945050505050565b6000606082019050612fda60008301866127ec565b612fe76020830185612df9565b612ff46040830184612e08565b949350505050565b600060a08201905061301160008301886127ec565b61301e6020830187612df9565b61302b6040830186612e08565b6130386060830185612e08565b6130456080830184612e08565b9695505050505050565b600060a08201905061306460008301886127ec565b6130716020830187612df9565b61307e6040830186612e17565b61308b6060830185612e08565b6130986080830184612e08565b9695505050505050565b60006040820190506130b760008301856127ec565b6130c46020830184612e08565b9392505050565b60006060820190506130e060008301866127ec565b6130ed6020830185612e08565b6130fa6040830184612e08565b949350505050565b6000602082019050818103600083015261311c8184612828565b905092915050565b6000602082019050818103600083015261313d81612861565b9050919050565b6000602082019050818103600083015261315d816128a1565b9050919050565b6000602082019050818103600083015261317d81612907565b9050919050565b6000602082019050818103600083015261319d81612947565b9050919050565b600060208201905081810360008301526131bd81612987565b9050919050565b600060208201905081810360008301526131dd816129ed565b9050919050565b600060208201905081810360008301526131fd81612a53565b9050919050565b6000602082019050818103600083015261321d81612a93565b9050919050565b6000602082019050818103600083015261323d81612ad3565b9050919050565b6000602082019050818103600083015261325d81612b13565b9050919050565b6000602082019050818103600083015261327d81612b53565b9050919050565b6000602082019050818103600083015261329d81612b93565b9050919050565b600060208201905081810360008301526132bd81612bd3565b9050919050565b600060208201905081810360008301526132dd81612c13565b9050919050565b600060208201905081810360008301526132fd81612c53565b9050919050565b6000602082019050818103600083015261331d81612cb9565b9050919050565b6000602082019050818103600083015261333d81612cf9565b9050919050565b6000602082019050818103600083015261335d81612d39565b9050919050565b6000602082019050818103600083015261337d81612d79565b9050919050565b6000602082019050818103600083015261339d81612db9565b9050919050565b60006080820190506133b96000830187612df9565b6133c660208301866127ec565b6133d36040830185612e08565b6133e06060830184612e08565b95945050505050565b60006020820190506133fe6000830184612e08565b92915050565b600081519050919050565b600082825260208201905092915050565b600061342b826134c2565b9150613436836134c2565b9250827fffffffffffffffffffffffffffffffffffffffffffffffffffffffffffffffff0382111561346b5761346a61354d565b5b828201905092915050565b6000613481826134a2565b9050919050565b60008115159050919050565b600061ffff82169050919050565b600073ffffffffffffffffffffffffffffffffffffffff82169050919050565b6000819050919050565b600060ff82169050919050565b82818337600083830152505050565b60005b838110156135065780820151818401526020810190506134eb565b83811115613515576000848401525b50505050565b6000600282049050600182168061353357607f821691505b602082108114156135475761354661357c565b5b50919050565b7f4e487b7100000000000000000000000000000000000000000000000000000000600052601160045260246000fd5b7f4e487b7100000000000000000000000000000000000000000000000000000000600052602260045260246000fd5b6000601f19601f8301169050919050565b6135c581613476565b81146135d057600080fd5b50565b6135dc81613488565b81146135e757600080fd5b50565b6135f381613494565b81146135fe57600080fd5b50565b61360a816134c2565b811461361557600080fd5b50565b613621816134cc565b811461362c57600080fd5b5056fea26469706673582212201da0e5f2096c1dd7aedf9244e160a78f655c324dc6475b07a6a25e826a31ead764736f6c63430008000033",
  "linkReferences": {},
  "deployedLinkReferences": {}
}