{
  "_format": "hh-sol-artifact-1",
  "contractName": "MSN_MINING",
  "sourceName": "assets/koa_static/contracts/v2/MSN_MINING.sol",
  "abi": [
    {
      "inputs": [
        {
          "internalType": "address",
          "name": "_MSNcontractAddr",
          "type": "address"
        }
      ],
      "stateMutability": "nonpayable",
      "type": "constructor"
    },
    {
      "anonymous": false,
      "inputs": [
        {
          "indexed": false,
          "internalType": "address",
          "name": "trigger_user_addr",
          "type": "address"
        },
        {
          "indexed": false,
          "internalType": "address",
          "name": "keeper_addr",
          "type": "address"
        },
        {
          "indexed": false,
          "internalType": "string",
          "name": "keeper_name",
          "type": "string"
        },
        {
          "indexed": false,
          "internalType": "uint256",
          "name": "blocktime",
          "type": "uint256"
        }
      ],
      "name": "add_keeper_EVENT",
      "type": "event"
    },
    {
      "anonymous": false,
      "inputs": [
        {
          "indexed": false,
          "internalType": "address",
          "name": "trigger_user_addr",
          "type": "address"
        },
        {
          "indexed": false,
          "internalType": "bytes32",
          "name": "merkleRoot",
          "type": "bytes32"
        },
        {
          "indexed": false,
          "internalType": "uint256",
          "name": "amount",
          "type": "uint256"
        },
        {
          "indexed": false,
          "internalType": "uint256",
          "name": "blocktime",
          "type": "uint256"
        }
      ],
      "name": "add_merkle_root_EVENT",
      "type": "event"
    },
    {
      "anonymous": false,
      "inputs": [
        {
          "indexed": false,
          "internalType": "address",
          "name": "trigger_user_addr",
          "type": "address"
        },
        {
          "indexed": false,
          "internalType": "bytes32",
          "name": "merkleRoot",
          "type": "bytes32"
        },
        {
          "indexed": false,
          "internalType": "uint256",
          "name": "amount",
          "type": "uint256"
        },
        {
          "indexed": false,
          "internalType": "uint256",
          "name": "time",
          "type": "uint256"
        }
      ],
      "name": "claim_erc20_EVENT",
      "type": "event"
    },
    {
      "anonymous": false,
      "inputs": [
        {
          "indexed": false,
          "internalType": "address",
          "name": "trigger_user_addr",
          "type": "address"
        },
        {
          "indexed": false,
          "internalType": "address",
          "name": "keeper_addr",
          "type": "address"
        },
        {
          "indexed": false,
          "internalType": "string",
          "name": "keeper_name",
          "type": "string"
        },
        {
          "indexed": false,
          "internalType": "uint256",
          "name": "blocktime",
          "type": "uint256"
        }
      ],
      "name": "remove_keeper_EVENT",
      "type": "event"
    },
    {
      "anonymous": false,
      "inputs": [
        {
          "indexed": false,
          "internalType": "address",
          "name": "trigger_user_addr",
          "type": "address"
        },
        {
          "indexed": false,
          "internalType": "bytes32",
          "name": "merkleRoot",
          "type": "bytes32"
        },
        {
          "indexed": false,
          "internalType": "uint256",
          "name": "blocktime",
          "type": "uint256"
        }
      ],
      "name": "remove_merkle_root_EVENT",
      "type": "event"
    },
    {
      "anonymous": false,
      "inputs": [
        {
          "indexed": false,
          "internalType": "address",
          "name": "trigger_user_addr",
          "type": "address"
        },
        {
          "indexed": false,
          "internalType": "address",
          "name": "oldOwner",
          "type": "address"
        },
        {
          "indexed": false,
          "internalType": "address",
          "name": "newOwner",
          "type": "address"
        },
        {
          "indexed": false,
          "internalType": "uint256",
          "name": "blocktime",
          "type": "uint256"
        }
      ],
      "name": "set_MiningOwner_EVENT",
      "type": "event"
    },
    {
      "anonymous": false,
      "inputs": [
        {
          "indexed": false,
          "internalType": "address",
          "name": "trigger_user_addr",
          "type": "address"
        },
        {
          "indexed": false,
          "internalType": "address",
          "name": "_from",
          "type": "address"
        },
        {
          "indexed": false,
          "internalType": "address",
          "name": "_to",
          "type": "address"
        },
        {
          "indexed": false,
          "internalType": "uint256",
          "name": "amount",
          "type": "uint256"
        },
        {
          "indexed": false,
          "internalType": "uint256",
          "name": "blocktime",
          "type": "uint256"
        }
      ],
      "name": "withdraw_contract_EVENT",
      "type": "event"
    },
    {
      "stateMutability": "payable",
      "type": "fallback"
    },
    {
      "inputs": [
        {
          "internalType": "address",
          "name": "keeper_addr",
          "type": "address"
        },
        {
          "internalType": "string",
          "name": "keeper_name",
          "type": "string"
        }
      ],
      "name": "add_keeper",
      "outputs": [],
      "stateMutability": "nonpayable",
      "type": "function"
    },
    {
      "inputs": [
        {
          "internalType": "bytes32",
          "name": "merkleRoot",
          "type": "bytes32"
        },
        {
          "internalType": "uint256",
          "name": "index",
          "type": "uint256"
        },
        {
          "internalType": "uint256",
          "name": "amount",
          "type": "uint256"
        },
        {
          "internalType": "bytes32[]",
          "name": "merkleProof",
          "type": "bytes32[]"
        }
      ],
      "name": "claim_erc20",
      "outputs": [],
      "stateMutability": "nonpayable",
      "type": "function"
    },
    {
      "inputs": [],
      "name": "get_MiningOwner",
      "outputs": [
        {
          "internalType": "address",
          "name": "",
          "type": "address"
        }
      ],
      "stateMutability": "view",
      "type": "function"
    },
    {
      "inputs": [],
      "name": "get_contract_balance",
      "outputs": [
        {
          "internalType": "uint256",
          "name": "",
          "type": "uint256"
        }
      ],
      "stateMutability": "view",
      "type": "function"
    },
    {
      "inputs": [
        {
          "internalType": "address",
          "name": "keeper_addr",
          "type": "address"
        }
      ],
      "name": "get_keeper",
      "outputs": [
        {
          "internalType": "string",
          "name": "",
          "type": "string"
        }
      ],
      "stateMutability": "view",
      "type": "function"
    },
    {
      "inputs": [
        {
          "internalType": "bytes32",
          "name": "merkleRoot",
          "type": "bytes32"
        }
      ],
      "name": "get_merkle_balance",
      "outputs": [
        {
          "internalType": "uint256",
          "name": "",
          "type": "uint256"
        }
      ],
      "stateMutability": "view",
      "type": "function"
    },
    {
      "inputs": [],
      "name": "get_msn_addr",
      "outputs": [
        {
          "internalType": "address",
          "name": "",
          "type": "address"
        }
      ],
      "stateMutability": "view",
      "type": "function"
    },
    {
      "inputs": [
        {
          "internalType": "address",
          "name": "keeper_addr",
          "type": "address"
        }
      ],
      "name": "remove_keeper",
      "outputs": [],
      "stateMutability": "nonpayable",
      "type": "function"
    },
    {
      "inputs": [
        {
          "internalType": "bytes32",
          "name": "merkleRoot",
          "type": "bytes32"
        }
      ],
      "name": "remove_merkle_root",
      "outputs": [],
      "stateMutability": "nonpayable",
      "type": "function"
    },
    {
      "inputs": [
        {
          "internalType": "address",
          "name": "_newOwner",
          "type": "address"
        }
      ],
      "name": "set_MiningOwner",
      "outputs": [],
      "stateMutability": "nonpayable",
      "type": "function"
    },
    {
      "inputs": [
        {
          "internalType": "bytes32",
          "name": "merkleRoot",
          "type": "bytes32"
        },
        {
          "internalType": "uint256",
          "name": "amount",
          "type": "uint256"
        }
      ],
      "name": "set_merkle_root",
      "outputs": [],
      "stateMutability": "nonpayable",
      "type": "function"
    },
    {
      "inputs": [],
      "name": "withdraw_contract",
      "outputs": [],
      "stateMutability": "nonpayable",
      "type": "function"
    },
    {
      "inputs": [],
      "name": "withdraw_eth",
      "outputs": [],
      "stateMutability": "nonpayable",
      "type": "function"
    },
    {
      "stateMutability": "payable",
      "type": "receive"
    }
  ],
  "bytecode": "0x60806040523480156200001157600080fd5b506040516200281c3803806200281c833981810160405281019062000037919062000212565b33600260006101000a81548173ffffffffffffffffffffffffffffffffffffffff021916908373ffffffffffffffffffffffffffffffffffffffff16021790555080600160006101000a81548173ffffffffffffffffffffffffffffffffffffffff021916908373ffffffffffffffffffffffffffffffffffffffff1602179055506040518060400160405280600b81526020017f4d696e696e674f776e6572000000000000000000000000000000000000000000815250600360003373ffffffffffffffffffffffffffffffffffffffff1673ffffffffffffffffffffffffffffffffffffffff1681526020019081526020016000209080519060200190620001439291906200014b565b5050620002f1565b828054620001599062000272565b90600052602060002090601f0160209004810192826200017d5760008555620001c9565b82601f106200019857805160ff1916838001178555620001c9565b82800160010185558215620001c9579182015b82811115620001c8578251825591602001919060010190620001ab565b5b509050620001d89190620001dc565b5090565b5b80821115620001f7576000816000905550600101620001dd565b5090565b6000815190506200020c81620002d7565b92915050565b6000602082840312156200022557600080fd5b60006200023584828501620001fb565b91505092915050565b60006200024b8262000252565b9050919050565b600073ffffffffffffffffffffffffffffffffffffffff82169050919050565b600060028204905060018216806200028b57607f821691505b60208210811415620002a257620002a1620002a8565b5b50919050565b7f4e487b7100000000000000000000000000000000000000000000000000000000600052602260045260246000fd5b620002e2816200023e565b8114620002ee57600080fd5b50565b61251b80620003016000396000f3fe6080604052600436106100c65760003560e01c8063ba2f180b1161007f578063cc35c71211610059578063cc35c71214610288578063d6f8560d146102b1578063f0bc153a146102c8578063f3933b26146102f3576100e5565b8063ba2f180b14610209578063bb2bafad14610246578063c74774621461025d576100e5565b8063255e1911146100ff57806364f5f4691461013c5780638e6c9eb31461016557806392ec504c1461018e578063a11cc872146101b7578063ab484661146101e0576100e5565b366100e557346000808282546100dc919061223c565b92505081905550005b346000808282546100f6919061223c565b92505081905550005b34801561010b57600080fd5b506101266004803603810190610121919061195c565b61031e565b6040516101339190612205565b60405180910390f35b34801561014857600080fd5b50610163600480360381019061015e919061195c565b61033b565b005b34801561017157600080fd5b5061018c60048036038101906101879190611985565b610420565b005b34801561019a57600080fd5b506101b560048036038101906101b091906118db565b610514565b005b3480156101c357600080fd5b506101de60048036038101906101d991906119c1565b61067e565b005b3480156101ec57600080fd5b50610207600480360381019061020291906118b2565b610a10565b005b34801561021557600080fd5b50610230600480360381019061022b91906118b2565b610d18565b60405161023d9190612083565b60405180910390f35b34801561025257600080fd5b5061025b610e78565b005b34801561026957600080fd5b506102726110ec565b60405161027f9190611e91565b60405180910390f35b34801561029457600080fd5b506102af60048036038101906102aa91906118b2565b611116565b005b3480156102bd57600080fd5b506102c66113b4565b005b3480156102d457600080fd5b506102dd611494565b6040516102ea9190612205565b60405180910390f35b3480156102ff57600080fd5b50610308611546565b6040516103159190611e91565b60405180910390f35b600060046000838152602001908152602001600020549050919050565b600260009054906101000a900473ffffffffffffffffffffffffffffffffffffffff1673ffffffffffffffffffffffffffffffffffffffff163373ffffffffffffffffffffffffffffffffffffffff16146103cb576040517f08c379a00000000000000000000000000000000000000000000000000000000081526004016103c2906121a5565b60405180910390fd5b60046000828152602001908152602001600020600090557f1be644250de5aac7496f2fb376102ca802dfd09b8b79a87c4e2fbd4d8f149ec733824260405161041593929190611fde565b60405180910390a150565b6000600360003373ffffffffffffffffffffffffffffffffffffffff1673ffffffffffffffffffffffffffffffffffffffff168152602001908152602001600020805461046c9061235a565b905014156104af576040517f08c379a00000000000000000000000000000000000000000000000000000000081526004016104a6906121e5565b60405180910390fd5b6001816104bc919061223c565b60046000848152602001908152602001600020819055507f77858c1dd8d0f2ca3f599d884368a82590cafa96e1bf0aae3dfe7cabc7f6f1f4338383426040516105089493929190612015565b60405180910390a15050565b600260009054906101000a900473ffffffffffffffffffffffffffffffffffffffff1673ffffffffffffffffffffffffffffffffffffffff163373ffffffffffffffffffffffffffffffffffffffff16146105a4576040517f08c379a000000000000000000000000000000000000000000000000000000000815260040161059b906121a5565b60405180910390fd5b60008282905014156105eb576040517f08c379a00000000000000000000000000000000000000000000000000000000081526004016105e290612145565b60405180910390fd5b8181600360008673ffffffffffffffffffffffffffffffffffffffff1673ffffffffffffffffffffffffffffffffffffffff168152602001908152602001600020919061063992919061164c565b507f6559ef5d957763f6fec38393527502e64a4e1c2836b836a0fe84e0f12b3bcafc3384848442604051610671959493929190611f44565b60405180910390a1505050565b6000600460008781526020019081526020016000205414156106d5576040517f08c379a00000000000000000000000000000000000000000000000000000000081526004016106cc906120c5565b60405180910390fd5b6000151560056000878152602001908152602001600020600086815260200190815260200160002060009054906101000a900460ff1615151461074d576040517f08c379a000000000000000000000000000000000000000000000000000000000815260040161074490612165565b60405180910390fd5b600084338560405160200161076493929190611e54565b60405160208183030381529060405280519060200120905060006107ca848480806020026020016040519081016040528093929190818152602001838360200280828437600081840152601f19601f820116905080830192505050505050508884611570565b90506001151581151514610813576040517f08c379a000000000000000000000000000000000000000000000000000000000815260040161080a90612105565b60405180910390fd5b84600460008981526020019081526020016000205411610868576040517f08c379a000000000000000000000000000000000000000000000000000000000815260040161085f90612125565b60405180910390fd5b8460046000898152602001908152602001600020600082825461088b9190612292565b92505081905550600160056000898152602001908152602001600020600088815260200190815260200160002060006101000a81548160ff0219169083151502179055506000600160009054906101000a900473ffffffffffffffffffffffffffffffffffffffff1673ffffffffffffffffffffffffffffffffffffffff1663a9059cbb33886040518363ffffffff1660e01b815260040161092e92919061205a565b602060405180830381600087803b15801561094857600080fd5b505af115801561095c573d6000803e3d6000fd5b505050506040513d601f19601f820116820180604052508101906109809190611933565b905060011515811515146109c9576040517f08c379a00000000000000000000000000000000000000000000000000000000081526004016109c090612185565b60405180910390fd5b7f717c9026c9c1962146b4b042eaefc02989d739febea1b24b057bd35e8b171658338988426040516109fe9493929190612015565b60405180910390a15050505050505050565b600260009054906101000a900473ffffffffffffffffffffffffffffffffffffffff1673ffffffffffffffffffffffffffffffffffffffff163373ffffffffffffffffffffffffffffffffffffffff1614610aa0576040517f08c379a0000000000000000000000000000000000000000000000000000000008152600401610a97906121a5565b60405180910390fd5b6000600360008373ffffffffffffffffffffffffffffffffffffffff1673ffffffffffffffffffffffffffffffffffffffff1681526020019081526020016000208054610aec9061235a565b90501415610b2f576040517f08c379a0000000000000000000000000000000000000000000000000000000008152600401610b26906121e5565b60405180910390fd5b600260009054906101000a900473ffffffffffffffffffffffffffffffffffffffff1673ffffffffffffffffffffffffffffffffffffffff168173ffffffffffffffffffffffffffffffffffffffff161415610bc0576040517f08c379a0000000000000000000000000000000000000000000000000000000008152600401610bb7906121c5565b60405180910390fd5b6000600360008373ffffffffffffffffffffffffffffffffffffffff1673ffffffffffffffffffffffffffffffffffffffff1681526020019081526020016000208054610c0c9061235a565b80601f0160208091040260200160405190810160405280929190818152602001828054610c389061235a565b8015610c855780601f10610c5a57610100808354040283529160200191610c85565b820191906000526020600020905b815481529060010190602001808311610c6857829003601f168201915b50505050509050600360008373ffffffffffffffffffffffffffffffffffffffff1673ffffffffffffffffffffffffffffffffffffffff1681526020019081526020016000206000610cd791906116d2565b7f24d20fc7c5dfe41d9e7326b6dd6ffbc5ab97185b6d857ed2d6a15295806a68e233838342604051610d0c9493929190611f92565b60405180910390a15050565b60606000600360008473ffffffffffffffffffffffffffffffffffffffff1673ffffffffffffffffffffffffffffffffffffffff1681526020019081526020016000208054610d669061235a565b90501415610da9576040517f08c379a0000000000000000000000000000000000000000000000000000000008152600401610da0906121e5565b60405180910390fd5b600360008373ffffffffffffffffffffffffffffffffffffffff1673ffffffffffffffffffffffffffffffffffffffff1681526020019081526020016000208054610df39061235a565b80601f0160208091040260200160405190810160405280929190818152602001828054610e1f9061235a565b8015610e6c5780601f10610e4157610100808354040283529160200191610e6c565b820191906000526020600020905b815481529060010190602001808311610e4f57829003601f168201915b50505050509050919050565b600260009054906101000a900473ffffffffffffffffffffffffffffffffffffffff1673ffffffffffffffffffffffffffffffffffffffff163373ffffffffffffffffffffffffffffffffffffffff1614610f08576040517f08c379a0000000000000000000000000000000000000000000000000000000008152600401610eff906121a5565b60405180910390fd5b6000600160009054906101000a900473ffffffffffffffffffffffffffffffffffffffff1673ffffffffffffffffffffffffffffffffffffffff166370a08231306040518263ffffffff1660e01b8152600401610f659190611e91565b60206040518083038186803b158015610f7d57600080fd5b505afa158015610f91573d6000803e3d6000fd5b505050506040513d601f19601f82011682018060405250810190610fb59190611a41565b905060008111610ffa576040517f08c379a0000000000000000000000000000000000000000000000000000000008152600401610ff1906120e5565b60405180910390fd5b600160009054906101000a900473ffffffffffffffffffffffffffffffffffffffff1673ffffffffffffffffffffffffffffffffffffffff1663a9059cbb33836040518363ffffffff1660e01b815260040161105792919061205a565b602060405180830381600087803b15801561107157600080fd5b505af1158015611085573d6000803e3d6000fd5b505050506040513d601f19601f820116820180604052508101906110a99190611933565b507fc30167ff91f9ebc42b01a68c962f2c45b0ac5a14f9b60ce42a83d7cb19d3a4e333303384426040516110e1959493929190611ef1565b60405180910390a150565b6000600260009054906101000a900473ffffffffffffffffffffffffffffffffffffffff16905090565b600260009054906101000a900473ffffffffffffffffffffffffffffffffffffffff1673ffffffffffffffffffffffffffffffffffffffff163373ffffffffffffffffffffffffffffffffffffffff16146111a6576040517f08c379a000000000000000000000000000000000000000000000000000000000815260040161119d906121a5565b60405180910390fd5b600260009054906101000a900473ffffffffffffffffffffffffffffffffffffffff1673ffffffffffffffffffffffffffffffffffffffff168173ffffffffffffffffffffffffffffffffffffffff161415611237576040517f08c379a000000000000000000000000000000000000000000000000000000000815260040161122e906120a5565b60405180910390fd5b6000600260009054906101000a900473ffffffffffffffffffffffffffffffffffffffff169050600360008273ffffffffffffffffffffffffffffffffffffffff1673ffffffffffffffffffffffffffffffffffffffff16815260200190815260200160002060006112a991906116d2565b81600260006101000a81548173ffffffffffffffffffffffffffffffffffffffff021916908373ffffffffffffffffffffffffffffffffffffffff1602179055506040518060400160405280600b81526020017f4d696e696e674f776e6572000000000000000000000000000000000000000000815250600360008473ffffffffffffffffffffffffffffffffffffffff1673ffffffffffffffffffffffffffffffffffffffff1681526020019081526020016000209080519060200190611372929190611712565b507f68e48d3413ff1509bbe8de3131e03aa30501e5d46cd889fc6a80a8907b691451338284426040516113a89493929190611eac565b60405180910390a15050565b600260009054906101000a900473ffffffffffffffffffffffffffffffffffffffff1673ffffffffffffffffffffffffffffffffffffffff163373ffffffffffffffffffffffffffffffffffffffff1614611444576040517f08c379a000000000000000000000000000000000000000000000000000000000815260040161143b906121a5565b60405180910390fd5b3373ffffffffffffffffffffffffffffffffffffffff166108fc479081150290604051600060405180830381858888f1935050505015801561148a573d6000803e3d6000fd5b5060008081905550565b6000600160009054906101000a900473ffffffffffffffffffffffffffffffffffffffff1673ffffffffffffffffffffffffffffffffffffffff166370a08231306040518263ffffffff1660e01b81526004016114f19190611e91565b60206040518083038186803b15801561150957600080fd5b505afa15801561151d573d6000803e3d6000fd5b505050506040513d601f19601f820116820180604052508101906115419190611a41565b905090565b6000600160009054906101000a900473ffffffffffffffffffffffffffffffffffffffff16905090565b60008082905060005b855181101561163e5760008682815181106115bd577f4e487b7100000000000000000000000000000000000000000000000000000000600052603260045260246000fd5b602002602001015190508083116115fe5782816040516020016115e1929190611e28565b60405160208183030381529060405280519060200120925061162a565b8083604051602001611611929190611e28565b6040516020818303038152906040528051906020012092505b5080806116369061238c565b915050611579565b508381149150509392505050565b8280546116589061235a565b90600052602060002090601f01602090048101928261167a57600085556116c1565b82601f1061169357803560ff19168380011785556116c1565b828001600101855582156116c1579182015b828111156116c05782358255916020019190600101906116a5565b5b5090506116ce9190611798565b5090565b5080546116de9061235a565b6000825580601f106116f0575061170f565b601f01602090049060005260206000209081019061170e9190611798565b5b50565b82805461171e9061235a565b90600052602060002090601f0160209004810192826117405760008555611787565b82601f1061175957805160ff1916838001178555611787565b82800160010185558215611787579182015b8281111561178657825182559160200191906001019061176b565b5b5090506117949190611798565b5090565b5b808211156117b1576000816000905550600101611799565b5090565b6000813590506117c481612489565b92915050565b60008083601f8401126117dc57600080fd5b8235905067ffffffffffffffff8111156117f557600080fd5b60208301915083602082028301111561180d57600080fd5b9250929050565b600081519050611823816124a0565b92915050565b600081359050611838816124b7565b92915050565b60008083601f84011261185057600080fd5b8235905067ffffffffffffffff81111561186957600080fd5b60208301915083600182028301111561188157600080fd5b9250929050565b600081359050611897816124ce565b92915050565b6000815190506118ac816124ce565b92915050565b6000602082840312156118c457600080fd5b60006118d2848285016117b5565b91505092915050565b6000806000604084860312156118f057600080fd5b60006118fe868287016117b5565b935050602084013567ffffffffffffffff81111561191b57600080fd5b6119278682870161183e565b92509250509250925092565b60006020828403121561194557600080fd5b600061195384828501611814565b91505092915050565b60006020828403121561196e57600080fd5b600061197c84828501611829565b91505092915050565b6000806040838503121561199857600080fd5b60006119a685828601611829565b92505060206119b785828601611888565b9150509250929050565b6000806000806000608086880312156119d957600080fd5b60006119e788828901611829565b95505060206119f888828901611888565b9450506040611a0988828901611888565b935050606086013567ffffffffffffffff811115611a2657600080fd5b611a32888289016117ca565b92509250509295509295909350565b600060208284031215611a5357600080fd5b6000611a618482850161189d565b91505092915050565b611a73816122c6565b82525050565b611a8a611a85826122c6565b6123d5565b82525050565b611a99816122e4565b82525050565b611ab0611aab826122e4565b6123e7565b82525050565b6000611ac2838561222b565b9350611acf838584612318565b611ad88361246b565b840190509392505050565b6000611aee82612220565b611af8818561222b565b9350611b08818560208601612327565b611b118161246b565b840191505092915050565b6000611b29602c8361222b565b91507f546865206e6577206f776e6572206d75737420626520646966666572656e742060008301527f66726f6d20746865206f6c6400000000000000000000000000000000000000006020830152604082019050919050565b6000611b8f601c8361222b565b91507f546865206d65726b6c65526f6f7420646f65736e2774206578697374000000006000830152602082019050919050565b6000611bcf600a8361222b565b91507f4e6f2062616c616e6365000000000000000000000000000000000000000000006000830152602082019050919050565b6000611c0f600c8361222b565b91507f4e6f7420766572696669656400000000000000000000000000000000000000006000830152602082019050919050565b6000611c4f60128361222b565b91507f4e6f7420656e6f7567682062616c616e636500000000000000000000000000006000830152602082019050919050565b6000611c8f60078361222b565b91507f4e6f206e616d65000000000000000000000000000000000000000000000000006000830152602082019050919050565b6000611ccf600f8361222b565b91507f416c726561647920636c61696d656400000000000000000000000000000000006000830152602082019050919050565b6000611d0f600e8361222b565b91507f7472616e73666572206572726f720000000000000000000000000000000000006000830152602082019050919050565b6000611d4f60108361222b565b91507f6f6e6c79204d696e696e674f776e6572000000000000000000000000000000006000830152602082019050919050565b6000611d8f601a8361222b565b91507f43616e206e6f742064656c657465204d696e696e674f776e65720000000000006000830152602082019050919050565b6000611dcf60108361222b565b91507f4e6f20737563682061206b6565706572000000000000000000000000000000006000830152602082019050919050565b611e0b8161230e565b82525050565b611e22611e1d8261230e565b612403565b82525050565b6000611e348285611a9f565b602082019150611e448284611a9f565b6020820191508190509392505050565b6000611e608286611e11565b602082019150611e708285611a79565b601482019150611e808284611e11565b602082019150819050949350505050565b6000602082019050611ea66000830184611a6a565b92915050565b6000608082019050611ec16000830187611a6a565b611ece6020830186611a6a565b611edb6040830185611a6a565b611ee86060830184611e02565b95945050505050565b600060a082019050611f066000830188611a6a565b611f136020830187611a6a565b611f206040830186611a6a565b611f2d6060830185611e02565b611f3a6080830184611e02565b9695505050505050565b6000608082019050611f596000830188611a6a565b611f666020830187611a6a565b8181036040830152611f79818587611ab6565b9050611f886060830184611e02565b9695505050505050565b6000608082019050611fa76000830187611a6a565b611fb46020830186611a6a565b8181036040830152611fc68185611ae3565b9050611fd56060830184611e02565b95945050505050565b6000606082019050611ff36000830186611a6a565b6120006020830185611a90565b61200d6040830184611e02565b949350505050565b600060808201905061202a6000830187611a6a565b6120376020830186611a90565b6120446040830185611e02565b6120516060830184611e02565b95945050505050565b600060408201905061206f6000830185611a6a565b61207c6020830184611e02565b9392505050565b6000602082019050818103600083015261209d8184611ae3565b905092915050565b600060208201905081810360008301526120be81611b1c565b9050919050565b600060208201905081810360008301526120de81611b82565b9050919050565b600060208201905081810360008301526120fe81611bc2565b9050919050565b6000602082019050818103600083015261211e81611c02565b9050919050565b6000602082019050818103600083015261213e81611c42565b9050919050565b6000602082019050818103600083015261215e81611c82565b9050919050565b6000602082019050818103600083015261217e81611cc2565b9050919050565b6000602082019050818103600083015261219e81611d02565b9050919050565b600060208201905081810360008301526121be81611d42565b9050919050565b600060208201905081810360008301526121de81611d82565b9050919050565b600060208201905081810360008301526121fe81611dc2565b9050919050565b600060208201905061221a6000830184611e02565b92915050565b600081519050919050565b600082825260208201905092915050565b60006122478261230e565b91506122528361230e565b9250827fffffffffffffffffffffffffffffffffffffffffffffffffffffffffffffffff038211156122875761228661240d565b5b828201905092915050565b600061229d8261230e565b91506122a88361230e565b9250828210156122bb576122ba61240d565b5b828203905092915050565b60006122d1826122ee565b9050919050565b60008115159050919050565b6000819050919050565b600073ffffffffffffffffffffffffffffffffffffffff82169050919050565b6000819050919050565b82818337600083830152505050565b60005b8381101561234557808201518184015260208101905061232a565b83811115612354576000848401525b50505050565b6000600282049050600182168061237257607f821691505b602082108114156123865761238561243c565b5b50919050565b60006123978261230e565b91507fffffffffffffffffffffffffffffffffffffffffffffffffffffffffffffffff8214156123ca576123c961240d565b5b600182019050919050565b60006123e0826123f1565b9050919050565b6000819050919050565b60006123fc8261247c565b9050919050565b6000819050919050565b7f4e487b7100000000000000000000000000000000000000000000000000000000600052601160045260246000fd5b7f4e487b7100000000000000000000000000000000000000000000000000000000600052602260045260246000fd5b6000601f19601f8301169050919050565b60008160601b9050919050565b612492816122c6565b811461249d57600080fd5b50565b6124a9816122d8565b81146124b457600080fd5b50565b6124c0816122e4565b81146124cb57600080fd5b50565b6124d78161230e565b81146124e257600080fd5b5056fea264697066735822122005fe72748d4df3a269a24a6fc817de767bf2d002990f4816665878f68d12a25364736f6c63430008000033",
  "linkReferences": {},
  "deployedLinkReferences": {}
}