{
  "_format": "hh-sol-artifact-1",
  "contractName": "MINING",
  "sourceName": "assets/koa_static/contracts/v2/MINING.sol",
  "abi": [
    {
      "inputs": [
        {
          "internalType": "address",
          "name": "_MSNcontractAddr",
          "type": "address"
        }
      ],
      "stateMutability": "nonpayable",
      "type": "constructor"
    },
    {
      "anonymous": false,
      "inputs": [
        {
          "indexed": false,
          "internalType": "address",
          "name": "keeper_addr",
          "type": "address"
        },
        {
          "indexed": false,
          "internalType": "string",
          "name": "keeper_name",
          "type": "string"
        }
      ],
      "name": "add_keeper_EVENT",
      "type": "event"
    },
    {
      "anonymous": false,
      "inputs": [
        {
          "indexed": false,
          "internalType": "bytes32",
          "name": "merkleRoot",
          "type": "bytes32"
        },
        {
          "indexed": false,
          "internalType": "uint256",
          "name": "blocktime",
          "type": "uint256"
        }
      ],
      "name": "add_merkle_root_EVENT",
      "type": "event"
    },
    {
      "anonymous": false,
      "inputs": [
        {
          "indexed": false,
          "internalType": "bytes32",
          "name": "merkleRoot",
          "type": "bytes32"
        },
        {
          "indexed": false,
          "internalType": "address",
          "name": "to",
          "type": "address"
        },
        {
          "indexed": false,
          "internalType": "uint256",
          "name": "amount",
          "type": "uint256"
        },
        {
          "indexed": false,
          "internalType": "uint256",
          "name": "time",
          "type": "uint256"
        }
      ],
      "name": "claim_erc20_EVENT",
      "type": "event"
    },
    {
      "anonymous": false,
      "inputs": [
        {
          "indexed": false,
          "internalType": "address",
          "name": "keeper_addr",
          "type": "address"
        },
        {
          "indexed": false,
          "internalType": "string",
          "name": "keeper_name",
          "type": "string"
        }
      ],
      "name": "remove_keeper_EVENT",
      "type": "event"
    },
    {
      "anonymous": false,
      "inputs": [
        {
          "indexed": false,
          "internalType": "address",
          "name": "_from",
          "type": "address"
        },
        {
          "indexed": false,
          "internalType": "bytes32",
          "name": "merkleRoot",
          "type": "bytes32"
        },
        {
          "indexed": false,
          "internalType": "uint256",
          "name": "blocktime",
          "type": "uint256"
        }
      ],
      "name": "remove_merkle_root_EVENT",
      "type": "event"
    },
    {
      "anonymous": false,
      "inputs": [
        {
          "indexed": false,
          "internalType": "address",
          "name": "oldOwner",
          "type": "address"
        },
        {
          "indexed": false,
          "internalType": "address",
          "name": "newOwner",
          "type": "address"
        }
      ],
      "name": "set_MiningOwner_EVENT",
      "type": "event"
    },
    {
      "anonymous": false,
      "inputs": [
        {
          "indexed": false,
          "internalType": "address",
          "name": "_from",
          "type": "address"
        },
        {
          "indexed": false,
          "internalType": "address",
          "name": "_to",
          "type": "address"
        },
        {
          "indexed": false,
          "internalType": "uint256",
          "name": "amount",
          "type": "uint256"
        },
        {
          "indexed": false,
          "internalType": "uint256",
          "name": "time",
          "type": "uint256"
        }
      ],
      "name": "withdraw_contract_EVENT",
      "type": "event"
    },
    {
      "stateMutability": "payable",
      "type": "fallback"
    },
    {
      "inputs": [
        {
          "internalType": "address",
          "name": "keeper_addr",
          "type": "address"
        },
        {
          "internalType": "string",
          "name": "keeper_name",
          "type": "string"
        }
      ],
      "name": "add_keeper",
      "outputs": [],
      "stateMutability": "nonpayable",
      "type": "function"
    },
    {
      "inputs": [
        {
          "internalType": "bytes32",
          "name": "merkleRoot",
          "type": "bytes32"
        },
        {
          "internalType": "uint256",
          "name": "amount",
          "type": "uint256"
        }
      ],
      "name": "add_merkle_root",
      "outputs": [],
      "stateMutability": "nonpayable",
      "type": "function"
    },
    {
      "inputs": [
        {
          "internalType": "bytes32",
          "name": "merkleRoot",
          "type": "bytes32"
        },
        {
          "internalType": "uint256",
          "name": "index",
          "type": "uint256"
        },
        {
          "internalType": "uint256",
          "name": "amount",
          "type": "uint256"
        },
        {
          "internalType": "bytes32[]",
          "name": "merkleProof",
          "type": "bytes32[]"
        }
      ],
      "name": "claim_erc20",
      "outputs": [],
      "stateMutability": "nonpayable",
      "type": "function"
    },
    {
      "inputs": [],
      "name": "get_MiningOwner",
      "outputs": [
        {
          "internalType": "address",
          "name": "",
          "type": "address"
        }
      ],
      "stateMutability": "view",
      "type": "function"
    },
    {
      "inputs": [],
      "name": "get_contract_balance",
      "outputs": [
        {
          "internalType": "uint256",
          "name": "",
          "type": "uint256"
        }
      ],
      "stateMutability": "view",
      "type": "function"
    },
    {
      "inputs": [
        {
          "internalType": "bytes32",
          "name": "merkleRoot",
          "type": "bytes32"
        }
      ],
      "name": "get_merkle_root",
      "outputs": [
        {
          "internalType": "uint256",
          "name": "",
          "type": "uint256"
        }
      ],
      "stateMutability": "view",
      "type": "function"
    },
    {
      "inputs": [],
      "name": "get_msn_addr",
      "outputs": [
        {
          "internalType": "address",
          "name": "",
          "type": "address"
        }
      ],
      "stateMutability": "view",
      "type": "function"
    },
    {
      "inputs": [
        {
          "internalType": "address",
          "name": "keeper_addr",
          "type": "address"
        }
      ],
      "name": "remove_keeper",
      "outputs": [],
      "stateMutability": "nonpayable",
      "type": "function"
    },
    {
      "inputs": [
        {
          "internalType": "bytes32",
          "name": "merkleRoot",
          "type": "bytes32"
        }
      ],
      "name": "remove_merkle_root",
      "outputs": [],
      "stateMutability": "nonpayable",
      "type": "function"
    },
    {
      "inputs": [
        {
          "internalType": "address",
          "name": "_newOwner",
          "type": "address"
        }
      ],
      "name": "set_MiningOwner",
      "outputs": [],
      "stateMutability": "nonpayable",
      "type": "function"
    },
    {
      "inputs": [],
      "name": "withdraw_contract",
      "outputs": [],
      "stateMutability": "nonpayable",
      "type": "function"
    },
    {
      "inputs": [],
      "name": "withdraw_eth",
      "outputs": [],
      "stateMutability": "nonpayable",
      "type": "function"
    },
    {
      "stateMutability": "payable",
      "type": "receive"
    }
  ],
  "bytecode": "0x60806040523480156200001157600080fd5b506040516200259f3803806200259f833981810160405281019062000037919062000212565b33600260006101000a81548173ffffffffffffffffffffffffffffffffffffffff021916908373ffffffffffffffffffffffffffffffffffffffff16021790555080600160006101000a81548173ffffffffffffffffffffffffffffffffffffffff021916908373ffffffffffffffffffffffffffffffffffffffff1602179055506040518060400160405280600b81526020017f4d696e696e674f776e6572000000000000000000000000000000000000000000815250600360003373ffffffffffffffffffffffffffffffffffffffff1673ffffffffffffffffffffffffffffffffffffffff1681526020019081526020016000209080519060200190620001439291906200014b565b5050620002f1565b828054620001599062000272565b90600052602060002090601f0160209004810192826200017d5760008555620001c9565b82601f106200019857805160ff1916838001178555620001c9565b82800160010185558215620001c9579182015b82811115620001c8578251825591602001919060010190620001ab565b5b509050620001d89190620001dc565b5090565b5b80821115620001f7576000816000905550600101620001dd565b5090565b6000815190506200020c81620002d7565b92915050565b6000602082840312156200022557600080fd5b60006200023584828501620001fb565b91505092915050565b60006200024b8262000252565b9050919050565b600073ffffffffffffffffffffffffffffffffffffffff82169050919050565b600060028204905060018216806200028b57607f821691505b60208210811415620002a257620002a1620002a8565b5b50919050565b7f4e487b7100000000000000000000000000000000000000000000000000000000600052602260045260246000fd5b620002e2816200023e565b8114620002ee57600080fd5b50565b61229e80620003016000396000f3fe6080604052600436106100ab5760003560e01c8063bb2bafad11610064578063bb2bafad146101ee578063c747746214610205578063cc35c71214610230578063d6f8560d14610259578063f0bc153a14610270578063f3933b261461029b576100ca565b80634d899e02146100e457806364f5f4691461010d5780639043705a1461013657806392ec504c14610173578063a11cc8721461019c578063ab484661146101c5576100ca565b366100ca57346000808282546100c19190611fbf565b92505081905550005b346000808282546100db9190611fbf565b92505081905550005b3480156100f057600080fd5b5061010b600480360381019061010691906117c3565b6102c6565b005b34801561011957600080fd5b50610134600480360381019061012f919061179a565b6103c9565b005b34801561014257600080fd5b5061015d6004803603810190610158919061179a565b6104ae565b60405161016a9190611f88565b60405180910390f35b34801561017f57600080fd5b5061019a60048036038101906101959190611719565b6104cb565b005b3480156101a857600080fd5b506101c360048036038101906101be91906117ff565b610631565b005b3480156101d157600080fd5b506101ec60048036038101906101e791906116f0565b6109b8565b005b3480156101fa57600080fd5b50610203610cbc565b005b34801561021157600080fd5b5061021a610f2e565b6040516102279190611c8f565b60405180910390f35b34801561023c57600080fd5b50610257600480360381019061025291906116f0565b610f58565b005b34801561026557600080fd5b5061026e6111f2565b005b34801561027c57600080fd5b506102856112d2565b6040516102929190611f88565b60405180910390f35b3480156102a757600080fd5b506102b0611384565b6040516102bd9190611c8f565b60405180910390f35b6000600360003373ffffffffffffffffffffffffffffffffffffffff1673ffffffffffffffffffffffffffffffffffffffff1681526020019081526020016000208054610312906120dd565b90501415610355576040517f08c379a000000000000000000000000000000000000000000000000000000000815260040161034c90611f68565b60405180910390fd5b6001816103629190611fbf565b60046000848152602001908152602001600020819055507f1bfe4fd16799fd52355bad8dba520c16017b91a98d0f59050c1e8f275af244998260046000858152602001908152602001600020546040516103bd929190611e1f565b60405180910390a15050565b600260009054906101000a900473ffffffffffffffffffffffffffffffffffffffff1673ffffffffffffffffffffffffffffffffffffffff163373ffffffffffffffffffffffffffffffffffffffff1614610459576040517f08c379a000000000000000000000000000000000000000000000000000000000815260040161045090611f28565b60405180910390fd5b60046000828152602001908152602001600020600090557f1be644250de5aac7496f2fb376102ca802dfd09b8b79a87c4e2fbd4d8f149ec73382426040516104a393929190611d18565b60405180910390a150565b600060046000838152602001908152602001600020549050919050565b600260009054906101000a900473ffffffffffffffffffffffffffffffffffffffff1673ffffffffffffffffffffffffffffffffffffffff163373ffffffffffffffffffffffffffffffffffffffff161461055b576040517f08c379a000000000000000000000000000000000000000000000000000000000815260040161055290611f28565b60405180910390fd5b60008282905014156105a2576040517f08c379a000000000000000000000000000000000000000000000000000000000815260040161059990611ee8565b60405180910390fd5b8181600360008673ffffffffffffffffffffffffffffffffffffffff1673ffffffffffffffffffffffffffffffffffffffff16815260200190815260200160002091906105f092919061148a565b507f8ca452c843797be6692cd8cdd9050409a6d2bbfb1b3c748f0b5237fbdcdc167283838360405161062493929190611d4f565b60405180910390a1505050565b600060046000878152602001908152602001600020541415610688576040517f08c379a000000000000000000000000000000000000000000000000000000000815260040161067f90611e68565b60405180910390fd5b6000151560056000878152602001908152602001600020600086815260200190815260200160002060009054906101000a900460ff16151514610700576040517f08c379a00000000000000000000000000000000000000000000000000000000081526004016106f790611f08565b60405180910390fd5b600084338560405160200161071793929190611c52565b60405160208183030381529060405280519060200120905061077b838380806020026020016040519081016040528093929190818152602001838360200280828437600081840152601f19601f8201169050808301925050505050505087836113ae565b6107ba576040517f08c379a00000000000000000000000000000000000000000000000000000000081526004016107b190611ea8565b60405180910390fd5b8360046000888152602001908152602001600020541161080f576040517f08c379a000000000000000000000000000000000000000000000000000000000815260040161080690611ec8565b60405180910390fd5b836004600088815260200190815260200160002060008282546108329190612015565b92505081905550600160056000888152602001908152602001600020600087815260200190815260200160002060006101000a81548160ff0219169083151502179055506000600160009054906101000a900473ffffffffffffffffffffffffffffffffffffffff1673ffffffffffffffffffffffffffffffffffffffff1663a9059cbb33876040518363ffffffff1660e01b81526004016108d5929190611db1565b602060405180830381600087803b1580156108ef57600080fd5b505af1158015610903573d6000803e3d6000fd5b505050506040513d601f19601f820116820180604052508101906109279190611771565b90508015610971577fd40ca6af632a1554640d15be78d62c68d40cadc55d522efd830be8559216d5a5873387426040516109649493929190611dda565b60405180910390a16109af565b600060056000898152602001908152602001600020600088815260200190815260200160002060006101000a81548160ff0219169083151502179055505b50505050505050565b600260009054906101000a900473ffffffffffffffffffffffffffffffffffffffff1673ffffffffffffffffffffffffffffffffffffffff163373ffffffffffffffffffffffffffffffffffffffff1614610a48576040517f08c379a0000000000000000000000000000000000000000000000000000000008152600401610a3f90611f28565b60405180910390fd5b6000600360008373ffffffffffffffffffffffffffffffffffffffff1673ffffffffffffffffffffffffffffffffffffffff1681526020019081526020016000208054610a94906120dd565b90501415610ad7576040517f08c379a0000000000000000000000000000000000000000000000000000000008152600401610ace90611f68565b60405180910390fd5b600260009054906101000a900473ffffffffffffffffffffffffffffffffffffffff1673ffffffffffffffffffffffffffffffffffffffff168173ffffffffffffffffffffffffffffffffffffffff161415610b68576040517f08c379a0000000000000000000000000000000000000000000000000000000008152600401610b5f90611f48565b60405180910390fd5b6000600360008373ffffffffffffffffffffffffffffffffffffffff1673ffffffffffffffffffffffffffffffffffffffff1681526020019081526020016000208054610bb4906120dd565b80601f0160208091040260200160405190810160405280929190818152602001828054610be0906120dd565b8015610c2d5780601f10610c0257610100808354040283529160200191610c2d565b820191906000526020600020905b815481529060010190602001808311610c1057829003601f168201915b50505050509050600360008373ffffffffffffffffffffffffffffffffffffffff1673ffffffffffffffffffffffffffffffffffffffff1681526020019081526020016000206000610c7f9190611510565b7f9b2992e5da1bc41c25adb6a5dbd3cf942f925ce700d08684fb5807cb220386638282604051610cb0929190611d81565b60405180910390a15050565b600260009054906101000a900473ffffffffffffffffffffffffffffffffffffffff1673ffffffffffffffffffffffffffffffffffffffff163373ffffffffffffffffffffffffffffffffffffffff1614610d4c576040517f08c379a0000000000000000000000000000000000000000000000000000000008152600401610d4390611f28565b60405180910390fd5b6000600160009054906101000a900473ffffffffffffffffffffffffffffffffffffffff1673ffffffffffffffffffffffffffffffffffffffff166370a08231306040518263ffffffff1660e01b8152600401610da99190611c8f565b60206040518083038186803b158015610dc157600080fd5b505afa158015610dd5573d6000803e3d6000fd5b505050506040513d601f19601f82011682018060405250810190610df9919061187f565b905060008111610e3e576040517f08c379a0000000000000000000000000000000000000000000000000000000008152600401610e3590611e88565b60405180910390fd5b600160009054906101000a900473ffffffffffffffffffffffffffffffffffffffff1673ffffffffffffffffffffffffffffffffffffffff1663a9059cbb33836040518363ffffffff1660e01b8152600401610e9b929190611db1565b602060405180830381600087803b158015610eb557600080fd5b505af1158015610ec9573d6000803e3d6000fd5b505050506040513d601f19601f82011682018060405250810190610eed9190611771565b507f5732ed4206f25b13036055672fde80082b4bae54436e1da42b0016950c134bf230338342604051610f239493929190611cd3565b60405180910390a150565b6000600260009054906101000a900473ffffffffffffffffffffffffffffffffffffffff16905090565b600260009054906101000a900473ffffffffffffffffffffffffffffffffffffffff1673ffffffffffffffffffffffffffffffffffffffff163373ffffffffffffffffffffffffffffffffffffffff1614610fe8576040517f08c379a0000000000000000000000000000000000000000000000000000000008152600401610fdf90611f28565b60405180910390fd5b600260009054906101000a900473ffffffffffffffffffffffffffffffffffffffff1673ffffffffffffffffffffffffffffffffffffffff168173ffffffffffffffffffffffffffffffffffffffff161415611079576040517f08c379a000000000000000000000000000000000000000000000000000000000815260040161107090611e48565b60405180910390fd5b6000600260009054906101000a900473ffffffffffffffffffffffffffffffffffffffff169050600360008273ffffffffffffffffffffffffffffffffffffffff1673ffffffffffffffffffffffffffffffffffffffff16815260200190815260200160002060006110eb9190611510565b81600260006101000a81548173ffffffffffffffffffffffffffffffffffffffff021916908373ffffffffffffffffffffffffffffffffffffffff1602179055506040518060400160405280600b81526020017f4d696e696e674f776e6572000000000000000000000000000000000000000000815250600360008473ffffffffffffffffffffffffffffffffffffffff1673ffffffffffffffffffffffffffffffffffffffff16815260200190815260200160002090805190602001906111b4929190611550565b507f0c49d788b0226426d33921dabf37efc74c6b05960fea04f6aa68e303ed68a9bb81836040516111e6929190611caa565b60405180910390a15050565b600260009054906101000a900473ffffffffffffffffffffffffffffffffffffffff1673ffffffffffffffffffffffffffffffffffffffff163373ffffffffffffffffffffffffffffffffffffffff1614611282576040517f08c379a000000000000000000000000000000000000000000000000000000000815260040161127990611f28565b60405180910390fd5b3373ffffffffffffffffffffffffffffffffffffffff166108fc479081150290604051600060405180830381858888f193505050501580156112c8573d6000803e3d6000fd5b5060008081905550565b6000600160009054906101000a900473ffffffffffffffffffffffffffffffffffffffff1673ffffffffffffffffffffffffffffffffffffffff166370a08231306040518263ffffffff1660e01b815260040161132f9190611c8f565b60206040518083038186803b15801561134757600080fd5b505afa15801561135b573d6000803e3d6000fd5b505050506040513d601f19601f8201168201806040525081019061137f919061187f565b905090565b6000600160009054906101000a900473ffffffffffffffffffffffffffffffffffffffff16905090565b60008082905060005b855181101561147c5760008682815181106113fb577f4e487b7100000000000000000000000000000000000000000000000000000000600052603260045260246000fd5b6020026020010151905080831161143c57828160405160200161141f929190611c26565b604051602081830303815290604052805190602001209250611468565b808360405160200161144f929190611c26565b6040516020818303038152906040528051906020012092505b5080806114749061210f565b9150506113b7565b508381149150509392505050565b828054611496906120dd565b90600052602060002090601f0160209004810192826114b857600085556114ff565b82601f106114d157803560ff19168380011785556114ff565b828001600101855582156114ff579182015b828111156114fe5782358255916020019190600101906114e3565b5b50905061150c91906115d6565b5090565b50805461151c906120dd565b6000825580601f1061152e575061154d565b601f01602090049060005260206000209081019061154c91906115d6565b5b50565b82805461155c906120dd565b90600052602060002090601f01602090048101928261157e57600085556115c5565b82601f1061159757805160ff19168380011785556115c5565b828001600101855582156115c5579182015b828111156115c45782518255916020019190600101906115a9565b5b5090506115d291906115d6565b5090565b5b808211156115ef5760008160009055506001016115d7565b5090565b6000813590506116028161220c565b92915050565b60008083601f84011261161a57600080fd5b8235905067ffffffffffffffff81111561163357600080fd5b60208301915083602082028301111561164b57600080fd5b9250929050565b60008151905061166181612223565b92915050565b6000813590506116768161223a565b92915050565b60008083601f84011261168e57600080fd5b8235905067ffffffffffffffff8111156116a757600080fd5b6020830191508360018202830111156116bf57600080fd5b9250929050565b6000813590506116d581612251565b92915050565b6000815190506116ea81612251565b92915050565b60006020828403121561170257600080fd5b6000611710848285016115f3565b91505092915050565b60008060006040848603121561172e57600080fd5b600061173c868287016115f3565b935050602084013567ffffffffffffffff81111561175957600080fd5b6117658682870161167c565b92509250509250925092565b60006020828403121561178357600080fd5b600061179184828501611652565b91505092915050565b6000602082840312156117ac57600080fd5b60006117ba84828501611667565b91505092915050565b600080604083850312156117d657600080fd5b60006117e485828601611667565b92505060206117f5858286016116c6565b9150509250929050565b60008060008060006080868803121561181757600080fd5b600061182588828901611667565b9550506020611836888289016116c6565b9450506040611847888289016116c6565b935050606086013567ffffffffffffffff81111561186457600080fd5b61187088828901611608565b92509250509295509295909350565b60006020828403121561189157600080fd5b600061189f848285016116db565b91505092915050565b6118b181612049565b82525050565b6118c86118c382612049565b612158565b82525050565b6118d781612067565b82525050565b6118ee6118e982612067565b61216a565b82525050565b60006119008385611fae565b935061190d83858461209b565b611916836121ee565b840190509392505050565b600061192c82611fa3565b6119368185611fae565b93506119468185602086016120aa565b61194f816121ee565b840191505092915050565b6000611967602c83611fae565b91507f546865206e6577206f776e6572206d75737420626520646966666572656e742060008301527f66726f6d20746865206f6c6400000000000000000000000000000000000000006020830152604082019050919050565b60006119cd601c83611fae565b91507f546865206d65726b6c65526f6f7420646f65736e2774206578697374000000006000830152602082019050919050565b6000611a0d600a83611fae565b91507f4e6f2062616c616e6365000000000000000000000000000000000000000000006000830152602082019050919050565b6000611a4d600c83611fae565b91507f4e6f7420766572696669656400000000000000000000000000000000000000006000830152602082019050919050565b6000611a8d601283611fae565b91507f4e6f7420656e6f7567682062616c616e636500000000000000000000000000006000830152602082019050919050565b6000611acd600783611fae565b91507f4e6f206e616d65000000000000000000000000000000000000000000000000006000830152602082019050919050565b6000611b0d600f83611fae565b91507f416c726561647920636c61696d656400000000000000000000000000000000006000830152602082019050919050565b6000611b4d601083611fae565b91507f6f6e6c79204d696e696e674f776e6572000000000000000000000000000000006000830152602082019050919050565b6000611b8d601a83611fae565b91507f43616e206e6f742064656c657465204d696e696e674f776e65720000000000006000830152602082019050919050565b6000611bcd601083611fae565b91507f4e6f20737563682061206b6565706572000000000000000000000000000000006000830152602082019050919050565b611c0981612091565b82525050565b611c20611c1b82612091565b612186565b82525050565b6000611c3282856118dd565b602082019150611c4282846118dd565b6020820191508190509392505050565b6000611c5e8286611c0f565b602082019150611c6e82856118b7565b601482019150611c7e8284611c0f565b602082019150819050949350505050565b6000602082019050611ca460008301846118a8565b92915050565b6000604082019050611cbf60008301856118a8565b611ccc60208301846118a8565b9392505050565b6000608082019050611ce860008301876118a8565b611cf560208301866118a8565b611d026040830185611c00565b611d0f6060830184611c00565b95945050505050565b6000606082019050611d2d60008301866118a8565b611d3a60208301856118ce565b611d476040830184611c00565b949350505050565b6000604082019050611d6460008301866118a8565b8181036020830152611d778184866118f4565b9050949350505050565b6000604082019050611d9660008301856118a8565b8181036020830152611da88184611921565b90509392505050565b6000604082019050611dc660008301856118a8565b611dd36020830184611c00565b9392505050565b6000608082019050611def60008301876118ce565b611dfc60208301866118a8565b611e096040830185611c00565b611e166060830184611c00565b95945050505050565b6000604082019050611e3460008301856118ce565b611e416020830184611c00565b9392505050565b60006020820190508181036000830152611e618161195a565b9050919050565b60006020820190508181036000830152611e81816119c0565b9050919050565b60006020820190508181036000830152611ea181611a00565b9050919050565b60006020820190508181036000830152611ec181611a40565b9050919050565b60006020820190508181036000830152611ee181611a80565b9050919050565b60006020820190508181036000830152611f0181611ac0565b9050919050565b60006020820190508181036000830152611f2181611b00565b9050919050565b60006020820190508181036000830152611f4181611b40565b9050919050565b60006020820190508181036000830152611f6181611b80565b9050919050565b60006020820190508181036000830152611f8181611bc0565b9050919050565b6000602082019050611f9d6000830184611c00565b92915050565b600081519050919050565b600082825260208201905092915050565b6000611fca82612091565b9150611fd583612091565b9250827fffffffffffffffffffffffffffffffffffffffffffffffffffffffffffffffff0382111561200a57612009612190565b5b828201905092915050565b600061202082612091565b915061202b83612091565b92508282101561203e5761203d612190565b5b828203905092915050565b600061205482612071565b9050919050565b60008115159050919050565b6000819050919050565b600073ffffffffffffffffffffffffffffffffffffffff82169050919050565b6000819050919050565b82818337600083830152505050565b60005b838110156120c85780820151818401526020810190506120ad565b838111156120d7576000848401525b50505050565b600060028204905060018216806120f557607f821691505b60208210811415612109576121086121bf565b5b50919050565b600061211a82612091565b91507fffffffffffffffffffffffffffffffffffffffffffffffffffffffffffffffff82141561214d5761214c612190565b5b600182019050919050565b600061216382612174565b9050919050565b6000819050919050565b600061217f826121ff565b9050919050565b6000819050919050565b7f4e487b7100000000000000000000000000000000000000000000000000000000600052601160045260246000fd5b7f4e487b7100000000000000000000000000000000000000000000000000000000600052602260045260246000fd5b6000601f19601f8301169050919050565b60008160601b9050919050565b61221581612049565b811461222057600080fd5b50565b61222c8161205b565b811461223757600080fd5b50565b61224381612067565b811461224e57600080fd5b50565b61225a81612091565b811461226557600080fd5b5056fea264697066735822122091634f0e37f38052e41f40f69a34ec087fba83f64082016618d0387a470c579064736f6c63430008000033",
  "linkReferences": {},
  "deployedLinkReferences": {}
}