{
  "_format": "hh-sol-artifact-1",
  "contractName": "DAO",
  "sourceName": "assets/koa_static/contracts/v2/DAO.sol",
  "abi": [
    {
      "inputs": [
        {
          "internalType": "address",
          "name": "_MSNcontractAddr",
          "type": "address"
        },
        {
          "internalType": "uint256",
          "name": "_voter_hold_secs",
          "type": "uint256"
        }
      ],
      "stateMutability": "nonpayable",
      "type": "constructor"
    },
    {
      "anonymous": false,
      "inputs": [
        {
          "indexed": false,
          "internalType": "address",
          "name": "keeper_addr",
          "type": "address"
        },
        {
          "indexed": false,
          "internalType": "string",
          "name": "keeper_name",
          "type": "string"
        }
      ],
      "name": "add_keeper_EVENT",
      "type": "event"
    },
    {
      "anonymous": false,
      "inputs": [
        {
          "indexed": false,
          "internalType": "uint16",
          "name": "_pid",
          "type": "uint16"
        },
        {
          "indexed": false,
          "internalType": "address",
          "name": "_creator",
          "type": "address"
        },
        {
          "indexed": false,
          "internalType": "uint256",
          "name": "_startTime",
          "type": "uint256"
        },
        {
          "indexed": false,
          "internalType": "uint256",
          "name": "_endTime",
          "type": "uint256"
        }
      ],
      "name": "add_proposal_EVENT",
      "type": "event"
    },
    {
      "anonymous": false,
      "inputs": [
        {
          "indexed": false,
          "internalType": "address",
          "name": "oldOwner",
          "type": "address"
        },
        {
          "indexed": false,
          "internalType": "address",
          "name": "newOwner",
          "type": "address"
        }
      ],
      "name": "change_DAOOwner_EVENT",
      "type": "event"
    },
    {
      "anonymous": false,
      "inputs": [
        {
          "indexed": false,
          "internalType": "address",
          "name": "_from",
          "type": "address"
        },
        {
          "indexed": false,
          "internalType": "uint256",
          "name": "amount",
          "type": "uint256"
        }
      ],
      "name": "deposit_all_EVENT",
      "type": "event"
    },
    {
      "anonymous": false,
      "inputs": [
        {
          "indexed": false,
          "internalType": "address",
          "name": "keeper_addr",
          "type": "address"
        },
        {
          "indexed": false,
          "internalType": "string",
          "name": "keeper_name",
          "type": "string"
        }
      ],
      "name": "remove_keeper_EVENT",
      "type": "event"
    },
    {
      "anonymous": false,
      "inputs": [
        {
          "indexed": false,
          "internalType": "address",
          "name": "_from",
          "type": "address"
        },
        {
          "indexed": false,
          "internalType": "uint16",
          "name": "_pid",
          "type": "uint16"
        }
      ],
      "name": "remove_proposal_EVENT",
      "type": "event"
    },
    {
      "anonymous": false,
      "inputs": [
        {
          "indexed": false,
          "internalType": "uint16",
          "name": "_pid",
          "type": "uint16"
        },
        {
          "indexed": false,
          "internalType": "address",
          "name": "_voter",
          "type": "address"
        },
        {
          "indexed": false,
          "internalType": "uint8",
          "name": "_option",
          "type": "uint8"
        },
        {
          "indexed": false,
          "internalType": "uint256",
          "name": "_all_votes",
          "type": "uint256"
        },
        {
          "indexed": false,
          "internalType": "uint256",
          "name": "_vote_time",
          "type": "uint256"
        }
      ],
      "name": "vote_EVENT",
      "type": "event"
    },
    {
      "anonymous": false,
      "inputs": [
        {
          "indexed": false,
          "internalType": "address",
          "name": "_from",
          "type": "address"
        },
        {
          "indexed": false,
          "internalType": "uint256",
          "name": "amount",
          "type": "uint256"
        }
      ],
      "name": "voter_withdraw_all_EVENT",
      "type": "event"
    },
    {
      "anonymous": false,
      "inputs": [
        {
          "indexed": false,
          "internalType": "address",
          "name": "_from",
          "type": "address"
        },
        {
          "indexed": false,
          "internalType": "address",
          "name": "_to",
          "type": "address"
        },
        {
          "indexed": false,
          "internalType": "uint256",
          "name": "amount",
          "type": "uint256"
        },
        {
          "indexed": false,
          "internalType": "uint256",
          "name": "time",
          "type": "uint256"
        }
      ],
      "name": "withdraw_contract_EVENT",
      "type": "event"
    },
    {
      "stateMutability": "payable",
      "type": "fallback"
    },
    {
      "inputs": [
        {
          "internalType": "address",
          "name": "keeper_addr",
          "type": "address"
        },
        {
          "internalType": "string",
          "name": "keeper_name",
          "type": "string"
        }
      ],
      "name": "add_keeper",
      "outputs": [],
      "stateMutability": "nonpayable",
      "type": "function"
    },
    {
      "inputs": [
        {
          "internalType": "uint16",
          "name": "_pid",
          "type": "uint16"
        },
        {
          "internalType": "uint256",
          "name": "_startTime",
          "type": "uint256"
        },
        {
          "internalType": "uint256",
          "name": "_endTime",
          "type": "uint256"
        }
      ],
      "name": "add_proposal",
      "outputs": [],
      "stateMutability": "nonpayable",
      "type": "function"
    },
    {
      "inputs": [
        {
          "internalType": "address",
          "name": "_newOwner",
          "type": "address"
        }
      ],
      "name": "change_DAOOwner",
      "outputs": [],
      "stateMutability": "nonpayable",
      "type": "function"
    },
    {
      "inputs": [],
      "name": "deposit_all",
      "outputs": [],
      "stateMutability": "nonpayable",
      "type": "function"
    },
    {
      "inputs": [],
      "name": "get_DAOOwner",
      "outputs": [
        {
          "internalType": "address",
          "name": "",
          "type": "address"
        }
      ],
      "stateMutability": "view",
      "type": "function"
    },
    {
      "inputs": [],
      "name": "get_ProposalFolderUrl",
      "outputs": [
        {
          "internalType": "string",
          "name": "",
          "type": "string"
        }
      ],
      "stateMutability": "view",
      "type": "function"
    },
    {
      "inputs": [],
      "name": "get_deposit",
      "outputs": [
        {
          "internalType": "uint256",
          "name": "",
          "type": "uint256"
        }
      ],
      "stateMutability": "view",
      "type": "function"
    },
    {
      "inputs": [],
      "name": "get_deposit_lasttime",
      "outputs": [
        {
          "internalType": "uint256",
          "name": "",
          "type": "uint256"
        }
      ],
      "stateMutability": "view",
      "type": "function"
    },
    {
      "inputs": [
        {
          "internalType": "address",
          "name": "keeper_addr",
          "type": "address"
        }
      ],
      "name": "get_keeper_byte64",
      "outputs": [
        {
          "internalType": "string",
          "name": "",
          "type": "string"
        }
      ],
      "stateMutability": "view",
      "type": "function"
    },
    {
      "inputs": [
        {
          "internalType": "uint16",
          "name": "_pid",
          "type": "uint16"
        }
      ],
      "name": "get_proposal",
      "outputs": [
        {
          "internalType": "uint16",
          "name": "",
          "type": "uint16"
        },
        {
          "internalType": "address",
          "name": "",
          "type": "address"
        },
        {
          "internalType": "uint256",
          "name": "",
          "type": "uint256"
        },
        {
          "internalType": "uint256",
          "name": "",
          "type": "uint256"
        }
      ],
      "stateMutability": "view",
      "type": "function"
    },
    {
      "inputs": [
        {
          "internalType": "uint16",
          "name": "_pid",
          "type": "uint16"
        },
        {
          "internalType": "uint8",
          "name": "_option",
          "type": "uint8"
        }
      ],
      "name": "get_proposal_votes",
      "outputs": [
        {
          "internalType": "uint256",
          "name": "",
          "type": "uint256"
        }
      ],
      "stateMutability": "view",
      "type": "function"
    },
    {
      "inputs": [],
      "name": "get_voter_hold_secs",
      "outputs": [
        {
          "internalType": "uint256",
          "name": "",
          "type": "uint256"
        }
      ],
      "stateMutability": "view",
      "type": "function"
    },
    {
      "inputs": [
        {
          "internalType": "address",
          "name": "keeper_addr",
          "type": "address"
        }
      ],
      "name": "remove_keeper",
      "outputs": [],
      "stateMutability": "nonpayable",
      "type": "function"
    },
    {
      "inputs": [
        {
          "internalType": "uint16",
          "name": "_pid",
          "type": "uint16"
        }
      ],
      "name": "remove_proposal",
      "outputs": [],
      "stateMutability": "nonpayable",
      "type": "function"
    },
    {
      "inputs": [
        {
          "internalType": "string",
          "name": "_url",
          "type": "string"
        }
      ],
      "name": "set_ProposalFolderUrl",
      "outputs": [],
      "stateMutability": "nonpayable",
      "type": "function"
    },
    {
      "inputs": [
        {
          "internalType": "uint256",
          "name": "secs",
          "type": "uint256"
        }
      ],
      "name": "set_voter_hold_secs",
      "outputs": [],
      "stateMutability": "nonpayable",
      "type": "function"
    },
    {
      "inputs": [
        {
          "internalType": "uint16",
          "name": "_pid",
          "type": "uint16"
        },
        {
          "internalType": "uint8",
          "name": "_option",
          "type": "uint8"
        }
      ],
      "name": "vote",
      "outputs": [],
      "stateMutability": "nonpayable",
      "type": "function"
    },
    {
      "inputs": [],
      "name": "voter_withdraw_all",
      "outputs": [],
      "stateMutability": "nonpayable",
      "type": "function"
    },
    {
      "inputs": [],
      "name": "withdraw_contract",
      "outputs": [],
      "stateMutability": "nonpayable",
      "type": "function"
    },
    {
      "inputs": [],
      "name": "withdraw_eth",
      "outputs": [],
      "stateMutability": "nonpayable",
      "type": "function"
    },
    {
      "stateMutability": "payable",
      "type": "receive"
    }
  ],
  "bytecode": "0x60806040523480156200001157600080fd5b506040516200374438038062003744833981810160405281019062000037919062000231565b33600560006101000a81548173ffffffffffffffffffffffffffffffffffffffff021916908373ffffffffffffffffffffffffffffffffffffffff16021790555081600660006101000a81548173ffffffffffffffffffffffffffffffffffffffff021916908373ffffffffffffffffffffffffffffffffffffffff1602179055506040518060400160405280600881526020017f44414f4f776e6572000000000000000000000000000000000000000000000000815250600760003373ffffffffffffffffffffffffffffffffffffffff1673ffffffffffffffffffffffffffffffffffffffff16815260200190815260200160002090805190602001906200014392919062000153565b5080600a81905550505062000349565b8280546200016190620002b0565b90600052602060002090601f016020900481019282620001855760008555620001d1565b82601f10620001a057805160ff1916838001178555620001d1565b82800160010185558215620001d1579182015b82811115620001d0578251825591602001919060010190620001b3565b5b509050620001e09190620001e4565b5090565b5b80821115620001ff576000816000905550600101620001e5565b5090565b600081519050620002148162000315565b92915050565b6000815190506200022b816200032f565b92915050565b600080604083850312156200024557600080fd5b6000620002558582860162000203565b925050602062000268858286016200021a565b9150509250929050565b60006200027f8262000286565b9050919050565b600073ffffffffffffffffffffffffffffffffffffffff82169050919050565b6000819050919050565b60006002820490506001821680620002c957607f821691505b60208210811415620002e057620002df620002e6565b5b50919050565b7f4e487b7100000000000000000000000000000000000000000000000000000000600052602260045260246000fd5b620003208162000272565b81146200032c57600080fd5b50565b6200033a81620002a6565b81146200034657600080fd5b50565b6133eb80620003596000396000f3fe6080604052600436106101235760003560e01c8063b62854a1116100a0578063d872812711610064578063d8728127146103d2578063d92825e8146103fb578063f230398d14610426578063f59d88641461043d578063fe6854ab1461046857610142565b8063b62854a114610313578063bb2bafad14610350578063bc6715ad14610367578063d537b06014610392578063d6f8560d146103bb57610142565b806392ad40aa116100e757806392ad40aa1461023057806392ec504c1461026d578063947bdce214610296578063ab484661146102bf578063afa3a532146102e857610142565b806308eb9e301461015c578063267044e5146101875780633311b31f146101c757806333f1cddf146101f05780636144ce171461021957610142565b36610142573460008082825461013991906131a6565b92505081905550005b3460008082825461015391906131a6565b92505081905550005b34801561016857600080fd5b50610171610491565b60405161017e919061316f565b60405180910390f35b34801561019357600080fd5b506101ae60048036038101906101a991906125e1565b6104d8565b6040516101be94939291906130d7565b60405180910390f35b3480156101d357600080fd5b506101ee60048036038101906101e99190612695565b6105df565b005b3480156101fc57600080fd5b5061021760048036038101906102129190612659565b610679565b005b34801561022557600080fd5b5061022e610a8f565b005b34801561023c57600080fd5b50610257600480360381019061025291906124f2565b610cd5565b6040516102649190612e55565b60405180910390f35b34801561027957600080fd5b50610294600480360381019061028f919061251b565b610e35565b005b3480156102a257600080fd5b506102bd60048036038101906102b8919061259c565b610f9b565b005b3480156102cb57600080fd5b506102e660048036038101906102e191906124f2565b611041565b005b3480156102f457600080fd5b506102fd611345565b60405161030a9190612e55565b60405180910390f35b34801561031f57600080fd5b5061033a60048036038101906103359190612659565b6113d7565b604051610347919061316f565b60405180910390f35b34801561035c57600080fd5b50610365611487565b005b34801561037357600080fd5b5061037c6116f9565b604051610389919061316f565b60405180910390f35b34801561039e57600080fd5b506103b960048036038101906103b491906125e1565b611703565b005b3480156103c757600080fd5b506103d06119b0565b005b3480156103de57600080fd5b506103f960048036038101906103f491906124f2565b611a90565b005b34801561040757600080fd5b50610410611d2a565b60405161041d9190612ce1565b60405180910390f35b34801561043257600080fd5b5061043b611d54565b005b34801561044957600080fd5b50610452611fdb565b60405161045f919061316f565b60405180910390f35b34801561047457600080fd5b5061048f600480360381019061048a919061260a565b612022565b005b6000600960003373ffffffffffffffffffffffffffffffffffffffff1673ffffffffffffffffffffffffffffffffffffffff16815260200190815260200160002054905090565b6000806000806000600160008761ffff1661ffff16815260200190815260200160002060000160009054906101000a900461ffff1661ffff161415610552576040517f08c379a000000000000000000000000000000000000000000000000000000000815260040161054990613017565b60405180910390fd5b84600160008761ffff1661ffff16815260200190815260200160002060000160029054906101000a900473ffffffffffffffffffffffffffffffffffffffff16600160008861ffff1661ffff16815260200190815260200160002060010154600160008961ffff1661ffff1681526020019081526020016000206002015493509350935093509193509193565b600560009054906101000a900473ffffffffffffffffffffffffffffffffffffffff1673ffffffffffffffffffffffffffffffffffffffff163373ffffffffffffffffffffffffffffffffffffffff161461066f576040517f08c379a000000000000000000000000000000000000000000000000000000000815260040161066690613057565b60405180910390fd5b80600a8190555050565b60008261ffff16116106c0576040517f08c379a00000000000000000000000000000000000000000000000000000000081526004016106b790612ed7565b60405180910390fd5b6000600160008461ffff1661ffff16815260200190815260200160002060000160009054906101000a900461ffff1661ffff161415610734576040517f08c379a000000000000000000000000000000000000000000000000000000000815260040161072b90613017565b60405180910390fd5b42600160008461ffff1661ffff1681526020019081526020016000206001015410610794576040517f08c379a000000000000000000000000000000000000000000000000000000000815260040161078b90612f77565b60405180910390fd5b42600160008461ffff1661ffff16815260200190815260200160002060020154116107f4576040517f08c379a00000000000000000000000000000000000000000000000000000000081526004016107eb90612f97565b60405180910390fd5b6000600860003373ffffffffffffffffffffffffffffffffffffffff1673ffffffffffffffffffffffffffffffffffffffff1681526020019081526020016000205411610876576040517f08c379a000000000000000000000000000000000000000000000000000000000815260040161086d90613097565b60405180910390fd5b6000600360003373ffffffffffffffffffffffffffffffffffffffff1673ffffffffffffffffffffffffffffffffffffffff16815260200190815260200160002060008461ffff1661ffff16815260200190815260200160002060009054906101000a900460ff1660ff1614610921576040517f08c379a000000000000000000000000000000000000000000000000000000000815260040161091890612f37565b60405180910390fd5b80600360003373ffffffffffffffffffffffffffffffffffffffff1673ffffffffffffffffffffffffffffffffffffffff16815260200190815260200160002060008461ffff1661ffff16815260200190815260200160002060006101000a81548160ff021916908360ff160217905550600860003373ffffffffffffffffffffffffffffffffffffffff1673ffffffffffffffffffffffffffffffffffffffff16815260200190815260200160002054600260008461ffff1661ffff16815260200190815260200160002060008360ff1660ff1681526020019081526020016000206000828254610a1391906131a6565b925050819055507f909b1953fac84cc74bccb11279645a43902832fc4e964ac803667d3191f914b1823383600260008761ffff1661ffff16815260200190815260200160002060008660ff1660ff1681526020019081526020016000205442604051610a8395949392919061311c565b60405180910390a15050565b42600a54600960003373ffffffffffffffffffffffffffffffffffffffff1673ffffffffffffffffffffffffffffffffffffffff16815260200190815260200160002054610add91906131a6565b10610b1d576040517f08c379a0000000000000000000000000000000000000000000000000000000008152600401610b1490612fd7565b60405180910390fd5b6000600860003373ffffffffffffffffffffffffffffffffffffffff1673ffffffffffffffffffffffffffffffffffffffff16815260200190815260200160002054905060008111610ba4576040517f08c379a0000000000000000000000000000000000000000000000000000000008152600401610b9b90612eb7565b60405180910390fd5b6000600860003373ffffffffffffffffffffffffffffffffffffffff1673ffffffffffffffffffffffffffffffffffffffff16815260200190815260200160002081905550600660009054906101000a900473ffffffffffffffffffffffffffffffffffffffff1673ffffffffffffffffffffffffffffffffffffffff1663a9059cbb33836040518363ffffffff1660e01b8152600401610c46929190612e2c565b602060405180830381600087803b158015610c6057600080fd5b505af1158015610c74573d6000803e3d6000fd5b505050506040513d601f19601f82011682018060405250810190610c989190612573565b507f09ab713b552585b6ef79ed9ce9257e8b53ae85c020f783ef18ee03a7f51b3b0d3382604051610cca929190612e2c565b60405180910390a150565b60606000600760008473ffffffffffffffffffffffffffffffffffffffff1673ffffffffffffffffffffffffffffffffffffffff1681526020019081526020016000208054610d23906132a1565b90501415610d66576040517f08c379a0000000000000000000000000000000000000000000000000000000008152600401610d5d906130b7565b60405180910390fd5b600760008373ffffffffffffffffffffffffffffffffffffffff1673ffffffffffffffffffffffffffffffffffffffff1681526020019081526020016000208054610db0906132a1565b80601f0160208091040260200160405190810160405280929190818152602001828054610ddc906132a1565b8015610e295780601f10610dfe57610100808354040283529160200191610e29565b820191906000526020600020905b815481529060010190602001808311610e0c57829003601f168201915b50505050509050919050565b600560009054906101000a900473ffffffffffffffffffffffffffffffffffffffff1673ffffffffffffffffffffffffffffffffffffffff163373ffffffffffffffffffffffffffffffffffffffff1614610ec5576040517f08c379a0000000000000000000000000000000000000000000000000000000008152600401610ebc90613057565b60405180910390fd5b6000828290501415610f0c576040517f08c379a0000000000000000000000000000000000000000000000000000000008152600401610f0390612fb7565b60405180910390fd5b8181600760008673ffffffffffffffffffffffffffffffffffffffff1673ffffffffffffffffffffffffffffffffffffffff1681526020019081526020016000209190610f5a9291906122c1565b507f8ca452c843797be6692cd8cdd9050409a6d2bbfb1b3c748f0b5237fbdcdc1672838383604051610f8e93929190612da1565b60405180910390a1505050565b600560009054906101000a900473ffffffffffffffffffffffffffffffffffffffff1673ffffffffffffffffffffffffffffffffffffffff163373ffffffffffffffffffffffffffffffffffffffff161461102b576040517f08c379a000000000000000000000000000000000000000000000000000000000815260040161102290613057565b60405180910390fd5b81816004919061103c9291906122c1565b505050565b600560009054906101000a900473ffffffffffffffffffffffffffffffffffffffff1673ffffffffffffffffffffffffffffffffffffffff163373ffffffffffffffffffffffffffffffffffffffff16146110d1576040517f08c379a00000000000000000000000000000000000000000000000000000000081526004016110c890613057565b60405180910390fd5b6000600760008373ffffffffffffffffffffffffffffffffffffffff1673ffffffffffffffffffffffffffffffffffffffff168152602001908152602001600020805461111d906132a1565b90501415611160576040517f08c379a0000000000000000000000000000000000000000000000000000000008152600401611157906130b7565b60405180910390fd5b600560009054906101000a900473ffffffffffffffffffffffffffffffffffffffff1673ffffffffffffffffffffffffffffffffffffffff168173ffffffffffffffffffffffffffffffffffffffff1614156111f1576040517f08c379a00000000000000000000000000000000000000000000000000000000081526004016111e890612ff7565b60405180910390fd5b6000600760008373ffffffffffffffffffffffffffffffffffffffff1673ffffffffffffffffffffffffffffffffffffffff168152602001908152602001600020805461123d906132a1565b80601f0160208091040260200160405190810160405280929190818152602001828054611269906132a1565b80156112b65780601f1061128b576101008083540402835291602001916112b6565b820191906000526020600020905b81548152906001019060200180831161129957829003601f168201915b50505050509050600760008373ffffffffffffffffffffffffffffffffffffffff1673ffffffffffffffffffffffffffffffffffffffff16815260200190815260200160002060006113089190612347565b7f9b2992e5da1bc41c25adb6a5dbd3cf942f925ce700d08684fb5807cb220386638282604051611339929190612dd3565b60405180910390a15050565b606060048054611354906132a1565b80601f0160208091040260200160405190810160405280929190818152602001828054611380906132a1565b80156113cd5780601f106113a2576101008083540402835291602001916113cd565b820191906000526020600020905b8154815290600101906020018083116113b057829003601f168201915b5050505050905090565b600080600160008561ffff1661ffff16815260200190815260200160002060000160009054906101000a900461ffff1661ffff16141561144c576040517f08c379a000000000000000000000000000000000000000000000000000000000815260040161144390613017565b60405180910390fd5b600260008461ffff1661ffff16815260200190815260200160002060008360ff1660ff16815260200190815260200160002054905092915050565b600560009054906101000a900473ffffffffffffffffffffffffffffffffffffffff1673ffffffffffffffffffffffffffffffffffffffff163373ffffffffffffffffffffffffffffffffffffffff1614611517576040517f08c379a000000000000000000000000000000000000000000000000000000000815260040161150e90613057565b60405180910390fd5b6000600660009054906101000a900473ffffffffffffffffffffffffffffffffffffffff1673ffffffffffffffffffffffffffffffffffffffff166370a08231306040518263ffffffff1660e01b81526004016115749190612ce1565b60206040518083038186803b15801561158c57600080fd5b505afa1580156115a0573d6000803e3d6000fd5b505050506040513d601f19601f820116820180604052508101906115c491906126be565b905060008111611609576040517f08c379a000000000000000000000000000000000000000000000000000000000815260040161160090612f57565b60405180910390fd5b600660009054906101000a900473ffffffffffffffffffffffffffffffffffffffff1673ffffffffffffffffffffffffffffffffffffffff1663a9059cbb33836040518363ffffffff1660e01b8152600401611666929190612e2c565b602060405180830381600087803b15801561168057600080fd5b505af1158015611694573d6000803e3d6000fd5b505050506040513d601f19601f820116820180604052508101906116b89190612573565b507f5732ed4206f25b13036055672fde80082b4bae54436e1da42b0016950c134bf2303383426040516116ee9493929190612d5c565b60405180910390a150565b6000600a54905090565b6000600760003373ffffffffffffffffffffffffffffffffffffffff1673ffffffffffffffffffffffffffffffffffffffff168152602001908152602001600020805461174f906132a1565b90501415611792576040517f08c379a000000000000000000000000000000000000000000000000000000000815260040161178990613077565b60405180910390fd5b6000600160008361ffff1661ffff16815260200190815260200160002060000160009054906101000a900461ffff1661ffff161415611806576040517f08c379a00000000000000000000000000000000000000000000000000000000081526004016117fd90613017565b60405180910390fd5b3373ffffffffffffffffffffffffffffffffffffffff16600160008361ffff1661ffff16815260200190815260200160002060000160029054906101000a900473ffffffffffffffffffffffffffffffffffffffff1673ffffffffffffffffffffffffffffffffffffffff1614806118cb5750600560009054906101000a900473ffffffffffffffffffffffffffffffffffffffff1673ffffffffffffffffffffffffffffffffffffffff163373ffffffffffffffffffffffffffffffffffffffff16145b61190a576040517f08c379a000000000000000000000000000000000000000000000000000000000815260040161190190612f17565b60405180910390fd5b600160008261ffff1661ffff168152602001908152602001600020600080820160006101000a81549061ffff02191690556000820160026101000a81549073ffffffffffffffffffffffffffffffffffffffff02191690556001820160009055600282016000905550507f11cf61ebfe8999fdc37397ac313cbbe0a3122b1a9e73df76da7ae63c8cb0fafb33826040516119a5929190612e03565b60405180910390a150565b600560009054906101000a900473ffffffffffffffffffffffffffffffffffffffff1673ffffffffffffffffffffffffffffffffffffffff163373ffffffffffffffffffffffffffffffffffffffff1614611a40576040517f08c379a0000000000000000000000000000000000000000000000000000000008152600401611a3790613057565b60405180910390fd5b3373ffffffffffffffffffffffffffffffffffffffff166108fc479081150290604051600060405180830381858888f19350505050158015611a86573d6000803e3d6000fd5b5060008081905550565b600560009054906101000a900473ffffffffffffffffffffffffffffffffffffffff1673ffffffffffffffffffffffffffffffffffffffff163373ffffffffffffffffffffffffffffffffffffffff1614611b20576040517f08c379a0000000000000000000000000000000000000000000000000000000008152600401611b1790613057565b60405180910390fd5b600560009054906101000a900473ffffffffffffffffffffffffffffffffffffffff1673ffffffffffffffffffffffffffffffffffffffff168173ffffffffffffffffffffffffffffffffffffffff161415611bb1576040517f08c379a0000000000000000000000000000000000000000000000000000000008152600401611ba890612ef7565b60405180910390fd5b6000600560009054906101000a900473ffffffffffffffffffffffffffffffffffffffff169050600760008273ffffffffffffffffffffffffffffffffffffffff1673ffffffffffffffffffffffffffffffffffffffff1681526020019081526020016000206000611c239190612347565b81600560006101000a81548173ffffffffffffffffffffffffffffffffffffffff021916908373ffffffffffffffffffffffffffffffffffffffff1602179055506040518060400160405280600881526020017f44414f4f776e6572000000000000000000000000000000000000000000000000815250600760008473ffffffffffffffffffffffffffffffffffffffff1673ffffffffffffffffffffffffffffffffffffffff1681526020019081526020016000209080519060200190611cec929190612387565b507ff99319b1b81f5cbf8a3eb38e78de155c31e88c6ce1b4512d9a35cfb6671bcbf58183604051611d1e929190612cfc565b60405180910390a15050565b6000600560009054906101000a900473ffffffffffffffffffffffffffffffffffffffff16905090565b6000600660009054906101000a900473ffffffffffffffffffffffffffffffffffffffff1673ffffffffffffffffffffffffffffffffffffffff1663dd62ed3e33306040518363ffffffff1660e01b8152600401611db3929190612cfc565b60206040518083038186803b158015611dcb57600080fd5b505afa158015611ddf573d6000803e3d6000fd5b505050506040513d601f19601f82011682018060405250810190611e0391906126be565b905060008111611e48576040517f08c379a0000000000000000000000000000000000000000000000000000000008152600401611e3f90613097565b60405180910390fd5b6000600660009054906101000a900473ffffffffffffffffffffffffffffffffffffffff1673ffffffffffffffffffffffffffffffffffffffff166323b872dd3330856040518463ffffffff1660e01b8152600401611ea993929190612d25565b602060405180830381600087803b158015611ec357600080fd5b505af1158015611ed7573d6000803e3d6000fd5b505050506040513d601f19601f82011682018060405250810190611efb9190612573565b90508015611fd75781600860003373ffffffffffffffffffffffffffffffffffffffff1673ffffffffffffffffffffffffffffffffffffffff1681526020019081526020016000206000828254611f5291906131a6565b9250508190555042600960003373ffffffffffffffffffffffffffffffffffffffff1673ffffffffffffffffffffffffffffffffffffffff168152602001908152602001600020819055507f4c4f7706ac6ef21f208737026c865e211a90da8dc0c79167039949d3b15981f63383604051611fce929190612e2c565b60405180910390a15b5050565b6000600860003373ffffffffffffffffffffffffffffffffffffffff1673ffffffffffffffffffffffffffffffffffffffff16815260200190815260200160002054905090565b6000600760003373ffffffffffffffffffffffffffffffffffffffff1673ffffffffffffffffffffffffffffffffffffffff168152602001908152602001600020805461206e906132a1565b905014156120b1576040517f08c379a00000000000000000000000000000000000000000000000000000000081526004016120a890613077565b60405180910390fd5b6000600160008561ffff1661ffff16815260200190815260200160002060000160009054906101000a900461ffff1661ffff1614612124576040517f08c379a000000000000000000000000000000000000000000000000000000000815260040161211b90612e77565b60405180910390fd5b428111612166576040517f08c379a000000000000000000000000000000000000000000000000000000000815260040161215d90612e97565b60405180910390fd5b8082106121a8576040517f08c379a000000000000000000000000000000000000000000000000000000000815260040161219f90613037565b60405180910390fd5b60405180608001604052808461ffff1681526020013373ffffffffffffffffffffffffffffffffffffffff16815260200183815260200182815250600160008561ffff1661ffff16815260200190815260200160002060008201518160000160006101000a81548161ffff021916908361ffff16021790555060208201518160000160026101000a81548173ffffffffffffffffffffffffffffffffffffffff021916908373ffffffffffffffffffffffffffffffffffffffff16021790555060408201518160010155606082015181600201559050507f88191da23db9896fd24ecf6084733b0d6c8f5f14e1b55c4ef732dc2f5baee17c833384846040516122b494939291906130d7565b60405180910390a1505050565b8280546122cd906132a1565b90600052602060002090601f0160209004810192826122ef5760008555612336565b82601f1061230857803560ff1916838001178555612336565b82800160010185558215612336579182015b8281111561233557823582559160200191906001019061231a565b5b509050612343919061240d565b5090565b508054612353906132a1565b6000825580601f106123655750612384565b601f016020900490600052602060002090810190612383919061240d565b5b50565b828054612393906132a1565b90600052602060002090601f0160209004810192826123b557600085556123fc565b82601f106123ce57805160ff19168380011785556123fc565b828001600101855582156123fc579182015b828111156123fb5782518255916020019190600101906123e0565b5b509050612409919061240d565b5090565b5b8082111561242657600081600090555060010161240e565b5090565b60008135905061243981613342565b92915050565b60008151905061244e81613359565b92915050565b60008083601f84011261246657600080fd5b8235905067ffffffffffffffff81111561247f57600080fd5b60208301915083600182028301111561249757600080fd5b9250929050565b6000813590506124ad81613370565b92915050565b6000813590506124c281613387565b92915050565b6000815190506124d781613387565b92915050565b6000813590506124ec8161339e565b92915050565b60006020828403121561250457600080fd5b60006125128482850161242a565b91505092915050565b60008060006040848603121561253057600080fd5b600061253e8682870161242a565b935050602084013567ffffffffffffffff81111561255b57600080fd5b61256786828701612454565b92509250509250925092565b60006020828403121561258557600080fd5b60006125938482850161243f565b91505092915050565b600080602083850312156125af57600080fd5b600083013567ffffffffffffffff8111156125c957600080fd5b6125d585828601612454565b92509250509250929050565b6000602082840312156125f357600080fd5b60006126018482850161249e565b91505092915050565b60008060006060848603121561261f57600080fd5b600061262d8682870161249e565b935050602061263e868287016124b3565b925050604061264f868287016124b3565b9150509250925092565b6000806040838503121561266c57600080fd5b600061267a8582860161249e565b925050602061268b858286016124dd565b9150509250929050565b6000602082840312156126a757600080fd5b60006126b5848285016124b3565b91505092915050565b6000602082840312156126d057600080fd5b60006126de848285016124c8565b91505092915050565b6126f0816131fc565b82525050565b60006127028385613195565b935061270f83858461325f565b61271883613331565b840190509392505050565b600061272e8261318a565b6127388185613195565b935061274881856020860161326e565b61275181613331565b840191505092915050565b6000612769601b83613195565b91507f5468652070726f706f73616c20616c72656164792065786973747300000000006000830152602082019050919050565b60006127a9602583613195565b91507f456e6454696d65206d75737420626520626967676572207468616e20626c6f6360008301527f6b74696d650000000000000000000000000000000000000000000000000000006020830152604082019050919050565b600061280f600b83613195565b91507f204e6f206465706f7369740000000000000000000000000000000000000000006000830152602082019050919050565b600061284f601783613195565b91507f5069642073686f756c642073746172742066726f6d20310000000000000000006000830152602082019050919050565b600061288f602c83613195565b91507f546865206e6577206f776e6572206d75737420626520646966666572656e742060008301527f66726f6d20746865206f6c6400000000000000000000000000000000000000006020830152604082019050919050565b60006128f5602483613195565b91507f4e6f207065726d697373696f6e20746f2072656d6f7665207468652070726f7060008301527f6f73616c000000000000000000000000000000000000000000000000000000006020830152604082019050919050565b600061295b600d83613195565b91507f566f74656420616c7265616479000000000000000000000000000000000000006000830152602082019050919050565b600061299b600a83613195565b91507f4e6f2042616c616e6365000000000000000000000000000000000000000000006000830152602082019050919050565b60006129db601e83613195565b91507f5468652070726f706f73616c20646f65736e27742073746172742079657400006000830152602082019050919050565b6000612a1b602083613195565b91507f5468652070726f706f73616c20616c726561647920656e647320766f74696e676000830152602082019050919050565b6000612a5b600783613195565b91507f4e6f206e616d65000000000000000000000000000000000000000000000000006000830152602082019050919050565b6000612a9b600f83613195565b91507f4e6f7420656e6f7567682074696d6500000000000000000000000000000000006000830152602082019050919050565b6000612adb601783613195565b91507f43616e206e6f742064656c6574652044414f4f776e65720000000000000000006000830152602082019050919050565b6000612b1b601a83613195565b91507f5468652070726f706f73616c20646f65736e27742065786973740000000000006000830152602082019050919050565b6000612b5b602683613195565b91507f537461727454696d65206d75737420626520736d616c6c6572207468616e206560008301527f6e6454696d6500000000000000000000000000000000000000000000000000006020830152604082019050919050565b6000612bc1600d83613195565b91507f4f6e6c792044414f4f776e6572000000000000000000000000000000000000006000830152602082019050919050565b6000612c01601083613195565b91507f4e6f20737563682061204b6565706572000000000000000000000000000000006000830152602082019050919050565b6000612c41600a83613195565b91507f4e6f206465706f736974000000000000000000000000000000000000000000006000830152602082019050919050565b6000612c81601083613195565b91507f4e6f20737563682061206b6565706572000000000000000000000000000000006000830152602082019050919050565b612cbd8161321a565b82525050565b612ccc81613248565b82525050565b612cdb81613252565b82525050565b6000602082019050612cf660008301846126e7565b92915050565b6000604082019050612d1160008301856126e7565b612d1e60208301846126e7565b9392505050565b6000606082019050612d3a60008301866126e7565b612d4760208301856126e7565b612d546040830184612cc3565b949350505050565b6000608082019050612d7160008301876126e7565b612d7e60208301866126e7565b612d8b6040830185612cc3565b612d986060830184612cc3565b95945050505050565b6000604082019050612db660008301866126e7565b8181036020830152612dc98184866126f6565b9050949350505050565b6000604082019050612de860008301856126e7565b8181036020830152612dfa8184612723565b90509392505050565b6000604082019050612e1860008301856126e7565b612e256020830184612cb4565b9392505050565b6000604082019050612e4160008301856126e7565b612e4e6020830184612cc3565b9392505050565b60006020820190508181036000830152612e6f8184612723565b905092915050565b60006020820190508181036000830152612e908161275c565b9050919050565b60006020820190508181036000830152612eb08161279c565b9050919050565b60006020820190508181036000830152612ed081612802565b9050919050565b60006020820190508181036000830152612ef081612842565b9050919050565b60006020820190508181036000830152612f1081612882565b9050919050565b60006020820190508181036000830152612f30816128e8565b9050919050565b60006020820190508181036000830152612f508161294e565b9050919050565b60006020820190508181036000830152612f708161298e565b9050919050565b60006020820190508181036000830152612f90816129ce565b9050919050565b60006020820190508181036000830152612fb081612a0e565b9050919050565b60006020820190508181036000830152612fd081612a4e565b9050919050565b60006020820190508181036000830152612ff081612a8e565b9050919050565b6000602082019050818103600083015261301081612ace565b9050919050565b6000602082019050818103600083015261303081612b0e565b9050919050565b6000602082019050818103600083015261305081612b4e565b9050919050565b6000602082019050818103600083015261307081612bb4565b9050919050565b6000602082019050818103600083015261309081612bf4565b9050919050565b600060208201905081810360008301526130b081612c34565b9050919050565b600060208201905081810360008301526130d081612c74565b9050919050565b60006080820190506130ec6000830187612cb4565b6130f960208301866126e7565b6131066040830185612cc3565b6131136060830184612cc3565b95945050505050565b600060a0820190506131316000830188612cb4565b61313e60208301876126e7565b61314b6040830186612cd2565b6131586060830185612cc3565b6131656080830184612cc3565b9695505050505050565b60006020820190506131846000830184612cc3565b92915050565b600081519050919050565b600082825260208201905092915050565b60006131b182613248565b91506131bc83613248565b9250827fffffffffffffffffffffffffffffffffffffffffffffffffffffffffffffffff038211156131f1576131f06132d3565b5b828201905092915050565b600061320782613228565b9050919050565b60008115159050919050565b600061ffff82169050919050565b600073ffffffffffffffffffffffffffffffffffffffff82169050919050565b6000819050919050565b600060ff82169050919050565b82818337600083830152505050565b60005b8381101561328c578082015181840152602081019050613271565b8381111561329b576000848401525b50505050565b600060028204905060018216806132b957607f821691505b602082108114156132cd576132cc613302565b5b50919050565b7f4e487b7100000000000000000000000000000000000000000000000000000000600052601160045260246000fd5b7f4e487b7100000000000000000000000000000000000000000000000000000000600052602260045260246000fd5b6000601f19601f8301169050919050565b61334b816131fc565b811461335657600080fd5b50565b6133628161320e565b811461336d57600080fd5b50565b6133798161321a565b811461338457600080fd5b50565b61339081613248565b811461339b57600080fd5b50565b6133a781613252565b81146133b257600080fd5b5056fea26469706673582212202630acbade07a0083f289516dc7b47080daa07fad2bb4904bba57ea8cf39389764736f6c63430008000033",
  "linkReferences": {},
  "deployedLinkReferences": {}
}