{
  "_format": "hh-sol-artifact-1",
  "contractName": "MSN",
  "sourceName": "assets/koa_static/contracts/v2/MSN.sol",
  "abi": [
    {
      "inputs": [
        {
          "internalType": "string",
          "name": "name",
          "type": "string"
        },
        {
          "internalType": "string",
          "name": "symbol",
          "type": "string"
        },
        {
          "internalType": "uint256",
          "name": "inisupply",
          "type": "uint256"
        }
      ],
      "stateMutability": "nonpayable",
      "type": "constructor"
    },
    {
      "anonymous": false,
      "inputs": [
        {
          "indexed": true,
          "internalType": "address",
          "name": "owner",
          "type": "address"
        },
        {
          "indexed": true,
          "internalType": "address",
          "name": "spender",
          "type": "address"
        },
        {
          "indexed": false,
          "internalType": "uint256",
          "name": "value",
          "type": "uint256"
        }
      ],
      "name": "Approval",
      "type": "event"
    },
    {
      "anonymous": false,
      "inputs": [
        {
          "indexed": true,
          "internalType": "address",
          "name": "from",
          "type": "address"
        },
        {
          "indexed": true,
          "internalType": "address",
          "name": "to",
          "type": "address"
        },
        {
          "indexed": false,
          "internalType": "uint256",
          "name": "value",
          "type": "uint256"
        }
      ],
      "name": "Transfer",
      "type": "event"
    },
    {
      "anonymous": false,
      "inputs": [
        {
          "indexed": false,
          "internalType": "address",
          "name": "special_addr",
          "type": "address"
        },
        {
          "indexed": false,
          "internalType": "uint8",
          "name": "_id",
          "type": "uint8"
        }
      ],
      "name": "add_special_EVENT",
      "type": "event"
    },
    {
      "anonymous": false,
      "inputs": [
        {
          "indexed": false,
          "internalType": "address",
          "name": "_from",
          "type": "address"
        },
        {
          "indexed": false,
          "internalType": "uint256",
          "name": "amount",
          "type": "uint256"
        }
      ],
      "name": "burn_EVENT",
      "type": "event"
    },
    {
      "anonymous": false,
      "inputs": [
        {
          "indexed": false,
          "internalType": "address",
          "name": "_from",
          "type": "address"
        },
        {
          "indexed": false,
          "internalType": "uint256",
          "name": "amount",
          "type": "uint256"
        }
      ],
      "name": "mint_EVENT",
      "type": "event"
    },
    {
      "anonymous": false,
      "inputs": [
        {
          "indexed": false,
          "internalType": "address",
          "name": "special_addr",
          "type": "address"
        },
        {
          "indexed": false,
          "internalType": "uint16",
          "name": "_special_id",
          "type": "uint16"
        }
      ],
      "name": "remove_special_EVENT",
      "type": "event"
    },
    {
      "anonymous": false,
      "inputs": [
        {
          "indexed": false,
          "internalType": "address",
          "name": "_sender",
          "type": "address"
        },
        {
          "indexed": false,
          "internalType": "address",
          "name": "_recipient",
          "type": "address"
        },
        {
          "indexed": false,
          "internalType": "uint256",
          "name": "_amount",
          "type": "uint256"
        },
        {
          "indexed": false,
          "internalType": "uint256",
          "name": "_blocktime",
          "type": "uint256"
        }
      ],
      "name": "special_transfer_EVENT",
      "type": "event"
    },
    {
      "stateMutability": "payable",
      "type": "fallback"
    },
    {
      "inputs": [
        {
          "internalType": "address",
          "name": "special_addr",
          "type": "address"
        },
        {
          "internalType": "uint8",
          "name": "_id",
          "type": "uint8"
        }
      ],
      "name": "add_special",
      "outputs": [],
      "stateMutability": "nonpayable",
      "type": "function"
    },
    {
      "inputs": [
        {
          "internalType": "address",
          "name": "owner",
          "type": "address"
        },
        {
          "internalType": "address",
          "name": "spender",
          "type": "address"
        }
      ],
      "name": "allowance",
      "outputs": [
        {
          "internalType": "uint256",
          "name": "",
          "type": "uint256"
        }
      ],
      "stateMutability": "view",
      "type": "function"
    },
    {
      "inputs": [
        {
          "internalType": "address",
          "name": "spender",
          "type": "address"
        },
        {
          "internalType": "uint256",
          "name": "amount",
          "type": "uint256"
        }
      ],
      "name": "approve",
      "outputs": [
        {
          "internalType": "bool",
          "name": "",
          "type": "bool"
        }
      ],
      "stateMutability": "nonpayable",
      "type": "function"
    },
    {
      "inputs": [
        {
          "internalType": "address",
          "name": "account",
          "type": "address"
        }
      ],
      "name": "balanceOf",
      "outputs": [
        {
          "internalType": "uint256",
          "name": "",
          "type": "uint256"
        }
      ],
      "stateMutability": "view",
      "type": "function"
    },
    {
      "inputs": [
        {
          "internalType": "uint256",
          "name": "amount",
          "type": "uint256"
        }
      ],
      "name": "burn",
      "outputs": [],
      "stateMutability": "nonpayable",
      "type": "function"
    },
    {
      "inputs": [],
      "name": "decimals",
      "outputs": [
        {
          "internalType": "uint8",
          "name": "",
          "type": "uint8"
        }
      ],
      "stateMutability": "view",
      "type": "function"
    },
    {
      "inputs": [
        {
          "internalType": "address",
          "name": "spender",
          "type": "address"
        },
        {
          "internalType": "uint256",
          "name": "subtractedValue",
          "type": "uint256"
        }
      ],
      "name": "decreaseAllowance",
      "outputs": [
        {
          "internalType": "bool",
          "name": "",
          "type": "bool"
        }
      ],
      "stateMutability": "nonpayable",
      "type": "function"
    },
    {
      "inputs": [],
      "name": "get_exchange_open",
      "outputs": [
        {
          "internalType": "bool",
          "name": "",
          "type": "bool"
        }
      ],
      "stateMutability": "view",
      "type": "function"
    },
    {
      "inputs": [
        {
          "internalType": "address",
          "name": "special_addr",
          "type": "address"
        }
      ],
      "name": "get_special",
      "outputs": [
        {
          "internalType": "uint16",
          "name": "",
          "type": "uint16"
        }
      ],
      "stateMutability": "view",
      "type": "function"
    },
    {
      "inputs": [
        {
          "internalType": "address",
          "name": "spender",
          "type": "address"
        },
        {
          "internalType": "uint256",
          "name": "addedValue",
          "type": "uint256"
        }
      ],
      "name": "increaseAllowance",
      "outputs": [
        {
          "internalType": "bool",
          "name": "",
          "type": "bool"
        }
      ],
      "stateMutability": "nonpayable",
      "type": "function"
    },
    {
      "inputs": [
        {
          "internalType": "uint256",
          "name": "amount",
          "type": "uint256"
        }
      ],
      "name": "mint",
      "outputs": [],
      "stateMutability": "nonpayable",
      "type": "function"
    },
    {
      "inputs": [],
      "name": "name",
      "outputs": [
        {
          "internalType": "string",
          "name": "",
          "type": "string"
        }
      ],
      "stateMutability": "view",
      "type": "function"
    },
    {
      "inputs": [
        {
          "internalType": "address",
          "name": "special_addr",
          "type": "address"
        }
      ],
      "name": "remove_special",
      "outputs": [],
      "stateMutability": "nonpayable",
      "type": "function"
    },
    {
      "inputs": [
        {
          "internalType": "bool",
          "name": "_exchange_open",
          "type": "bool"
        }
      ],
      "name": "set_exchange_open",
      "outputs": [],
      "stateMutability": "nonpayable",
      "type": "function"
    },
    {
      "inputs": [],
      "name": "symbol",
      "outputs": [
        {
          "internalType": "string",
          "name": "",
          "type": "string"
        }
      ],
      "stateMutability": "view",
      "type": "function"
    },
    {
      "inputs": [],
      "name": "totalSupply",
      "outputs": [
        {
          "internalType": "uint256",
          "name": "",
          "type": "uint256"
        }
      ],
      "stateMutability": "view",
      "type": "function"
    },
    {
      "inputs": [
        {
          "internalType": "address",
          "name": "recipient",
          "type": "address"
        },
        {
          "internalType": "uint256",
          "name": "amount",
          "type": "uint256"
        }
      ],
      "name": "transfer",
      "outputs": [
        {
          "internalType": "bool",
          "name": "",
          "type": "bool"
        }
      ],
      "stateMutability": "nonpayable",
      "type": "function"
    },
    {
      "inputs": [
        {
          "internalType": "address",
          "name": "sender",
          "type": "address"
        },
        {
          "internalType": "address",
          "name": "recipient",
          "type": "address"
        },
        {
          "internalType": "uint256",
          "name": "amount",
          "type": "uint256"
        }
      ],
      "name": "transferFrom",
      "outputs": [
        {
          "internalType": "bool",
          "name": "",
          "type": "bool"
        }
      ],
      "stateMutability": "nonpayable",
      "type": "function"
    },
    {
      "inputs": [],
      "name": "withdraw_eth",
      "outputs": [],
      "stateMutability": "nonpayable",
      "type": "function"
    },
    {
      "stateMutability": "payable",
      "type": "receive"
    }
  ],
  "bytecode": "0x60806040523480156200001157600080fd5b506040516200329738038062003297833981810160405281019062000037919062000431565b8282816003908051906020019062000051929190620002f8565b5080600490805190602001906200006a929190620002f8565b50505033600660006101000a81548173ffffffffffffffffffffffffffffffffffffffff021916908373ffffffffffffffffffffffffffffffffffffffff1602179055506001600760003373ffffffffffffffffffffffffffffffffffffffff1673ffffffffffffffffffffffffffffffffffffffff16815260200190815260200160002060006101000a81548161ffff021916908361ffff1602179055506000600660146101000a81548160ff0219169083151502179055506200016333620001396200016c60201b60201c565b60ff16600a6200014a91906200067b565b83620001579190620007b8565b6200017560201b60201c565b50505062000943565b60006012905090565b600073ffffffffffffffffffffffffffffffffffffffff168273ffffffffffffffffffffffffffffffffffffffff161415620001e8576040517f08c379a0000000000000000000000000000000000000000000000000000000008152600401620001df906200050c565b60405180910390fd5b620001fc60008383620002ee60201b60201c565b8060026000828254620002109190620005c3565b92505081905550806000808473ffffffffffffffffffffffffffffffffffffffff1673ffffffffffffffffffffffffffffffffffffffff1681526020019081526020016000206000828254620002679190620005c3565b925050819055508173ffffffffffffffffffffffffffffffffffffffff16600073ffffffffffffffffffffffffffffffffffffffff167fddf252ad1be2c89b69c2b068fc378daa952ba7f163c4a11628f55a4df523b3ef83604051620002ce91906200052e565b60405180910390a3620002ea60008383620002f360201b60201c565b5050565b505050565b505050565b828054620003069062000859565b90600052602060002090601f0160209004810192826200032a576000855562000376565b82601f106200034557805160ff191683800117855562000376565b8280016001018555821562000376579182015b828111156200037557825182559160200191906001019062000358565b5b50905062000385919062000389565b5090565b5b80821115620003a45760008160009055506001016200038a565b5090565b6000620003bf620003b9846200057f565b6200054b565b905082815260208101848484011115620003d857600080fd5b620003e584828562000823565b509392505050565b600082601f830112620003ff57600080fd5b815162000411848260208601620003a8565b91505092915050565b6000815190506200042b8162000929565b92915050565b6000806000606084860312156200044757600080fd5b600084015167ffffffffffffffff8111156200046257600080fd5b6200047086828701620003ed565b935050602084015167ffffffffffffffff8111156200048e57600080fd5b6200049c86828701620003ed565b9250506040620004af868287016200041a565b9150509250925092565b6000620004c8601f83620005b2565b91507f45524332303a206d696e7420746f20746865207a65726f2061646472657373006000830152602082019050919050565b620005068162000819565b82525050565b600060208201905081810360008301526200052781620004b9565b9050919050565b6000602082019050620005456000830184620004fb565b92915050565b6000604051905081810181811067ffffffffffffffff82111715620005755762000574620008ed565b5b8060405250919050565b600067ffffffffffffffff8211156200059d576200059c620008ed565b5b601f19601f8301169050602081019050919050565b600082825260208201905092915050565b6000620005d08262000819565b9150620005dd8362000819565b9250827fffffffffffffffffffffffffffffffffffffffffffffffffffffffffffffffff038211156200061557620006146200088f565b5b828201905092915050565b6000808291508390505b600185111562000672578086048111156200064a57620006496200088f565b5b60018516156200065a5780820291505b80810290506200066a856200091c565b94506200062a565b94509492505050565b6000620006888262000819565b9150620006958362000819565b9250620006c47fffffffffffffffffffffffffffffffffffffffffffffffffffffffffffffffff8484620006cc565b905092915050565b600082620006de5760019050620007b1565b81620006ee5760009050620007b1565b8160018114620007075760028114620007125762000748565b6001915050620007b1565b60ff8411156200072757620007266200088f565b5b8360020a9150848211156200074157620007406200088f565b5b50620007b1565b5060208310610133831016604e8410600b8410161715620007825782820a9050838111156200077c576200077b6200088f565b5b620007b1565b62000791848484600162000620565b92509050818404811115620007ab57620007aa6200088f565b5b81810290505b9392505050565b6000620007c58262000819565b9150620007d28362000819565b9250817fffffffffffffffffffffffffffffffffffffffffffffffffffffffffffffffff04831182151516156200080e576200080d6200088f565b5b828202905092915050565b6000819050919050565b60005b838110156200084357808201518184015260208101905062000826565b8381111562000853576000848401525b50505050565b600060028204905060018216806200087257607f821691505b60208210811415620008895762000888620008be565b5b50919050565b7f4e487b7100000000000000000000000000000000000000000000000000000000600052601160045260246000fd5b7f4e487b7100000000000000000000000000000000000000000000000000000000600052602260045260246000fd5b7f4e487b7100000000000000000000000000000000000000000000000000000000600052604160045260246000fd5b60008160011c9050919050565b620009348162000819565b81146200094057600080fd5b50565b61294480620009536000396000f3fe6080604052600436106101185760003560e01c80636566ef62116100a0578063a9059cbb11610064578063a9059cbb14610413578063cac19fc814610450578063d6f8560d14610479578063dd62ed3e14610490578063de268cdb146104cd57610138565b80636566ef621461031a57806370a082311461034557806395d89b4114610382578063a0712d68146103ad578063a457c2d7146103d657610138565b806323b872dd116100e757806323b872dd1461020f578063313ce5671461024c578063395093511461027757806342966c68146102b45780634dbeee87146102dd57610138565b806306fdde0314610153578063095ea7b31461017e57806318160ddd146101bb578063186d0880146101e657610138565b3661013857346005600082825461012f91906126f1565b92505081905550005b346005600082825461014a91906126f1565b92505081905550005b34801561015f57600080fd5b506101686104f6565b6040516101759190612482565b60405180910390f35b34801561018a57600080fd5b506101a560048036038101906101a09190611d43565b610588565b6040516101b29190612467565b60405180910390f35b3480156101c757600080fd5b506101d06105a6565b6040516101dd919061269f565b60405180910390f35b3480156101f257600080fd5b5061020d60048036038101906102089190611dbb565b6105b0565b005b34801561021b57600080fd5b5061023660048036038101906102319190611cf4565b61065d565b6040516102439190612467565b60405180910390f35b34801561025857600080fd5b50610261610755565b60405161026e91906126ba565b60405180910390f35b34801561028357600080fd5b5061029e60048036038101906102999190611d43565b61075e565b6040516102ab9190612467565b60405180910390f35b3480156102c057600080fd5b506102db60048036038101906102d69190611de4565b61080a565b005b3480156102e957600080fd5b5061030460048036038101906102ff9190611c8f565b610850565b6040516103119190612684565b60405180910390f35b34801561032657600080fd5b5061032f61093a565b60405161033c9190612467565b60405180910390f35b34801561035157600080fd5b5061036c60048036038101906103679190611c8f565b610951565b604051610379919061269f565b60405180910390f35b34801561038e57600080fd5b50610397610999565b6040516103a49190612482565b60405180910390f35b3480156103b957600080fd5b506103d460048036038101906103cf9190611de4565b610a2b565b005b3480156103e257600080fd5b506103fd60048036038101906103f89190611d43565b610b01565b60405161040a9190612467565b60405180910390f35b34801561041f57600080fd5b5061043a60048036038101906104359190611d43565b610bec565b6040516104479190612467565b60405180910390f35b34801561045c57600080fd5b5061047760048036038101906104729190611c8f565b610c0a565b005b34801561048557600080fd5b5061048e610e9e565b005b34801561049c57600080fd5b506104b760048036038101906104b29190611cb8565b610f7f565b6040516104c4919061269f565b60405180910390f35b3480156104d957600080fd5b506104f460048036038101906104ef9190611d7f565b611006565b005b60606003805461050590612811565b80601f016020809104026020016040519081016040528092919081815260200182805461053190612811565b801561057e5780601f106105535761010080835404028352916020019161057e565b820191906000526020600020905b81548152906001019060200180831161056157829003601f168201915b5050505050905090565b600061059c610595611176565b848461117e565b6001905092915050565b6000600254905090565b600660009054906101000a900473ffffffffffffffffffffffffffffffffffffffff1673ffffffffffffffffffffffffffffffffffffffff163373ffffffffffffffffffffffffffffffffffffffff1614610640576040517f08c379a000000000000000000000000000000000000000000000000000000000815260040161063790612524565b60405180910390fd5b80600660146101000a81548160ff02191690831515021790555050565b600061066a84848461129c565b6000600160008673ffffffffffffffffffffffffffffffffffffffff1673ffffffffffffffffffffffffffffffffffffffff16815260200190815260200160002060006106b5611176565b73ffffffffffffffffffffffffffffffffffffffff1673ffffffffffffffffffffffffffffffffffffffff16815260200190815260200160002054905082811015610735576040517f08c379a000000000000000000000000000000000000000000000000000000000815260040161072c90612584565b60405180910390fd5b61074985610741611176565b85840361117e565b60019150509392505050565b60006012905090565b600061080061076b611176565b848460016000610779611176565b73ffffffffffffffffffffffffffffffffffffffff1673ffffffffffffffffffffffffffffffffffffffff16815260200190815260200160002060008873ffffffffffffffffffffffffffffffffffffffff1673ffffffffffffffffffffffffffffffffffffffff168152602001908152602001600020546107fb91906126f1565b61117e565b6001905092915050565b61081433826114ae565b7f7536f3beadbf95c8e73fb6466bc68e06475c4a51308cfbf531a02a211f325bcc3382604051610845929190612415565b60405180910390a150565b600080600760008473ffffffffffffffffffffffffffffffffffffffff1673ffffffffffffffffffffffffffffffffffffffff16815260200190815260200160002060009054906101000a900461ffff1661ffff16116108e5576040517f08c379a00000000000000000000000000000000000000000000000000000000081526004016108dc906125c4565b60405180910390fd5b600760008373ffffffffffffffffffffffffffffffffffffffff1673ffffffffffffffffffffffffffffffffffffffff16815260200190815260200160002060009054906101000a900461ffff169050919050565b6000600660149054906101000a900460ff16905090565b60008060008373ffffffffffffffffffffffffffffffffffffffff1673ffffffffffffffffffffffffffffffffffffffff168152602001908152602001600020549050919050565b6060600480546109a890612811565b80601f01602080910402602001604051908101604052809291908181526020018280546109d490612811565b8015610a215780601f106109f657610100808354040283529160200191610a21565b820191906000526020600020905b815481529060010190602001808311610a0457829003601f168201915b5050505050905090565b600660009054906101000a900473ffffffffffffffffffffffffffffffffffffffff1673ffffffffffffffffffffffffffffffffffffffff163373ffffffffffffffffffffffffffffffffffffffff1614610abb576040517f08c379a0000000000000000000000000000000000000000000000000000000008152600401610ab290612524565b60405180910390fd5b610ac53382611685565b7fc2ddc76cb0f0c50044d995e8576cc4887a4c032d4d004ace21aab61bf74fdf5d3382604051610af6929190612415565b60405180910390a150565b60008060016000610b10611176565b73ffffffffffffffffffffffffffffffffffffffff1673ffffffffffffffffffffffffffffffffffffffff16815260200190815260200160002060008573ffffffffffffffffffffffffffffffffffffffff1673ffffffffffffffffffffffffffffffffffffffff16815260200190815260200160002054905082811015610bcd576040517f08c379a0000000000000000000000000000000000000000000000000000000008152600401610bc490612644565b60405180910390fd5b610be1610bd8611176565b8585840361117e565b600191505092915050565b6000610c00610bf9611176565b848461129c565b6001905092915050565b600660009054906101000a900473ffffffffffffffffffffffffffffffffffffffff1673ffffffffffffffffffffffffffffffffffffffff163373ffffffffffffffffffffffffffffffffffffffff1614610c9a576040517f08c379a0000000000000000000000000000000000000000000000000000000008152600401610c9190612524565b60405180910390fd5b6000600760008373ffffffffffffffffffffffffffffffffffffffff1673ffffffffffffffffffffffffffffffffffffffff16815260200190815260200160002060009054906101000a900461ffff1661ffff1611610d2e576040517f08c379a0000000000000000000000000000000000000000000000000000000008152600401610d25906125c4565b60405180910390fd5b600660009054906101000a900473ffffffffffffffffffffffffffffffffffffffff1673ffffffffffffffffffffffffffffffffffffffff168173ffffffffffffffffffffffffffffffffffffffff161415610dbf576040517f08c379a0000000000000000000000000000000000000000000000000000000008152600401610db690612564565b60405180910390fd5b6000600760008373ffffffffffffffffffffffffffffffffffffffff1673ffffffffffffffffffffffffffffffffffffffff16815260200190815260200160002060009054906101000a900461ffff169050600760008373ffffffffffffffffffffffffffffffffffffffff1673ffffffffffffffffffffffffffffffffffffffff16815260200190815260200160002060006101000a81549061ffff02191690557f47565c2c9f62edd4770af2425a968ddfe1f34fe5843ff199ab69448fed41813e8282604051610e929291906123ec565b60405180910390a15050565b600660009054906101000a900473ffffffffffffffffffffffffffffffffffffffff1673ffffffffffffffffffffffffffffffffffffffff163373ffffffffffffffffffffffffffffffffffffffff1614610f2e576040517f08c379a0000000000000000000000000000000000000000000000000000000008152600401610f2590612524565b60405180910390fd5b3373ffffffffffffffffffffffffffffffffffffffff166108fc479081150290604051600060405180830381858888f19350505050158015610f74573d6000803e3d6000fd5b506000600581905550565b6000600160008473ffffffffffffffffffffffffffffffffffffffff1673ffffffffffffffffffffffffffffffffffffffff16815260200190815260200160002060008373ffffffffffffffffffffffffffffffffffffffff1673ffffffffffffffffffffffffffffffffffffffff16815260200190815260200160002054905092915050565b600660009054906101000a900473ffffffffffffffffffffffffffffffffffffffff1673ffffffffffffffffffffffffffffffffffffffff163373ffffffffffffffffffffffffffffffffffffffff1614611096576040517f08c379a000000000000000000000000000000000000000000000000000000000815260040161108d90612524565b60405180910390fd5b60008160ff16116110dc576040517f08c379a00000000000000000000000000000000000000000000000000000000081526004016110d3906124e4565b60405180910390fd5b8060ff16600760008473ffffffffffffffffffffffffffffffffffffffff1673ffffffffffffffffffffffffffffffffffffffff16815260200190815260200160002060006101000a81548161ffff021916908361ffff1602179055507f5698fdf612cafec6105b006359e6c1b98069823b47cdc25e7069000ac03162c5828260405161116a92919061243e565b60405180910390a15050565b600033905090565b60011515600660149054906101000a900460ff16151514806111f157506000600760008573ffffffffffffffffffffffffffffffffffffffff1673ffffffffffffffffffffffffffffffffffffffff16815260200190815260200160002060009054906101000a900461ffff1661ffff16115b8061124d57506000600760008473ffffffffffffffffffffffffffffffffffffffff1673ffffffffffffffffffffffffffffffffffffffff16815260200190815260200160002060009054906101000a900461ffff1661ffff16115b61128c576040517f08c379a0000000000000000000000000000000000000000000000000000000008152600401611283906125a4565b60405180910390fd5b6112978383836117e5565b505050565b60011515600660149054906101000a900460ff161515148061130f57506000600760008573ffffffffffffffffffffffffffffffffffffffff1673ffffffffffffffffffffffffffffffffffffffff16815260200190815260200160002060009054906101000a900461ffff1661ffff16115b8061136b57506000600760008473ffffffffffffffffffffffffffffffffffffffff1673ffffffffffffffffffffffffffffffffffffffff16815260200190815260200160002060009054906101000a900461ffff1661ffff16115b6113aa576040517f08c379a00000000000000000000000000000000000000000000000000000000081526004016113a1906125a4565b60405180910390fd5b6113b58383836119b0565b6000600760008573ffffffffffffffffffffffffffffffffffffffff1673ffffffffffffffffffffffffffffffffffffffff16815260200190815260200160002060009054906101000a900461ffff1661ffff16118061146657506000600760008473ffffffffffffffffffffffffffffffffffffffff1673ffffffffffffffffffffffffffffffffffffffff16815260200190815260200160002060009054906101000a900461ffff1661ffff16115b156114a9577f1a0739f1aa4108242633c39b890edca768a99d3fe5dac6ab78eabc4d072c88ee838383426040516114a094939291906123a7565b60405180910390a15b505050565b600073ffffffffffffffffffffffffffffffffffffffff168273ffffffffffffffffffffffffffffffffffffffff16141561151e576040517f08c379a0000000000000000000000000000000000000000000000000000000008152600401611515906125e4565b60405180910390fd5b61152a82600083611c31565b60008060008473ffffffffffffffffffffffffffffffffffffffff1673ffffffffffffffffffffffffffffffffffffffff168152602001908152602001600020549050818110156115b0576040517f08c379a00000000000000000000000000000000000000000000000000000000081526004016115a7906124c4565b60405180910390fd5b8181036000808573ffffffffffffffffffffffffffffffffffffffff1673ffffffffffffffffffffffffffffffffffffffff1681526020019081526020016000208190555081600260008282546116079190612747565b92505081905550600073ffffffffffffffffffffffffffffffffffffffff168373ffffffffffffffffffffffffffffffffffffffff167fddf252ad1be2c89b69c2b068fc378daa952ba7f163c4a11628f55a4df523b3ef8460405161166c919061269f565b60405180910390a361168083600084611c36565b505050565b600073ffffffffffffffffffffffffffffffffffffffff168273ffffffffffffffffffffffffffffffffffffffff1614156116f5576040517f08c379a00000000000000000000000000000000000000000000000000000000081526004016116ec90612664565b60405180910390fd5b61170160008383611c31565b806002600082825461171391906126f1565b92505081905550806000808473ffffffffffffffffffffffffffffffffffffffff1673ffffffffffffffffffffffffffffffffffffffff168152602001908152602001600020600082825461176891906126f1565b925050819055508173ffffffffffffffffffffffffffffffffffffffff16600073ffffffffffffffffffffffffffffffffffffffff167fddf252ad1be2c89b69c2b068fc378daa952ba7f163c4a11628f55a4df523b3ef836040516117cd919061269f565b60405180910390a36117e160008383611c36565b5050565b600073ffffffffffffffffffffffffffffffffffffffff168373ffffffffffffffffffffffffffffffffffffffff161415611855576040517f08c379a000000000000000000000000000000000000000000000000000000000815260040161184c90612624565b60405180910390fd5b600073ffffffffffffffffffffffffffffffffffffffff168273ffffffffffffffffffffffffffffffffffffffff1614156118c5576040517f08c379a00000000000000000000000000000000000000000000000000000000081526004016118bc90612504565b60405180910390fd5b80600160008573ffffffffffffffffffffffffffffffffffffffff1673ffffffffffffffffffffffffffffffffffffffff16815260200190815260200160002060008473ffffffffffffffffffffffffffffffffffffffff1673ffffffffffffffffffffffffffffffffffffffff168152602001908152602001600020819055508173ffffffffffffffffffffffffffffffffffffffff168373ffffffffffffffffffffffffffffffffffffffff167f8c5be1e5ebec7d5bd14f71427d1e84f3dd0314c0f7b2291e5b200ac8c7c3b925836040516119a3919061269f565b60405180910390a3505050565b600073ffffffffffffffffffffffffffffffffffffffff168373ffffffffffffffffffffffffffffffffffffffff161415611a20576040517f08c379a0000000000000000000000000000000000000000000000000000000008152600401611a1790612604565b60405180910390fd5b600073ffffffffffffffffffffffffffffffffffffffff168273ffffffffffffffffffffffffffffffffffffffff161415611a90576040517f08c379a0000000000000000000000000000000000000000000000000000000008152600401611a87906124a4565b60405180910390fd5b611a9b838383611c31565b60008060008573ffffffffffffffffffffffffffffffffffffffff1673ffffffffffffffffffffffffffffffffffffffff16815260200190815260200160002054905081811015611b21576040517f08c379a0000000000000000000000000000000000000000000000000000000008152600401611b1890612544565b60405180910390fd5b8181036000808673ffffffffffffffffffffffffffffffffffffffff1673ffffffffffffffffffffffffffffffffffffffff16815260200190815260200160002081905550816000808573ffffffffffffffffffffffffffffffffffffffff1673ffffffffffffffffffffffffffffffffffffffff1681526020019081526020016000206000828254611bb491906126f1565b925050819055508273ffffffffffffffffffffffffffffffffffffffff168473ffffffffffffffffffffffffffffffffffffffff167fddf252ad1be2c89b69c2b068fc378daa952ba7f163c4a11628f55a4df523b3ef84604051611c18919061269f565b60405180910390a3611c2b848484611c36565b50505050565b505050565b505050565b600081359050611c4a816128b2565b92915050565b600081359050611c5f816128c9565b92915050565b600081359050611c74816128e0565b92915050565b600081359050611c89816128f7565b92915050565b600060208284031215611ca157600080fd5b6000611caf84828501611c3b565b91505092915050565b60008060408385031215611ccb57600080fd5b6000611cd985828601611c3b565b9250506020611cea85828601611c3b565b9150509250929050565b600080600060608486031215611d0957600080fd5b6000611d1786828701611c3b565b9350506020611d2886828701611c3b565b9250506040611d3986828701611c65565b9150509250925092565b60008060408385031215611d5657600080fd5b6000611d6485828601611c3b565b9250506020611d7585828601611c65565b9150509250929050565b60008060408385031215611d9257600080fd5b6000611da085828601611c3b565b9250506020611db185828601611c7a565b9150509250929050565b600060208284031215611dcd57600080fd5b6000611ddb84828501611c50565b91505092915050565b600060208284031215611df657600080fd5b6000611e0484828501611c65565b91505092915050565b611e168161277b565b82525050565b611e258161278d565b82525050565b6000611e36826126d5565b611e4081856126e0565b9350611e508185602086016127de565b611e59816128a1565b840191505092915050565b6000611e716023836126e0565b91507f45524332303a207472616e7366657220746f20746865207a65726f206164647260008301527f65737300000000000000000000000000000000000000000000000000000000006020830152604082019050919050565b6000611ed76022836126e0565b91507f45524332303a206275726e20616d6f756e7420657863656564732062616c616e60008301527f63650000000000000000000000000000000000000000000000000000000000006020830152604082019050919050565b6000611f3d601e836126e0565b91507f5370656369616c2049442073686f756c642073746172742066726f6d203100006000830152602082019050919050565b6000611f7d6022836126e0565b91507f45524332303a20617070726f766520746f20746865207a65726f20616464726560008301527f73730000000000000000000000000000000000000000000000000000000000006020830152604082019050919050565b6000611fe36012836126e0565b91507f4f6e6c7920636f6e74726163744f776e657200000000000000000000000000006000830152602082019050919050565b60006120236026836126e0565b91507f45524332303a207472616e7366657220616d6f756e742065786365656473206260008301527f616c616e636500000000000000000000000000000000000000000000000000006020830152604082019050919050565b6000612089601d836126e0565b91507f43616e206e6f742064656c65746520636f6e7472616374206f776e65720000006000830152602082019050919050565b60006120c96028836126e0565b91507f45524332303a207472616e7366657220616d6f756e742065786365656473206160008301527f6c6c6f77616e63650000000000000000000000000000000000000000000000006020830152604082019050919050565b600061212f601e836126e0565b91507f45786368616e676520636c6f736564202626206e6f74207370656369616c00006000830152602082019050919050565b600061216f600f836126e0565b91507f4e6f2073756368207370656369616c00000000000000000000000000000000006000830152602082019050919050565b60006121af6021836126e0565b91507f45524332303a206275726e2066726f6d20746865207a65726f2061646472657360008301527f73000000000000000000000000000000000000000000000000000000000000006020830152604082019050919050565b60006122156025836126e0565b91507f45524332303a207472616e736665722066726f6d20746865207a65726f20616460008301527f64726573730000000000000000000000000000000000000000000000000000006020830152604082019050919050565b600061227b6024836126e0565b91507f45524332303a20617070726f76652066726f6d20746865207a65726f2061646460008301527f72657373000000000000000000000000000000000000000000000000000000006020830152604082019050919050565b60006122e16025836126e0565b91507f45524332303a2064656372656173656420616c6c6f77616e63652062656c6f7760008301527f207a65726f0000000000000000000000000000000000000000000000000000006020830152604082019050919050565b6000612347601f836126e0565b91507f45524332303a206d696e7420746f20746865207a65726f2061646472657373006000830152602082019050919050565b61238381612799565b82525050565b612392816127c7565b82525050565b6123a1816127d1565b82525050565b60006080820190506123bc6000830187611e0d565b6123c96020830186611e0d565b6123d66040830185612389565b6123e36060830184612389565b95945050505050565b60006040820190506124016000830185611e0d565b61240e602083018461237a565b9392505050565b600060408201905061242a6000830185611e0d565b6124376020830184612389565b9392505050565b60006040820190506124536000830185611e0d565b6124606020830184612398565b9392505050565b600060208201905061247c6000830184611e1c565b92915050565b6000602082019050818103600083015261249c8184611e2b565b905092915050565b600060208201905081810360008301526124bd81611e64565b9050919050565b600060208201905081810360008301526124dd81611eca565b9050919050565b600060208201905081810360008301526124fd81611f30565b9050919050565b6000602082019050818103600083015261251d81611f70565b9050919050565b6000602082019050818103600083015261253d81611fd6565b9050919050565b6000602082019050818103600083015261255d81612016565b9050919050565b6000602082019050818103600083015261257d8161207c565b9050919050565b6000602082019050818103600083015261259d816120bc565b9050919050565b600060208201905081810360008301526125bd81612122565b9050919050565b600060208201905081810360008301526125dd81612162565b9050919050565b600060208201905081810360008301526125fd816121a2565b9050919050565b6000602082019050818103600083015261261d81612208565b9050919050565b6000602082019050818103600083015261263d8161226e565b9050919050565b6000602082019050818103600083015261265d816122d4565b9050919050565b6000602082019050818103600083015261267d8161233a565b9050919050565b6000602082019050612699600083018461237a565b92915050565b60006020820190506126b46000830184612389565b92915050565b60006020820190506126cf6000830184612398565b92915050565b600081519050919050565b600082825260208201905092915050565b60006126fc826127c7565b9150612707836127c7565b9250827fffffffffffffffffffffffffffffffffffffffffffffffffffffffffffffffff0382111561273c5761273b612843565b5b828201905092915050565b6000612752826127c7565b915061275d836127c7565b9250828210156127705761276f612843565b5b828203905092915050565b6000612786826127a7565b9050919050565b60008115159050919050565b600061ffff82169050919050565b600073ffffffffffffffffffffffffffffffffffffffff82169050919050565b6000819050919050565b600060ff82169050919050565b60005b838110156127fc5780820151818401526020810190506127e1565b8381111561280b576000848401525b50505050565b6000600282049050600182168061282957607f821691505b6020821081141561283d5761283c612872565b5b50919050565b7f4e487b7100000000000000000000000000000000000000000000000000000000600052601160045260246000fd5b7f4e487b7100000000000000000000000000000000000000000000000000000000600052602260045260246000fd5b6000601f19601f8301169050919050565b6128bb8161277b565b81146128c657600080fd5b50565b6128d28161278d565b81146128dd57600080fd5b50565b6128e9816127c7565b81146128f457600080fd5b50565b612900816127d1565b811461290b57600080fd5b5056fea2646970667358221220836b7e113480046c59bc929656afb2cb1f88a6acb94892194e146a64127b26bc64736f6c63430008000033",
  "linkReferences": {},
  "deployedLinkReferences": {}
}