{
  "_format": "hh-sol-artifact-1",
  "contractName": "MSN",
  "sourceName": "assets/koa_static/contracts/v2/MSN.sol",
  "abi": [
    {
      "inputs": [
        {
          "internalType": "string",
          "name": "name",
          "type": "string"
        },
        {
          "internalType": "string",
          "name": "symbol",
          "type": "string"
        },
        {
          "internalType": "uint256",
          "name": "inisupply",
          "type": "uint256"
        }
      ],
      "stateMutability": "nonpayable",
      "type": "constructor"
    },
    {
      "anonymous": false,
      "inputs": [
        {
          "indexed": true,
          "internalType": "address",
          "name": "owner",
          "type": "address"
        },
        {
          "indexed": true,
          "internalType": "address",
          "name": "spender",
          "type": "address"
        },
        {
          "indexed": false,
          "internalType": "uint256",
          "name": "value",
          "type": "uint256"
        }
      ],
      "name": "Approval",
      "type": "event"
    },
    {
      "anonymous": false,
      "inputs": [
        {
          "indexed": true,
          "internalType": "address",
          "name": "from",
          "type": "address"
        },
        {
          "indexed": true,
          "internalType": "address",
          "name": "to",
          "type": "address"
        },
        {
          "indexed": false,
          "internalType": "uint256",
          "name": "value",
          "type": "uint256"
        }
      ],
      "name": "Transfer",
      "type": "event"
    },
    {
      "anonymous": false,
      "inputs": [
        {
          "indexed": false,
          "internalType": "address",
          "name": "trigger_user_addr",
          "type": "address"
        },
        {
          "indexed": false,
          "internalType": "address",
          "name": "special_addr",
          "type": "address"
        },
        {
          "indexed": false,
          "internalType": "uint8",
          "name": "_id",
          "type": "uint8"
        },
        {
          "indexed": false,
          "internalType": "uint256",
          "name": "blocktime",
          "type": "uint256"
        }
      ],
      "name": "add_special_EVENT",
      "type": "event"
    },
    {
      "anonymous": false,
      "inputs": [
        {
          "indexed": false,
          "internalType": "address",
          "name": "trigger_user_addr",
          "type": "address"
        },
        {
          "indexed": false,
          "internalType": "uint256",
          "name": "amount",
          "type": "uint256"
        },
        {
          "indexed": false,
          "internalType": "uint256",
          "name": "blocktime",
          "type": "uint256"
        }
      ],
      "name": "burn_EVENT",
      "type": "event"
    },
    {
      "anonymous": false,
      "inputs": [
        {
          "indexed": false,
          "internalType": "address",
          "name": "trigger_user_addr",
          "type": "address"
        },
        {
          "indexed": false,
          "internalType": "uint256",
          "name": "amount",
          "type": "uint256"
        },
        {
          "indexed": false,
          "internalType": "uint256",
          "name": "blocktime",
          "type": "uint256"
        }
      ],
      "name": "mint_EVENT",
      "type": "event"
    },
    {
      "anonymous": false,
      "inputs": [
        {
          "indexed": false,
          "internalType": "address",
          "name": "trigger_user_addr",
          "type": "address"
        },
        {
          "indexed": false,
          "internalType": "address",
          "name": "special_addr",
          "type": "address"
        },
        {
          "indexed": false,
          "internalType": "uint16",
          "name": "_special_id",
          "type": "uint16"
        },
        {
          "indexed": false,
          "internalType": "uint256",
          "name": "blocktime",
          "type": "uint256"
        }
      ],
      "name": "remove_special_EVENT",
      "type": "event"
    },
    {
      "anonymous": false,
      "inputs": [
        {
          "indexed": false,
          "internalType": "address",
          "name": "trigger_user_addr",
          "type": "address"
        },
        {
          "indexed": false,
          "internalType": "bool",
          "name": "exchange_open",
          "type": "bool"
        },
        {
          "indexed": false,
          "internalType": "uint256",
          "name": "blocktime",
          "type": "uint256"
        }
      ],
      "name": "set_exchange_open_EVENT",
      "type": "event"
    },
    {
      "anonymous": false,
      "inputs": [
        {
          "indexed": false,
          "internalType": "address",
          "name": "trigger_user_addr",
          "type": "address"
        },
        {
          "indexed": false,
          "internalType": "address",
          "name": "_sender",
          "type": "address"
        },
        {
          "indexed": false,
          "internalType": "address",
          "name": "_recipient",
          "type": "address"
        },
        {
          "indexed": false,
          "internalType": "uint256",
          "name": "_amount",
          "type": "uint256"
        },
        {
          "indexed": false,
          "internalType": "uint256",
          "name": "blocktime",
          "type": "uint256"
        }
      ],
      "name": "special_transfer_EVENT",
      "type": "event"
    },
    {
      "anonymous": false,
      "inputs": [
        {
          "indexed": false,
          "internalType": "address",
          "name": "trigger_user_addr",
          "type": "address"
        },
        {
          "indexed": false,
          "internalType": "uint256",
          "name": "_amount",
          "type": "uint256"
        },
        {
          "indexed": false,
          "internalType": "uint256",
          "name": "blocktime",
          "type": "uint256"
        }
      ],
      "name": "withdraw_eth_EVENT",
      "type": "event"
    },
    {
      "stateMutability": "payable",
      "type": "fallback"
    },
    {
      "inputs": [
        {
          "internalType": "address",
          "name": "special_addr",
          "type": "address"
        },
        {
          "internalType": "uint8",
          "name": "_id",
          "type": "uint8"
        }
      ],
      "name": "add_special",
      "outputs": [],
      "stateMutability": "nonpayable",
      "type": "function"
    },
    {
      "inputs": [
        {
          "internalType": "address",
          "name": "owner",
          "type": "address"
        },
        {
          "internalType": "address",
          "name": "spender",
          "type": "address"
        }
      ],
      "name": "allowance",
      "outputs": [
        {
          "internalType": "uint256",
          "name": "",
          "type": "uint256"
        }
      ],
      "stateMutability": "view",
      "type": "function"
    },
    {
      "inputs": [
        {
          "internalType": "address",
          "name": "spender",
          "type": "address"
        },
        {
          "internalType": "uint256",
          "name": "amount",
          "type": "uint256"
        }
      ],
      "name": "approve",
      "outputs": [
        {
          "internalType": "bool",
          "name": "",
          "type": "bool"
        }
      ],
      "stateMutability": "nonpayable",
      "type": "function"
    },
    {
      "inputs": [
        {
          "internalType": "address",
          "name": "account",
          "type": "address"
        }
      ],
      "name": "balanceOf",
      "outputs": [
        {
          "internalType": "uint256",
          "name": "",
          "type": "uint256"
        }
      ],
      "stateMutability": "view",
      "type": "function"
    },
    {
      "inputs": [
        {
          "internalType": "uint256",
          "name": "amount",
          "type": "uint256"
        }
      ],
      "name": "burn",
      "outputs": [],
      "stateMutability": "nonpayable",
      "type": "function"
    },
    {
      "inputs": [],
      "name": "decimals",
      "outputs": [
        {
          "internalType": "uint8",
          "name": "",
          "type": "uint8"
        }
      ],
      "stateMutability": "view",
      "type": "function"
    },
    {
      "inputs": [
        {
          "internalType": "address",
          "name": "spender",
          "type": "address"
        },
        {
          "internalType": "uint256",
          "name": "subtractedValue",
          "type": "uint256"
        }
      ],
      "name": "decreaseAllowance",
      "outputs": [
        {
          "internalType": "bool",
          "name": "",
          "type": "bool"
        }
      ],
      "stateMutability": "nonpayable",
      "type": "function"
    },
    {
      "inputs": [],
      "name": "get_exchange_open",
      "outputs": [
        {
          "internalType": "bool",
          "name": "",
          "type": "bool"
        }
      ],
      "stateMutability": "view",
      "type": "function"
    },
    {
      "inputs": [
        {
          "internalType": "address",
          "name": "special_addr",
          "type": "address"
        }
      ],
      "name": "get_special",
      "outputs": [
        {
          "internalType": "uint16",
          "name": "",
          "type": "uint16"
        }
      ],
      "stateMutability": "view",
      "type": "function"
    },
    {
      "inputs": [
        {
          "internalType": "uint16",
          "name": "_id",
          "type": "uint16"
        }
      ],
      "name": "get_special_by_id",
      "outputs": [
        {
          "internalType": "address",
          "name": "",
          "type": "address"
        }
      ],
      "stateMutability": "view",
      "type": "function"
    },
    {
      "inputs": [
        {
          "internalType": "address",
          "name": "spender",
          "type": "address"
        },
        {
          "internalType": "uint256",
          "name": "addedValue",
          "type": "uint256"
        }
      ],
      "name": "increaseAllowance",
      "outputs": [
        {
          "internalType": "bool",
          "name": "",
          "type": "bool"
        }
      ],
      "stateMutability": "nonpayable",
      "type": "function"
    },
    {
      "inputs": [
        {
          "internalType": "uint256",
          "name": "amount",
          "type": "uint256"
        }
      ],
      "name": "mint",
      "outputs": [],
      "stateMutability": "nonpayable",
      "type": "function"
    },
    {
      "inputs": [],
      "name": "name",
      "outputs": [
        {
          "internalType": "string",
          "name": "",
          "type": "string"
        }
      ],
      "stateMutability": "view",
      "type": "function"
    },
    {
      "inputs": [
        {
          "internalType": "address",
          "name": "special_addr",
          "type": "address"
        }
      ],
      "name": "remove_special",
      "outputs": [],
      "stateMutability": "nonpayable",
      "type": "function"
    },
    {
      "inputs": [
        {
          "internalType": "bool",
          "name": "_exchange_open",
          "type": "bool"
        }
      ],
      "name": "set_exchange_open",
      "outputs": [],
      "stateMutability": "nonpayable",
      "type": "function"
    },
    {
      "inputs": [],
      "name": "symbol",
      "outputs": [
        {
          "internalType": "string",
          "name": "",
          "type": "string"
        }
      ],
      "stateMutability": "view",
      "type": "function"
    },
    {
      "inputs": [],
      "name": "totalSupply",
      "outputs": [
        {
          "internalType": "uint256",
          "name": "",
          "type": "uint256"
        }
      ],
      "stateMutability": "view",
      "type": "function"
    },
    {
      "inputs": [
        {
          "internalType": "address",
          "name": "recipient",
          "type": "address"
        },
        {
          "internalType": "uint256",
          "name": "amount",
          "type": "uint256"
        }
      ],
      "name": "transfer",
      "outputs": [
        {
          "internalType": "bool",
          "name": "",
          "type": "bool"
        }
      ],
      "stateMutability": "nonpayable",
      "type": "function"
    },
    {
      "inputs": [
        {
          "internalType": "address",
          "name": "sender",
          "type": "address"
        },
        {
          "internalType": "address",
          "name": "recipient",
          "type": "address"
        },
        {
          "internalType": "uint256",
          "name": "amount",
          "type": "uint256"
        }
      ],
      "name": "transferFrom",
      "outputs": [
        {
          "internalType": "bool",
          "name": "",
          "type": "bool"
        }
      ],
      "stateMutability": "nonpayable",
      "type": "function"
    },
    {
      "inputs": [],
      "name": "withdraw_eth",
      "outputs": [],
      "stateMutability": "nonpayable",
      "type": "function"
    },
    {
      "stateMutability": "payable",
      "type": "receive"
    }
  ],
  "bytecode": "0x60806040523480156200001157600080fd5b506040516200384d3803806200384d833981810160405281019062000037919062000488565b82828160039080519060200190620000519291906200034f565b5080600490805190602001906200006a9291906200034f565b50505033600660006101000a81548173ffffffffffffffffffffffffffffffffffffffff021916908373ffffffffffffffffffffffffffffffffffffffff1602179055506001600760003373ffffffffffffffffffffffffffffffffffffffff1673ffffffffffffffffffffffffffffffffffffffff16815260200190815260200160002060006101000a81548161ffff021916908361ffff1602179055503360086000600161ffff16815260200190815260200160002060006101000a81548173ffffffffffffffffffffffffffffffffffffffff021916908373ffffffffffffffffffffffffffffffffffffffff1602179055506000600660146101000a81548160ff021916908315150217905550620001ba3362000190620001c360201b60201c565b60ff16600a620001a19190620006d2565b83620001ae91906200080f565b620001cc60201b60201c565b5050506200099a565b60006012905090565b600073ffffffffffffffffffffffffffffffffffffffff168273ffffffffffffffffffffffffffffffffffffffff1614156200023f576040517f08c379a0000000000000000000000000000000000000000000000000000000008152600401620002369062000563565b60405180910390fd5b62000253600083836200034560201b60201c565b80600260008282546200026791906200061a565b92505081905550806000808473ffffffffffffffffffffffffffffffffffffffff1673ffffffffffffffffffffffffffffffffffffffff1681526020019081526020016000206000828254620002be91906200061a565b925050819055508173ffffffffffffffffffffffffffffffffffffffff16600073ffffffffffffffffffffffffffffffffffffffff167fddf252ad1be2c89b69c2b068fc378daa952ba7f163c4a11628f55a4df523b3ef8360405162000325919062000585565b60405180910390a362000341600083836200034a60201b60201c565b5050565b505050565b505050565b8280546200035d90620008b0565b90600052602060002090601f016020900481019282620003815760008555620003cd565b82601f106200039c57805160ff1916838001178555620003cd565b82800160010185558215620003cd579182015b82811115620003cc578251825591602001919060010190620003af565b5b509050620003dc9190620003e0565b5090565b5b80821115620003fb576000816000905550600101620003e1565b5090565b6000620004166200041084620005d6565b620005a2565b9050828152602081018484840111156200042f57600080fd5b6200043c8482856200087a565b509392505050565b600082601f8301126200045657600080fd5b815162000468848260208601620003ff565b91505092915050565b600081519050620004828162000980565b92915050565b6000806000606084860312156200049e57600080fd5b600084015167ffffffffffffffff811115620004b957600080fd5b620004c78682870162000444565b935050602084015167ffffffffffffffff811115620004e557600080fd5b620004f38682870162000444565b9250506040620005068682870162000471565b9150509250925092565b60006200051f601f8362000609565b91507f45524332303a206d696e7420746f20746865207a65726f2061646472657373006000830152602082019050919050565b6200055d8162000870565b82525050565b600060208201905081810360008301526200057e8162000510565b9050919050565b60006020820190506200059c600083018462000552565b92915050565b6000604051905081810181811067ffffffffffffffff82111715620005cc57620005cb62000944565b5b8060405250919050565b600067ffffffffffffffff821115620005f457620005f362000944565b5b601f19601f8301169050602081019050919050565b600082825260208201905092915050565b6000620006278262000870565b9150620006348362000870565b9250827fffffffffffffffffffffffffffffffffffffffffffffffffffffffffffffffff038211156200066c576200066b620008e6565b5b828201905092915050565b6000808291508390505b6001851115620006c957808604811115620006a157620006a0620008e6565b5b6001851615620006b15780820291505b8081029050620006c18562000973565b945062000681565b94509492505050565b6000620006df8262000870565b9150620006ec8362000870565b92506200071b7fffffffffffffffffffffffffffffffffffffffffffffffffffffffffffffffff848462000723565b905092915050565b60008262000735576001905062000808565b8162000745576000905062000808565b81600181146200075e576002811462000769576200079f565b600191505062000808565b60ff8411156200077e576200077d620008e6565b5b8360020a915084821115620007985762000797620008e6565b5b5062000808565b5060208310610133831016604e8410600b8410161715620007d95782820a905083811115620007d357620007d2620008e6565b5b62000808565b620007e8848484600162000677565b92509050818404811115620008025762000801620008e6565b5b81810290505b9392505050565b60006200081c8262000870565b9150620008298362000870565b9250817fffffffffffffffffffffffffffffffffffffffffffffffffffffffffffffffff0483118215151615620008655762000864620008e6565b5b828202905092915050565b6000819050919050565b60005b838110156200089a5780820151818401526020810190506200087d565b83811115620008aa576000848401525b50505050565b60006002820490506001821680620008c957607f821691505b60208210811415620008e057620008df62000915565b5b50919050565b7f4e487b7100000000000000000000000000000000000000000000000000000000600052601160045260246000fd5b7f4e487b7100000000000000000000000000000000000000000000000000000000600052602260045260246000fd5b7f4e487b7100000000000000000000000000000000000000000000000000000000600052604160045260246000fd5b60008160011c9050919050565b6200098b8162000870565b81146200099757600080fd5b50565b612ea380620009aa6000396000f3fe6080604052600436106101235760003560e01c806370a08231116100a0578063a9059cbb11610064578063a9059cbb1461045b578063cac19fc814610498578063d6f8560d146104c1578063dd62ed3e146104d8578063de268cdb1461051557610143565b806370a08231146103505780639171d1541461038d57806395d89b41146103ca578063a0712d68146103f5578063a457c2d71461041e57610143565b8063313ce567116100e7578063313ce56714610257578063395093511461028257806342966c68146102bf5780634dbeee87146102e85780636566ef621461032557610143565b806306fdde031461015e578063095ea7b31461018957806318160ddd146101c6578063186d0880146101f157806323b872dd1461021a57610143565b3661014357346005600082825461013a9190612c39565b92505081905550005b34600560008282546101559190612c39565b92505081905550005b34801561016a57600080fd5b5061017361053e565b604051610180919061298a565b60405180910390f35b34801561019557600080fd5b506101b060048036038101906101ab91906120fc565b6105d0565b6040516101bd919061296f565b60405180910390f35b3480156101d257600080fd5b506101db6105ee565b6040516101e89190612be7565b60405180910390f35b3480156101fd57600080fd5b5061021860048036038101906102139190612174565b6105f8565b005b34801561022657600080fd5b50610241600480360381019061023c91906120ad565b6106ef565b60405161024e919061296f565b60405180910390f35b34801561026357600080fd5b5061026c6107e7565b6040516102799190612c02565b60405180910390f35b34801561028e57600080fd5b506102a960048036038101906102a491906120fc565b6107f0565b6040516102b6919061296f565b60405180910390f35b3480156102cb57600080fd5b506102e660048036038101906102e191906121c6565b61089c565b005b3480156102f457600080fd5b5061030f600480360381019061030a9190612048565b6108e4565b60405161031c9190612bcc565b60405180910390f35b34801561033157600080fd5b5061033a6109ce565b604051610347919061296f565b60405180910390f35b34801561035c57600080fd5b5061037760048036038101906103729190612048565b6109e5565b6040516103849190612be7565b60405180910390f35b34801561039957600080fd5b506103b460048036038101906103af919061219d565b610a2d565b6040516103c19190612809565b60405180910390f35b3480156103d657600080fd5b506103df610b1c565b6040516103ec919061298a565b60405180910390f35b34801561040157600080fd5b5061041c600480360381019061041791906121c6565b610bae565b005b34801561042a57600080fd5b50610445600480360381019061044091906120fc565b610c86565b604051610452919061296f565b60405180910390f35b34801561046757600080fd5b50610482600480360381019061047d91906120fc565b610d71565b60405161048f919061296f565b60405180910390f35b3480156104a457600080fd5b506104bf60048036038101906104ba9190612048565b610d8f565b005b3480156104cd57600080fd5b506104d6611065565b005b3480156104e457600080fd5b506104ff60048036038101906104fa9190612071565b611187565b60405161050c9190612be7565b60405180910390f35b34801561052157600080fd5b5061053c60048036038101906105379190612138565b61120e565b005b60606003805461054d90612d59565b80601f016020809104026020016040519081016040528092919081815260200182805461057990612d59565b80156105c65780601f1061059b576101008083540402835291602001916105c6565b820191906000526020600020905b8154815290600101906020018083116105a957829003601f168201915b5050505050905090565b60006105e46105dd611518565b8484611520565b6001905092915050565b6000600254905090565b600660009054906101000a900473ffffffffffffffffffffffffffffffffffffffff1673ffffffffffffffffffffffffffffffffffffffff163373ffffffffffffffffffffffffffffffffffffffff1614610688576040517f08c379a000000000000000000000000000000000000000000000000000000000815260040161067f90612a2c565b60405180910390fd5b80600660146101000a81548160ff0219169083151502179055507f81ab618530badfa0735e9307c2a814fadc985fcf5cc79f1ba84d13dabab73e6533600660149054906101000a900460ff16426040516106e493929190612901565b60405180910390a150565b60006106fc84848461163e565b6000600160008673ffffffffffffffffffffffffffffffffffffffff1673ffffffffffffffffffffffffffffffffffffffff1681526020019081526020016000206000610747611518565b73ffffffffffffffffffffffffffffffffffffffff1673ffffffffffffffffffffffffffffffffffffffff168152602001908152602001600020549050828110156107c7576040517f08c379a00000000000000000000000000000000000000000000000000000000081526004016107be90612aac565b60405180910390fd5b6107db856107d3611518565b858403611520565b60019150509392505050565b60006012905090565b60006108926107fd611518565b84846001600061080b611518565b73ffffffffffffffffffffffffffffffffffffffff1673ffffffffffffffffffffffffffffffffffffffff16815260200190815260200160002060008873ffffffffffffffffffffffffffffffffffffffff1673ffffffffffffffffffffffffffffffffffffffff1681526020019081526020016000205461088d9190612c39565b611520565b6001905092915050565b6108a63382611852565b7f0c36a3ee10702b3f4c4a0cbc8fb77f1454bc72ab7727783746bde5ff55340e7d3382426040516108d993929190612938565b60405180910390a150565b600080600760008473ffffffffffffffffffffffffffffffffffffffff1673ffffffffffffffffffffffffffffffffffffffff16815260200190815260200160002060009054906101000a900461ffff1661ffff1611610979576040517f08c379a000000000000000000000000000000000000000000000000000000000815260040161097090612aec565b60405180910390fd5b600760008373ffffffffffffffffffffffffffffffffffffffff1673ffffffffffffffffffffffffffffffffffffffff16815260200190815260200160002060009054906101000a900461ffff169050919050565b6000600660149054906101000a900460ff16905090565b60008060008373ffffffffffffffffffffffffffffffffffffffff1673ffffffffffffffffffffffffffffffffffffffff168152602001908152602001600020549050919050565b60008073ffffffffffffffffffffffffffffffffffffffff16600860008461ffff1661ffff16815260200190815260200160002060009054906101000a900473ffffffffffffffffffffffffffffffffffffffff1673ffffffffffffffffffffffffffffffffffffffff161415610ad9576040517f08c379a0000000000000000000000000000000000000000000000000000000008152600401610ad090612aec565b60405180910390fd5b600860008361ffff1661ffff16815260200190815260200160002060009054906101000a900473ffffffffffffffffffffffffffffffffffffffff169050919050565b606060048054610b2b90612d59565b80601f0160208091040260200160405190810160405280929190818152602001828054610b5790612d59565b8015610ba45780601f10610b7957610100808354040283529160200191610ba4565b820191906000526020600020905b815481529060010190602001808311610b8757829003601f168201915b5050505050905090565b600660009054906101000a900473ffffffffffffffffffffffffffffffffffffffff1673ffffffffffffffffffffffffffffffffffffffff163373ffffffffffffffffffffffffffffffffffffffff1614610c3e576040517f08c379a0000000000000000000000000000000000000000000000000000000008152600401610c3590612a2c565b60405180910390fd5b610c483382611a29565b7f83199a9581094d6df7315bcdebf919c1ea05a0ceee21e5289217292fe592ef33338242604051610c7b93929190612938565b60405180910390a150565b60008060016000610c95611518565b73ffffffffffffffffffffffffffffffffffffffff1673ffffffffffffffffffffffffffffffffffffffff16815260200190815260200160002060008573ffffffffffffffffffffffffffffffffffffffff1673ffffffffffffffffffffffffffffffffffffffff16815260200190815260200160002054905082811015610d52576040517f08c379a0000000000000000000000000000000000000000000000000000000008152600401610d4990612b8c565b60405180910390fd5b610d66610d5d611518565b85858403611520565b600191505092915050565b6000610d85610d7e611518565b848461163e565b6001905092915050565b600660009054906101000a900473ffffffffffffffffffffffffffffffffffffffff1673ffffffffffffffffffffffffffffffffffffffff163373ffffffffffffffffffffffffffffffffffffffff1614610e1f576040517f08c379a0000000000000000000000000000000000000000000000000000000008152600401610e1690612a2c565b60405180910390fd5b6000600760008373ffffffffffffffffffffffffffffffffffffffff1673ffffffffffffffffffffffffffffffffffffffff16815260200190815260200160002060009054906101000a900461ffff1661ffff1611610eb3576040517f08c379a0000000000000000000000000000000000000000000000000000000008152600401610eaa90612aec565b60405180910390fd5b600660009054906101000a900473ffffffffffffffffffffffffffffffffffffffff1673ffffffffffffffffffffffffffffffffffffffff168173ffffffffffffffffffffffffffffffffffffffff161415610f44576040517f08c379a0000000000000000000000000000000000000000000000000000000008152600401610f3b90612a8c565b60405180910390fd5b6000600760008373ffffffffffffffffffffffffffffffffffffffff1673ffffffffffffffffffffffffffffffffffffffff16815260200190815260200160002060009054906101000a900461ffff169050600760008373ffffffffffffffffffffffffffffffffffffffff1673ffffffffffffffffffffffffffffffffffffffff16815260200190815260200160002060006101000a81549061ffff0219169055600860008261ffff1661ffff16815260200190815260200160002060006101000a81549073ffffffffffffffffffffffffffffffffffffffff02191690557f8dfe34e53798c458a487d8d57fe9dbea79289cbaed1c9e477342bda23df3cb56338383426040516110599493929190612877565b60405180910390a15050565b600660009054906101000a900473ffffffffffffffffffffffffffffffffffffffff1673ffffffffffffffffffffffffffffffffffffffff163373ffffffffffffffffffffffffffffffffffffffff16146110f5576040517f08c379a00000000000000000000000000000000000000000000000000000000081526004016110ec90612a2c565b60405180910390fd5b60004790503373ffffffffffffffffffffffffffffffffffffffff166108fc829081150290604051600060405180830381858888f19350505050158015611140573d6000803e3d6000fd5b5060006005819055507ff7a6b9124ad7d9df9ca77a8475bc5db166c249579480d81d2ad8890f711da68d33824260405161117c93929190612938565b60405180910390a150565b6000600160008473ffffffffffffffffffffffffffffffffffffffff1673ffffffffffffffffffffffffffffffffffffffff16815260200190815260200160002060008373ffffffffffffffffffffffffffffffffffffffff1673ffffffffffffffffffffffffffffffffffffffff16815260200190815260200160002054905092915050565b600660009054906101000a900473ffffffffffffffffffffffffffffffffffffffff1673ffffffffffffffffffffffffffffffffffffffff163373ffffffffffffffffffffffffffffffffffffffff161461129e576040517f08c379a000000000000000000000000000000000000000000000000000000000815260040161129590612a2c565b60405180910390fd5b60008160ff16116112e4576040517f08c379a00000000000000000000000000000000000000000000000000000000081526004016112db906129ec565b60405180910390fd5b600073ffffffffffffffffffffffffffffffffffffffff16600860008360ff1661ffff16815260200190815260200160002060009054906101000a900473ffffffffffffffffffffffffffffffffffffffff1673ffffffffffffffffffffffffffffffffffffffff161461138d576040517f08c379a000000000000000000000000000000000000000000000000000000000815260040161138490612b6c565b60405180910390fd5b6000600760008473ffffffffffffffffffffffffffffffffffffffff1673ffffffffffffffffffffffffffffffffffffffff16815260200190815260200160002060009054906101000a900461ffff1661ffff1614611421576040517f08c379a000000000000000000000000000000000000000000000000000000000815260040161141890612a6c565b60405180910390fd5b8060ff16600760008473ffffffffffffffffffffffffffffffffffffffff1673ffffffffffffffffffffffffffffffffffffffff16815260200190815260200160002060006101000a81548161ffff021916908361ffff16021790555081600860008360ff1661ffff16815260200190815260200160002060006101000a81548173ffffffffffffffffffffffffffffffffffffffff021916908373ffffffffffffffffffffffffffffffffffffffff1602179055507f1ac5b5df13deb7d2c8f86cac339017c0ffb8692294f0af85b0dd7da4e579c46f3383834260405161150c94939291906128bc565b60405180910390a15050565b600033905090565b60011515600660149054906101000a900460ff161515148061159357506000600760008573ffffffffffffffffffffffffffffffffffffffff1673ffffffffffffffffffffffffffffffffffffffff16815260200190815260200160002060009054906101000a900461ffff1661ffff16115b806115ef57506000600760008473ffffffffffffffffffffffffffffffffffffffff1673ffffffffffffffffffffffffffffffffffffffff16815260200190815260200160002060009054906101000a900461ffff1661ffff16115b61162e576040517f08c379a000000000000000000000000000000000000000000000000000000000815260040161162590612acc565b60405180910390fd5b611639838383611b89565b505050565b60011515600660149054906101000a900460ff16151514806116b157506000600760008573ffffffffffffffffffffffffffffffffffffffff1673ffffffffffffffffffffffffffffffffffffffff16815260200190815260200160002060009054906101000a900461ffff1661ffff16115b8061170d57506000600760008473ffffffffffffffffffffffffffffffffffffffff1673ffffffffffffffffffffffffffffffffffffffff16815260200190815260200160002060009054906101000a900461ffff1661ffff16115b61174c576040517f08c379a000000000000000000000000000000000000000000000000000000000815260040161174390612acc565b60405180910390fd5b611757838383611d54565b6000600760008573ffffffffffffffffffffffffffffffffffffffff1673ffffffffffffffffffffffffffffffffffffffff16815260200190815260200160002060009054906101000a900461ffff1661ffff16118061180857506000600760008473ffffffffffffffffffffffffffffffffffffffff1673ffffffffffffffffffffffffffffffffffffffff16815260200190815260200160002060009054906101000a900461ffff1661ffff16115b1561184d577fb4003af777c404f9adcc0187900bb5fa12d84f8641d90bcad55a28316ab843d73384848442604051611844959493929190612824565b60405180910390a15b505050565b600073ffffffffffffffffffffffffffffffffffffffff168273ffffffffffffffffffffffffffffffffffffffff1614156118c2576040517f08c379a00000000000000000000000000000000000000000000000000000000081526004016118b990612b0c565b60405180910390fd5b6118ce82600083611fd5565b60008060008473ffffffffffffffffffffffffffffffffffffffff1673ffffffffffffffffffffffffffffffffffffffff16815260200190815260200160002054905081811015611954576040517f08c379a000000000000000000000000000000000000000000000000000000000815260040161194b906129cc565b60405180910390fd5b8181036000808573ffffffffffffffffffffffffffffffffffffffff1673ffffffffffffffffffffffffffffffffffffffff1681526020019081526020016000208190555081600260008282546119ab9190612c8f565b92505081905550600073ffffffffffffffffffffffffffffffffffffffff168373ffffffffffffffffffffffffffffffffffffffff167fddf252ad1be2c89b69c2b068fc378daa952ba7f163c4a11628f55a4df523b3ef84604051611a109190612be7565b60405180910390a3611a2483600084611fda565b505050565b600073ffffffffffffffffffffffffffffffffffffffff168273ffffffffffffffffffffffffffffffffffffffff161415611a99576040517f08c379a0000000000000000000000000000000000000000000000000000000008152600401611a9090612bac565b60405180910390fd5b611aa560008383611fd5565b8060026000828254611ab79190612c39565b92505081905550806000808473ffffffffffffffffffffffffffffffffffffffff1673ffffffffffffffffffffffffffffffffffffffff1681526020019081526020016000206000828254611b0c9190612c39565b925050819055508173ffffffffffffffffffffffffffffffffffffffff16600073ffffffffffffffffffffffffffffffffffffffff167fddf252ad1be2c89b69c2b068fc378daa952ba7f163c4a11628f55a4df523b3ef83604051611b719190612be7565b60405180910390a3611b8560008383611fda565b5050565b600073ffffffffffffffffffffffffffffffffffffffff168373ffffffffffffffffffffffffffffffffffffffff161415611bf9576040517f08c379a0000000000000000000000000000000000000000000000000000000008152600401611bf090612b4c565b60405180910390fd5b600073ffffffffffffffffffffffffffffffffffffffff168273ffffffffffffffffffffffffffffffffffffffff161415611c69576040517f08c379a0000000000000000000000000000000000000000000000000000000008152600401611c6090612a0c565b60405180910390fd5b80600160008573ffffffffffffffffffffffffffffffffffffffff1673ffffffffffffffffffffffffffffffffffffffff16815260200190815260200160002060008473ffffffffffffffffffffffffffffffffffffffff1673ffffffffffffffffffffffffffffffffffffffff168152602001908152602001600020819055508173ffffffffffffffffffffffffffffffffffffffff168373ffffffffffffffffffffffffffffffffffffffff167f8c5be1e5ebec7d5bd14f71427d1e84f3dd0314c0f7b2291e5b200ac8c7c3b92583604051611d479190612be7565b60405180910390a3505050565b600073ffffffffffffffffffffffffffffffffffffffff168373ffffffffffffffffffffffffffffffffffffffff161415611dc4576040517f08c379a0000000000000000000000000000000000000000000000000000000008152600401611dbb90612b2c565b60405180910390fd5b600073ffffffffffffffffffffffffffffffffffffffff168273ffffffffffffffffffffffffffffffffffffffff161415611e34576040517f08c379a0000000000000000000000000000000000000000000000000000000008152600401611e2b906129ac565b60405180910390fd5b611e3f838383611fd5565b60008060008573ffffffffffffffffffffffffffffffffffffffff1673ffffffffffffffffffffffffffffffffffffffff16815260200190815260200160002054905081811015611ec5576040517f08c379a0000000000000000000000000000000000000000000000000000000008152600401611ebc90612a4c565b60405180910390fd5b8181036000808673ffffffffffffffffffffffffffffffffffffffff1673ffffffffffffffffffffffffffffffffffffffff16815260200190815260200160002081905550816000808573ffffffffffffffffffffffffffffffffffffffff1673ffffffffffffffffffffffffffffffffffffffff1681526020019081526020016000206000828254611f589190612c39565b925050819055508273ffffffffffffffffffffffffffffffffffffffff168473ffffffffffffffffffffffffffffffffffffffff167fddf252ad1be2c89b69c2b068fc378daa952ba7f163c4a11628f55a4df523b3ef84604051611fbc9190612be7565b60405180910390a3611fcf848484611fda565b50505050565b505050565b505050565b600081359050611fee81612dfa565b92915050565b60008135905061200381612e11565b92915050565b60008135905061201881612e28565b92915050565b60008135905061202d81612e3f565b92915050565b60008135905061204281612e56565b92915050565b60006020828403121561205a57600080fd5b600061206884828501611fdf565b91505092915050565b6000806040838503121561208457600080fd5b600061209285828601611fdf565b92505060206120a385828601611fdf565b9150509250929050565b6000806000606084860312156120c257600080fd5b60006120d086828701611fdf565b93505060206120e186828701611fdf565b92505060406120f28682870161201e565b9150509250925092565b6000806040838503121561210f57600080fd5b600061211d85828601611fdf565b925050602061212e8582860161201e565b9150509250929050565b6000806040838503121561214b57600080fd5b600061215985828601611fdf565b925050602061216a85828601612033565b9150509250929050565b60006020828403121561218657600080fd5b600061219484828501611ff4565b91505092915050565b6000602082840312156121af57600080fd5b60006121bd84828501612009565b91505092915050565b6000602082840312156121d857600080fd5b60006121e68482850161201e565b91505092915050565b6121f881612cc3565b82525050565b61220781612cd5565b82525050565b600061221882612c1d565b6122228185612c28565b9350612232818560208601612d26565b61223b81612de9565b840191505092915050565b6000612253602383612c28565b91507f45524332303a207472616e7366657220746f20746865207a65726f206164647260008301527f65737300000000000000000000000000000000000000000000000000000000006020830152604082019050919050565b60006122b9602283612c28565b91507f45524332303a206275726e20616d6f756e7420657863656564732062616c616e60008301527f63650000000000000000000000000000000000000000000000000000000000006020830152604082019050919050565b600061231f601e83612c28565b91507f5370656369616c2049442073686f756c642073746172742066726f6d203100006000830152602082019050919050565b600061235f602283612c28565b91507f45524332303a20617070726f766520746f20746865207a65726f20616464726560008301527f73730000000000000000000000000000000000000000000000000000000000006020830152604082019050919050565b60006123c5601283612c28565b91507f4f6e6c7920636f6e74726163744f776e657200000000000000000000000000006000830152602082019050919050565b6000612405602683612c28565b91507f45524332303a207472616e7366657220616d6f756e742065786365656473206260008301527f616c616e636500000000000000000000000000000000000000000000000000006020830152604082019050919050565b600061246b601683612c28565b91507f6164647265737320616c726561647920657869737421000000000000000000006000830152602082019050919050565b60006124ab601d83612c28565b91507f43616e206e6f742064656c65746520636f6e7472616374206f776e65720000006000830152602082019050919050565b60006124eb602883612c28565b91507f45524332303a207472616e7366657220616d6f756e742065786365656473206160008301527f6c6c6f77616e63650000000000000000000000000000000000000000000000006020830152604082019050919050565b6000612551601e83612c28565b91507f45786368616e676520636c6f736564202626206e6f74207370656369616c00006000830152602082019050919050565b6000612591600f83612c28565b91507f4e6f2073756368207370656369616c00000000000000000000000000000000006000830152602082019050919050565b60006125d1602183612c28565b91507f45524332303a206275726e2066726f6d20746865207a65726f2061646472657360008301527f73000000000000000000000000000000000000000000000000000000000000006020830152604082019050919050565b6000612637602583612c28565b91507f45524332303a207472616e736665722066726f6d20746865207a65726f20616460008301527f64726573730000000000000000000000000000000000000000000000000000006020830152604082019050919050565b600061269d602483612c28565b91507f45524332303a20617070726f76652066726f6d20746865207a65726f2061646460008301527f72657373000000000000000000000000000000000000000000000000000000006020830152604082019050919050565b6000612703601183612c28565b91507f496420616c7265616479206578697374210000000000000000000000000000006000830152602082019050919050565b6000612743602583612c28565b91507f45524332303a2064656372656173656420616c6c6f77616e63652062656c6f7760008301527f207a65726f0000000000000000000000000000000000000000000000000000006020830152604082019050919050565b60006127a9601f83612c28565b91507f45524332303a206d696e7420746f20746865207a65726f2061646472657373006000830152602082019050919050565b6127e581612ce1565b82525050565b6127f481612d0f565b82525050565b61280381612d19565b82525050565b600060208201905061281e60008301846121ef565b92915050565b600060a08201905061283960008301886121ef565b61284660208301876121ef565b61285360408301866121ef565b61286060608301856127eb565b61286d60808301846127eb565b9695505050505050565b600060808201905061288c60008301876121ef565b61289960208301866121ef565b6128a660408301856127dc565b6128b360608301846127eb565b95945050505050565b60006080820190506128d160008301876121ef565b6128de60208301866121ef565b6128eb60408301856127fa565b6128f860608301846127eb565b95945050505050565b600060608201905061291660008301866121ef565b61292360208301856121fe565b61293060408301846127eb565b949350505050565b600060608201905061294d60008301866121ef565b61295a60208301856127eb565b61296760408301846127eb565b949350505050565b600060208201905061298460008301846121fe565b92915050565b600060208201905081810360008301526129a4818461220d565b905092915050565b600060208201905081810360008301526129c581612246565b9050919050565b600060208201905081810360008301526129e5816122ac565b9050919050565b60006020820190508181036000830152612a0581612312565b9050919050565b60006020820190508181036000830152612a2581612352565b9050919050565b60006020820190508181036000830152612a45816123b8565b9050919050565b60006020820190508181036000830152612a65816123f8565b9050919050565b60006020820190508181036000830152612a858161245e565b9050919050565b60006020820190508181036000830152612aa58161249e565b9050919050565b60006020820190508181036000830152612ac5816124de565b9050919050565b60006020820190508181036000830152612ae581612544565b9050919050565b60006020820190508181036000830152612b0581612584565b9050919050565b60006020820190508181036000830152612b25816125c4565b9050919050565b60006020820190508181036000830152612b458161262a565b9050919050565b60006020820190508181036000830152612b6581612690565b9050919050565b60006020820190508181036000830152612b85816126f6565b9050919050565b60006020820190508181036000830152612ba581612736565b9050919050565b60006020820190508181036000830152612bc58161279c565b9050919050565b6000602082019050612be160008301846127dc565b92915050565b6000602082019050612bfc60008301846127eb565b92915050565b6000602082019050612c1760008301846127fa565b92915050565b600081519050919050565b600082825260208201905092915050565b6000612c4482612d0f565b9150612c4f83612d0f565b9250827fffffffffffffffffffffffffffffffffffffffffffffffffffffffffffffffff03821115612c8457612c83612d8b565b5b828201905092915050565b6000612c9a82612d0f565b9150612ca583612d0f565b925082821015612cb857612cb7612d8b565b5b828203905092915050565b6000612cce82612cef565b9050919050565b60008115159050919050565b600061ffff82169050919050565b600073ffffffffffffffffffffffffffffffffffffffff82169050919050565b6000819050919050565b600060ff82169050919050565b60005b83811015612d44578082015181840152602081019050612d29565b83811115612d53576000848401525b50505050565b60006002820490506001821680612d7157607f821691505b60208210811415612d8557612d84612dba565b5b50919050565b7f4e487b7100000000000000000000000000000000000000000000000000000000600052601160045260246000fd5b7f4e487b7100000000000000000000000000000000000000000000000000000000600052602260045260246000fd5b6000601f19601f8301169050919050565b612e0381612cc3565b8114612e0e57600080fd5b50565b612e1a81612cd5565b8114612e2557600080fd5b50565b612e3181612ce1565b8114612e3c57600080fd5b50565b612e4881612d0f565b8114612e5357600080fd5b50565b612e5f81612d19565b8114612e6a57600080fd5b5056fea264697066735822122023442cdd10b003d3a26d4a8f6332b4c77540cb10c1e640f7ba8fce362905750e64736f6c63430008000033",
  "linkReferences": {},
  "deployedLinkReferences": {}
}